Archive member included to satisfy reference by file (symbol)

/home/genius/gcc-arm-none-eabi-8-2018-q4-major/bin/../lib/gcc/arm-none-eabi/8.2.1/thumb/v7-m/nofp/libgcc.a(_arm_addsubsf3.o)
                              build/zoul/remote-revb/obj/power-mgmt.o (__aeabi_fsub)
/home/genius/gcc-arm-none-eabi-8-2018-q4-major/bin/../lib/gcc/arm-none-eabi/8.2.1/thumb/v7-m/nofp/libgcc.a(_arm_muldivsf3.o)
                              build/zoul/remote-revb/obj/power-mgmt.o (__aeabi_fmul)
/home/genius/gcc-arm-none-eabi-8-2018-q4-major/bin/../lib/gcc/arm-none-eabi/8.2.1/thumb/v7-m/nofp/libgcc.a(_arm_fixunssfsi.o)
                              build/zoul/remote-revb/obj/power-mgmt.o (__aeabi_f2uiz)
/home/genius/gcc-arm-none-eabi-8-2018-q4-major/bin/../lib/gcc/arm-none-eabi/8.2.1/thumb/v7-m/nofp/libgcc.a(_aeabi_ldivmod.o)
                              build/zoul/remote-revb/obj/spi-legacy.o (__aeabi_ldivmod)
/home/genius/gcc-arm-none-eabi-8-2018-q4-major/bin/../lib/gcc/arm-none-eabi/8.2.1/thumb/v7-m/nofp/libgcc.a(_aeabi_uldivmod.o)
                              build/zoul/remote-revb/obj/spi-legacy.o (__aeabi_uldivmod)
/home/genius/gcc-arm-none-eabi-8-2018-q4-major/bin/../lib/gcc/arm-none-eabi/8.2.1/thumb/v7-m/nofp/libgcc.a(_udivmoddi4.o)
                              /home/genius/gcc-arm-none-eabi-8-2018-q4-major/bin/../lib/gcc/arm-none-eabi/8.2.1/thumb/v7-m/nofp/libgcc.a(_aeabi_ldivmod.o) (__udivmoddi4)
/home/genius/gcc-arm-none-eabi-8-2018-q4-major/bin/../lib/gcc/arm-none-eabi/8.2.1/thumb/v7-m/nofp/libgcc.a(_dvmd_tls.o)
                              /home/genius/gcc-arm-none-eabi-8-2018-q4-major/bin/../lib/gcc/arm-none-eabi/8.2.1/thumb/v7-m/nofp/libgcc.a(_aeabi_ldivmod.o) (__aeabi_ldiv0)
/home/genius/gcc-arm-none-eabi-8-2018-q4-major/bin/../lib/gcc/arm-none-eabi/8.2.1/../../../../arm-none-eabi/lib/thumb/v7-m/nofp/libc.a(lib_a-malloc.o)
                              build/zoul/remote-revb/obj/syscall.o (malloc)
/home/genius/gcc-arm-none-eabi-8-2018-q4-major/bin/../lib/gcc/arm-none-eabi/8.2.1/../../../../arm-none-eabi/lib/thumb/v7-m/nofp/libc.a(lib_a-mallocr.o)
                              /home/genius/gcc-arm-none-eabi-8-2018-q4-major/bin/../lib/gcc/arm-none-eabi/8.2.1/../../../../arm-none-eabi/lib/thumb/v7-m/nofp/libc.a(lib_a-malloc.o) (_malloc_r)
/home/genius/gcc-arm-none-eabi-8-2018-q4-major/bin/../lib/gcc/arm-none-eabi/8.2.1/../../../../arm-none-eabi/lib/thumb/v7-m/nofp/libc.a(lib_a-memcmp.o)
                              build/zoul/remote-revb/obj/linkaddr.o (memcmp)
/home/genius/gcc-arm-none-eabi-8-2018-q4-major/bin/../lib/gcc/arm-none-eabi/8.2.1/../../../../arm-none-eabi/lib/thumb/v7-m/nofp/libc.a(lib_a-memcpy.o)
                              build/zoul/remote-revb/obj/sha256.o (memcpy)
/home/genius/gcc-arm-none-eabi-8-2018-q4-major/bin/../lib/gcc/arm-none-eabi/8.2.1/../../../../arm-none-eabi/lib/thumb/v7-m/nofp/libc.a(lib_a-memmove.o)
                              build/zoul/remote-revb/obj/uip-icmp6.o (memmove)
/home/genius/gcc-arm-none-eabi-8-2018-q4-major/bin/../lib/gcc/arm-none-eabi/8.2.1/../../../../arm-none-eabi/lib/thumb/v7-m/nofp/libc.a(lib_a-memset.o)
                              build/zoul/remote-revb/obj/sha256.o (memset)
/home/genius/gcc-arm-none-eabi-8-2018-q4-major/bin/../lib/gcc/arm-none-eabi/8.2.1/../../../../arm-none-eabi/lib/thumb/v7-m/nofp/libc.a(lib_a-mlock.o)
                              /home/genius/gcc-arm-none-eabi-8-2018-q4-major/bin/../lib/gcc/arm-none-eabi/8.2.1/../../../../arm-none-eabi/lib/thumb/v7-m/nofp/libc.a(lib_a-mallocr.o) (__malloc_lock)
/home/genius/gcc-arm-none-eabi-8-2018-q4-major/bin/../lib/gcc/arm-none-eabi/8.2.1/../../../../arm-none-eabi/lib/thumb/v7-m/nofp/libc.a(lib_a-rand.o)
                              web-db.o (rand)
/home/genius/gcc-arm-none-eabi-8-2018-q4-major/bin/../lib/gcc/arm-none-eabi/8.2.1/../../../../arm-none-eabi/lib/thumb/v7-m/nofp/libc.a(lib_a-reent.o)
                              build/zoul/remote-revb/obj/syscalls.o (errno)
/home/genius/gcc-arm-none-eabi-8-2018-q4-major/bin/../lib/gcc/arm-none-eabi/8.2.1/../../../../arm-none-eabi/lib/thumb/v7-m/nofp/libc.a(lib_a-sbrkr.o)
                              /home/genius/gcc-arm-none-eabi-8-2018-q4-major/bin/../lib/gcc/arm-none-eabi/8.2.1/../../../../arm-none-eabi/lib/thumb/v7-m/nofp/libc.a(lib_a-mallocr.o) (_sbrk_r)
/home/genius/gcc-arm-none-eabi-8-2018-q4-major/bin/../lib/gcc/arm-none-eabi/8.2.1/../../../../arm-none-eabi/lib/thumb/v7-m/nofp/libc.a(lib_a-strcmp.o)
                              build/zoul/remote-revb/obj/cfs-coffee.o (strcmp)
/home/genius/gcc-arm-none-eabi-8-2018-q4-major/bin/../lib/gcc/arm-none-eabi/8.2.1/../../../../arm-none-eabi/lib/thumb/v7-m/nofp/libc.a(lib_a-strlen-stub.o)
                              build/zoul/remote-revb/obj/sensors.o (strlen)
/home/genius/gcc-arm-none-eabi-8-2018-q4-major/bin/../lib/gcc/arm-none-eabi/8.2.1/../../../../arm-none-eabi/lib/thumb/v7-m/nofp/libc.a(lib_a-strncmp.o)
                              build/zoul/remote-revb/obj/sensors.o (strncmp)
/home/genius/gcc-arm-none-eabi-8-2018-q4-major/bin/../lib/gcc/arm-none-eabi/8.2.1/../../../../arm-none-eabi/lib/thumb/v7-m/nofp/libc.a(lib_a-strncpy.o)
                              build/zoul/remote-revb/obj/cfs-coffee.o (strncpy)
/home/genius/gcc-arm-none-eabi-8-2018-q4-major/bin/../lib/gcc/arm-none-eabi/8.2.1/../../../../arm-none-eabi/lib/thumb/v7-m/nofp/libc.a(lib_a-freer.o)
                              /home/genius/gcc-arm-none-eabi-8-2018-q4-major/bin/../lib/gcc/arm-none-eabi/8.2.1/../../../../arm-none-eabi/lib/thumb/v7-m/nofp/libc.a(lib_a-malloc.o) (_free_r)
/home/genius/gcc-arm-none-eabi-8-2018-q4-major/bin/../lib/gcc/arm-none-eabi/8.2.1/../../../../arm-none-eabi/lib/thumb/v7-m/nofp/libc.a(lib_a-impure.o)
                              /home/genius/gcc-arm-none-eabi-8-2018-q4-major/bin/../lib/gcc/arm-none-eabi/8.2.1/../../../../arm-none-eabi/lib/thumb/v7-m/nofp/libc.a(lib_a-malloc.o) (_impure_ptr)
/home/genius/gcc-arm-none-eabi-8-2018-q4-major/bin/../lib/gcc/arm-none-eabi/8.2.1/../../../../arm-none-eabi/lib/thumb/v7-m/nofp/libc.a(lib_a-lock.o)
                              /home/genius/gcc-arm-none-eabi-8-2018-q4-major/bin/../lib/gcc/arm-none-eabi/8.2.1/../../../../arm-none-eabi/lib/thumb/v7-m/nofp/libc.a(lib_a-mlock.o) (__retarget_lock_acquire_recursive)

Allocating common symbols
Common symbol       size              file

compower_idle_activity
                    0x10              build/zoul/remote-revb/obj/compower.o
energest_total_time
                    0x28              build/zoul/remote-revb/obj/energest.o
uip_ds6_timer_ra    0x8               build/zoul/remote-revb/obj/uip-ds6.o
rtcc_int1_callback  0x4               build/zoul/remote-revb/obj/rtcc.o
__lock___atexit_recursive_mutex
                    0x1               /home/genius/gcc-arm-none-eabi-8-2018-q4-major/bin/../lib/gcc/arm-none-eabi/8.2.1/../../../../arm-none-eabi/lib/thumb/v7-m/nofp/libc.a(lib_a-lock.o)
usb_setup_buffer    0x8               build/zoul/remote-revb/obj/usb-core.o
uip_ds6_if          0xf8              build/zoul/remote-revb/obj/uip-ds6.o
uip_ds6_netif_addr_list_offset
                    0x1               build/zoul/remote-revb/obj/uip-ds6.o
__lock___arc4random_mutex
                    0x1               /home/genius/gcc-arm-none-eabi-8-2018-q4-major/bin/../lib/gcc/arm-none-eabi/8.2.1/../../../../arm-none-eabi/lib/thumb/v7-m/nofp/libc.a(lib_a-lock.o)
uip_len             0x2               build/zoul/remote-revb/obj/uip6.o
errno               0x4               /home/genius/gcc-arm-none-eabi-8-2018-q4-major/bin/../lib/gcc/arm-none-eabi/8.2.1/../../../../arm-none-eabi/lib/thumb/v7-m/nofp/libc.a(lib_a-reent.o)
button_hal_release_event
                    0x1               build/zoul/remote-revb/obj/button-hal.o
uip_ds6_addr_size   0x1               build/zoul/remote-revb/obj/uip-ds6.o
curr_instance       0x160             build/zoul/remote-revb/obj/rpl-dag.o
uip_sappdata        0x4               build/zoul/remote-revb/obj/uip6.o
energest_current_mode
                    0x5               build/zoul/remote-revb/obj/energest.o
packetbuf_addrs     0x10              build/zoul/remote-revb/obj/packetbuf.o
uip_acc32           0x4               build/zoul/remote-revb/obj/uip6.o
uip_ds6_prefix_list
                    0x60              build/zoul/remote-revb/obj/uip-ds6.o
uip_lladdr          0x8               build/zoul/remote-revb/obj/uip6.o
uip_aligned_buf     0x500             build/zoul/remote-revb/obj/uip6.o
__lock___env_recursive_mutex
                    0x1               /home/genius/gcc-arm-none-eabi-8-2018-q4-major/bin/../lib/gcc/arm-none-eabi/8.2.1/../../../../arm-none-eabi/lib/thumb/v7-m/nofp/libc.a(lib_a-lock.o)
uip_flags           0x1               build/zoul/remote-revb/obj/uip6.o
rpl_multicast_addr  0x10              build/zoul/remote-revb/obj/rpl.o
__lock___sinit_recursive_mutex
                    0x1               /home/genius/gcc-arm-none-eabi-8-2018-q4-major/bin/../lib/gcc/arm-none-eabi/8.2.1/../../../../arm-none-eabi/lib/thumb/v7-m/nofp/libc.a(lib_a-lock.o)
button_hal_periodic_event
                    0x1               build/zoul/remote-revb/obj/button-hal.o
periodic_timer      0x20              build/zoul/remote-revb/obj/link-stats.o
uip_ds6_timer_periodic
                    0x10              build/zoul/remote-revb/obj/uip-ds6.o
linkaddr_node_addr  0x8               build/zoul/remote-revb/obj/linkaddr.o
__lock___malloc_recursive_mutex
                    0x1               /home/genius/gcc-arm-none-eabi-8-2018-q4-major/bin/../lib/gcc/arm-none-eabi/8.2.1/../../../../arm-none-eabi/lib/thumb/v7-m/nofp/libc.a(lib_a-lock.o)
uip_udp_conn        0x4               build/zoul/remote-revb/obj/uip6.o
packetbuf_attrs     0x1a              build/zoul/remote-revb/obj/packetbuf.o
uip_appdata         0x4               build/zoul/remote-revb/obj/uip6.o
uip_conn            0x4               build/zoul/remote-revb/obj/uip6.o
tcpip_event         0x1               build/zoul/remote-revb/obj/tcpip.o
unicast_per_neighbor_rpl_storing
                    0x14              build/zoul/remote-revb/obj/contiki-main.o
unicast_per_neighbor_rpl_ns
                    0x14              build/zoul/remote-revb/obj/contiki-main.o
uip_conns           0x180             build/zoul/remote-revb/obj/uip6.o
button_hal_press_event
                    0x1               build/zoul/remote-revb/obj/button-hal.o
default_common      0x14              build/zoul/remote-revb/obj/contiki-main.o
uip_listenports     0x28              build/zoul/remote-revb/obj/uip6.o
energest_current_time
                    0x14              build/zoul/remote-revb/obj/energest.o
__lock___at_quick_exit_mutex
                    0x1               /home/genius/gcc-arm-none-eabi-8-2018-q4-major/bin/../lib/gcc/arm-none-eabi/8.2.1/../../../../arm-none-eabi/lib/thumb/v7-m/nofp/libc.a(lib_a-lock.o)
sensors_flags       0x3               build/zoul/remote-revb/obj/zoul-sensors.o
serial_line_event_message
                    0x1               build/zoul/remote-revb/obj/serial-line.o
eb_per_time_source  0x14              build/zoul/remote-revb/obj/contiki-main.o
__lock___dd_hash_mutex
                    0x1               /home/genius/gcc-arm-none-eabi-8-2018-q4-major/bin/../lib/gcc/arm-none-eabi/8.2.1/../../../../arm-none-eabi/lib/thumb/v7-m/nofp/libc.a(lib_a-lock.o)
__lock___tz_mutex   0x1               /home/genius/gcc-arm-none-eabi-8-2018-q4-major/bin/../lib/gcc/arm-none-eabi/8.2.1/../../../../arm-none-eabi/lib/thumb/v7-m/nofp/libc.a(lib_a-lock.o)
sensors_event       0x1               build/zoul/remote-revb/obj/sensors.o
bytes_left_to_write
                    0x2               build/zoul/remote-revb/obj/cc1200.o
uip_slen            0x2               build/zoul/remote-revb/obj/uip6.o
__lock___sfp_recursive_mutex
                    0x1               /home/genius/gcc-arm-none-eabi-8-2018-q4-major/bin/../lib/gcc/arm-none-eabi/8.2.1/../../../../arm-none-eabi/lib/thumb/v7-m/nofp/libc.a(lib_a-lock.o)
uip_udp_conns       0x100             build/zoul/remote-revb/obj/uip6.o

Discarded input sections

 .text          0x0000000000000000        0x0 build/zoul/remote-revb/obj/startup-gcc.o
 .data          0x0000000000000000        0x0 build/zoul/remote-revb/obj/startup-gcc.o
 .bss           0x0000000000000000        0x0 build/zoul/remote-revb/obj/startup-gcc.o
 .text          0x0000000000000000        0x0 build/zoul/remote-revb/obj/platform.o
 .data          0x0000000000000000        0x0 build/zoul/remote-revb/obj/platform.o
 .bss           0x0000000000000000        0x0 build/zoul/remote-revb/obj/platform.o
 .text.radio_phy_overhead
                0x0000000000000000       0x18 build/zoul/remote-revb/obj/platform.o
 .text.radio_byte_air_time
                0x0000000000000000       0x18 build/zoul/remote-revb/obj/platform.o
 .text.radio_delay_before_tx
                0x0000000000000000       0x18 build/zoul/remote-revb/obj/platform.o
 .text.radio_delay_before_rx
                0x0000000000000000       0x18 build/zoul/remote-revb/obj/platform.o
 .text.radio_delay_before_detect
                0x0000000000000000       0x18 build/zoul/remote-revb/obj/platform.o
 .text.radio_tsch_timeslot_timing
                0x0000000000000000       0x1c build/zoul/remote-revb/obj/platform.o
Memory Configuration

Name             Origin             Length             Attributes
FLASH_FW         0x0000000000202000 0x000000000007dfd4 xr
FLASH_CCA        0x000000000027ffd4 0x000000000000002c xr
NRSRAM           0x0000000020000000 0x0000000000004000 xrw
FRSRAM           0x0000000020004000 0x0000000000004000 xrw
*default*        0x0000000000000000 0xffffffffffffffff

Linker script and memory map

LOAD build/zoul/remote-revb/obj/startup-gcc.o
LOAD build/zoul/remote-revb/obj/platform.o
LOAD build/zoul/remote-revb/obj/leds-arch.o
LOAD build/zoul/remote-revb/obj/leds.o
LOAD build/zoul/remote-revb/obj/cc1200-zoul-arch.o
LOAD build/zoul/remote-revb/obj/adc-zoul.o
LOAD build/zoul/remote-revb/obj/board-buttons.o
LOAD build/zoul/remote-revb/obj/zoul-sensors.o
LOAD build/zoul/remote-revb/obj/board.o
LOAD build/zoul/remote-revb/obj/antenna-sw.o
LOAD build/zoul/remote-revb/obj/mmc-arch.o
LOAD build/zoul/remote-revb/obj/rtcc.o
LOAD build/zoul/remote-revb/obj/power-mgmt.o
LOAD build/zoul/remote-revb/obj/soc.o
LOAD build/zoul/remote-revb/obj/clock.o
LOAD build/zoul/remote-revb/obj/rtimer-arch.o
LOAD build/zoul/remote-revb/obj/uart.o
LOAD build/zoul/remote-revb/obj/watchdog.o
LOAD build/zoul/remote-revb/obj/nvic.o
LOAD build/zoul/remote-revb/obj/sys-ctrl.o
LOAD build/zoul/remote-revb/obj/gpio.o
LOAD build/zoul/remote-revb/obj/ioc.o
LOAD build/zoul/remote-revb/obj/spi-legacy.o
LOAD build/zoul/remote-revb/obj/adc.o
LOAD build/zoul/remote-revb/obj/spi-arch.o
LOAD build/zoul/remote-revb/obj/crypto.o
LOAD build/zoul/remote-revb/obj/aes.o
LOAD build/zoul/remote-revb/obj/ecb.o
LOAD build/zoul/remote-revb/obj/cbc.o
LOAD build/zoul/remote-revb/obj/ctr.o
LOAD build/zoul/remote-revb/obj/cbc-mac.o
LOAD build/zoul/remote-revb/obj/gcm.o
LOAD build/zoul/remote-revb/obj/ccm.o
LOAD build/zoul/remote-revb/obj/sha256.o
LOAD build/zoul/remote-revb/obj/gpio-hal-arch.o
LOAD build/zoul/remote-revb/obj/cc2538-aes-128.o
LOAD build/zoul/remote-revb/obj/cc2538-ccm-star.o
LOAD build/zoul/remote-revb/obj/cc2538-rf.o
LOAD build/zoul/remote-revb/obj/udma.o
LOAD build/zoul/remote-revb/obj/lpm.o
LOAD build/zoul/remote-revb/obj/int-master.o
LOAD build/zoul/remote-revb/obj/pka.o
LOAD build/zoul/remote-revb/obj/bignum-driver.o
LOAD build/zoul/remote-revb/obj/ecc-driver.o
LOAD build/zoul/remote-revb/obj/ecc-algorithm.o
LOAD build/zoul/remote-revb/obj/ecc-curve.o
LOAD build/zoul/remote-revb/obj/dbg.o
LOAD build/zoul/remote-revb/obj/ieee-addr.o
LOAD build/zoul/remote-revb/obj/slip-arch.o
LOAD build/zoul/remote-revb/obj/slip.o
LOAD build/zoul/remote-revb/obj/i2c.o
LOAD build/zoul/remote-revb/obj/cc2538-temp-sensor.o
LOAD build/zoul/remote-revb/obj/vdd3-sensor.o
LOAD build/zoul/remote-revb/obj/cfs-coffee.o
LOAD build/zoul/remote-revb/obj/cfs-coffee-arch.o
LOAD build/zoul/remote-revb/obj/pwm.o
LOAD build/zoul/remote-revb/obj/usb-core.o
LOAD build/zoul/remote-revb/obj/cdc-acm.o
LOAD build/zoul/remote-revb/obj/usb-arch.o
LOAD build/zoul/remote-revb/obj/usb-serial.o
LOAD build/zoul/remote-revb/obj/cdc-acm-descriptors.o
LOAD build/zoul/remote-revb/obj/contiki-main.o
LOAD build/zoul/remote-revb/obj/autostart.o
LOAD build/zoul/remote-revb/obj/stimer.o
LOAD build/zoul/remote-revb/obj/energest.o
LOAD build/zoul/remote-revb/obj/etimer.o
LOAD build/zoul/remote-revb/obj/log.o
LOAD build/zoul/remote-revb/obj/mutex.o
LOAD build/zoul/remote-revb/obj/ctimer.o
LOAD build/zoul/remote-revb/obj/compower.o
LOAD build/zoul/remote-revb/obj/atomic.o
LOAD build/zoul/remote-revb/obj/rtimer.o
LOAD build/zoul/remote-revb/obj/node-id.o
LOAD build/zoul/remote-revb/obj/process.o
LOAD build/zoul/remote-revb/obj/timer.o
LOAD build/zoul/remote-revb/obj/stack-check.o
LOAD build/zoul/remote-revb/obj/button-hal.o
LOAD build/zoul/remote-revb/obj/serial-line.o
LOAD build/zoul/remote-revb/obj/spi.o
LOAD build/zoul/remote-revb/obj/nullradio.o
LOAD build/zoul/remote-revb/obj/gpio-hal.o
LOAD build/zoul/remote-revb/obj/dbl-circ-list.o
LOAD build/zoul/remote-revb/obj/crc16.o
LOAD build/zoul/remote-revb/obj/ifft.o
LOAD build/zoul/remote-revb/obj/sensors.o
LOAD build/zoul/remote-revb/obj/ccm-star.o
LOAD build/zoul/remote-revb/obj/dbl-list.o
LOAD build/zoul/remote-revb/obj/ringbufindex.o
LOAD build/zoul/remote-revb/obj/list.o
LOAD build/zoul/remote-revb/obj/circular-list.o
LOAD build/zoul/remote-revb/obj/aes-128.o
LOAD build/zoul/remote-revb/obj/trickle-timer.o
LOAD build/zoul/remote-revb/obj/memb.o
LOAD build/zoul/remote-revb/obj/heapmem.o
LOAD build/zoul/remote-revb/obj/random.o
LOAD build/zoul/remote-revb/obj/assert.o
LOAD build/zoul/remote-revb/obj/ringbuf.o
LOAD build/zoul/remote-revb/obj/queuebuf.o
LOAD build/zoul/remote-revb/obj/nbr-table.o
LOAD build/zoul/remote-revb/obj/packetbuf.o
LOAD build/zoul/remote-revb/obj/netstack.o
LOAD build/zoul/remote-revb/obj/linkaddr.o
LOAD build/zoul/remote-revb/obj/net-debug.o
LOAD build/zoul/remote-revb/obj/link-stats.o
LOAD build/zoul/remote-revb/obj/mac-sequence.o
LOAD build/zoul/remote-revb/obj/mac.o
LOAD build/zoul/remote-revb/obj/frame802154e-ie.o
LOAD build/zoul/remote-revb/obj/framer-802154.o
LOAD build/zoul/remote-revb/obj/nullframer.o
LOAD build/zoul/remote-revb/obj/frame802154.o
LOAD build/zoul/remote-revb/obj/ff.o
LOAD build/zoul/remote-revb/obj/syscall.o
LOAD build/zoul/remote-revb/obj/unicode.o
LOAD build/zoul/remote-revb/obj/diskio.o
LOAD build/zoul/remote-revb/obj/mmc.o
LOAD build/zoul/remote-revb/obj/syscalls.o
LOAD build/zoul/remote-revb/obj/strformat.o
LOAD build/zoul/remote-revb/obj/printf.o
LOAD build/zoul/remote-revb/obj/sprintf.o
LOAD build/zoul/remote-revb/obj/snprintf.o
LOAD build/zoul/remote-revb/obj/puts.o
LOAD build/zoul/remote-revb/obj/putchar.o
LOAD build/zoul/remote-revb/obj/cc1200-868-fsk-1-2kbps.o
LOAD build/zoul/remote-revb/obj/cc1200-802154g-863-870-fsk-50kbps.o
LOAD build/zoul/remote-revb/obj/cc1200.o
LOAD build/zoul/remote-revb/obj/cc1200-868-4gfsk-1000kbps.o
LOAD build/zoul/remote-revb/obj/rgb-led.o
LOAD build/zoul/remote-revb/obj/csma-security.o
LOAD build/zoul/remote-revb/obj/anti-replay.o
LOAD build/zoul/remote-revb/obj/csma.o
LOAD build/zoul/remote-revb/obj/csma-output.o
LOAD build/zoul/remote-revb/obj/ccm-star-packetbuf.o
LOAD build/zoul/remote-revb/obj/uipbuf.o
LOAD build/zoul/remote-revb/obj/uip-icmp6.o
LOAD build/zoul/remote-revb/obj/uip-sr.o
LOAD build/zoul/remote-revb/obj/uip-ds6.o
LOAD build/zoul/remote-revb/obj/uip-packetqueue.o
LOAD build/zoul/remote-revb/obj/tcp-socket.o
LOAD build/zoul/remote-revb/obj/uiplib.o
LOAD build/zoul/remote-revb/obj/ip64-addr.o
LOAD build/zoul/remote-revb/obj/uip-udp-packet.o
LOAD build/zoul/remote-revb/obj/uip-ds6-route.o
LOAD build/zoul/remote-revb/obj/psock.o
LOAD build/zoul/remote-revb/obj/tcpip.o
LOAD build/zoul/remote-revb/obj/uip6.o
LOAD build/zoul/remote-revb/obj/uip-ds6-nbr.o
LOAD build/zoul/remote-revb/obj/uip-nameserver.o
LOAD build/zoul/remote-revb/obj/uip-nd6.o
LOAD build/zoul/remote-revb/obj/udp-socket.o
LOAD build/zoul/remote-revb/obj/simple-udp.o
LOAD build/zoul/remote-revb/obj/sicslowpan.o
LOAD build/zoul/remote-revb/obj/rpl-icmp6.o
LOAD build/zoul/remote-revb/obj/rpl-of0.o
LOAD build/zoul/remote-revb/obj/rpl-neighbor.o
LOAD build/zoul/remote-revb/obj/rpl-timers.o
LOAD build/zoul/remote-revb/obj/rpl-ext-header.o
LOAD build/zoul/remote-revb/obj/rpl.o
LOAD build/zoul/remote-revb/obj/rpl-nbr-policy.o
LOAD build/zoul/remote-revb/obj/rpl-mrhof.o
LOAD build/zoul/remote-revb/obj/rpl-dag.o
LOAD build/zoul/remote-revb/obj/rpl-dag-root.o
LOAD web-db.o
LOAD build/zoul/remote-revb/obj/myencrypt.o
LOAD build/zoul/remote-revb/obj/httpd-simple.o
START GROUP
LOAD /home/genius/gcc-arm-none-eabi-8-2018-q4-major/bin/../lib/gcc/arm-none-eabi/8.2.1/../../../../arm-none-eabi/lib/thumb/v7-m/nofp/libm.a
END GROUP
START GROUP
LOAD /home/genius/gcc-arm-none-eabi-8-2018-q4-major/bin/../lib/gcc/arm-none-eabi/8.2.1/thumb/v7-m/nofp/libgcc.a
LOAD /home/genius/gcc-arm-none-eabi-8-2018-q4-major/bin/../lib/gcc/arm-none-eabi/8.2.1/../../../../arm-none-eabi/lib/thumb/v7-m/nofp/libc.a
END GROUP

.text           0x0000000000202000     0xc8fe
                0x0000000000202000                _text = .
 *(SORT_BY_ALIGNMENT(.vectors))
 .vectors       0x0000000000202000      0x28c build/zoul/remote-revb/obj/startup-gcc.o
                0x0000000000202000                vectors
 *(SORT_BY_ALIGNMENT(.text*))
 .text.reset_handler
                0x000000000020228c       0x40 build/zoul/remote-revb/obj/startup-gcc.o
                0x000000000020228c                reset_handler
 .text.platform_init_stage_two
                0x00000000002022cc       0x4c build/zoul/remote-revb/obj/platform.o
                0x00000000002022cc                platform_init_stage_two
 .text.platform_init_stage_three
                0x0000000000202318       0x8c build/zoul/remote-revb/obj/platform.o
                0x0000000000202318                platform_init_stage_three
 .text.leds_on  0x00000000002023a4       0x50 build/zoul/remote-revb/obj/leds.o
                0x00000000002023a4                leds_on
 .text.leds_off
                0x00000000002023f4       0x48 build/zoul/remote-revb/obj/leds.o
                0x00000000002023f4                leds_off
 .text.leds_init
                0x000000000020243c       0x48 build/zoul/remote-revb/obj/leds.o
                0x000000000020243c                leds_init
 .text.antenna_sw_config
                0x0000000000202484       0x30 build/zoul/remote-revb/obj/antenna-sw.o
                0x0000000000202484                antenna_sw_config
 .text.soc_get_rev
                0x00000000002024b4       0x18 build/zoul/remote-revb/obj/soc.o
                0x00000000002024b4                soc_get_rev
 .text.soc_print_info
                0x00000000002024cc       0x10 build/zoul/remote-revb/obj/soc.o
                0x00000000002024cc                soc_print_info
 .text.update_ticks
                0x00000000002024dc       0x54 build/zoul/remote-revb/obj/clock.o
 .text.clock_init
                0x0000000000202530       0x4c build/zoul/remote-revb/obj/clock.o
                0x0000000000202530                clock_init
 .text.clock_time
                0x000000000020257c       0x14 build/zoul/remote-revb/obj/clock.o
                0x000000000020257c                clock_time
 .text.clock_seconds
                0x0000000000202590       0x14 build/zoul/remote-revb/obj/clock.o
                0x0000000000202590                clock_seconds
 .text.clock_delay_usec
                0x00000000002025a4       0x1c build/zoul/remote-revb/obj/clock.o
                0x00000000002025a4                clock_delay_usec
 .text.clock_adjust
                0x00000000002025c0       0x20 build/zoul/remote-revb/obj/clock.o
                0x00000000002025c0                clock_adjust
 .text.rtimer_arch_next_trigger
                0x00000000002025e0        0xc build/zoul/remote-revb/obj/rtimer-arch.o
                0x00000000002025e0                rtimer_arch_next_trigger
 .text.rtimer_arch_now
                0x00000000002025ec       0x24 build/zoul/remote-revb/obj/rtimer-arch.o
                0x00000000002025ec                rtimer_arch_now
 .text.rtimer_arch_schedule
                0x0000000000202610       0x58 build/zoul/remote-revb/obj/rtimer-arch.o
                0x0000000000202610                rtimer_arch_schedule
 .text.rtimer_isr
                0x0000000000202668       0x2c build/zoul/remote-revb/obj/rtimer-arch.o
                0x0000000000202668                rtimer_isr
 .text.uart_isr
                0x0000000000202694       0x60 build/zoul/remote-revb/obj/uart.o
 .text.permit_pm1
                0x00000000002026f4       0x24 build/zoul/remote-revb/obj/uart.o
 .text.uart_init
                0x0000000000202718      0x198 build/zoul/remote-revb/obj/uart.o
                0x0000000000202718                uart_init
 .text.uart_set_input
                0x00000000002028b0       0x10 build/zoul/remote-revb/obj/uart.o
                0x00000000002028b0                uart_set_input
 .text.uart_write_byte
                0x00000000002028c0       0x1c build/zoul/remote-revb/obj/uart.o
                0x00000000002028c0                uart_write_byte
 .text.watchdog_init
                0x00000000002028dc        0xc build/zoul/remote-revb/obj/watchdog.o
                0x00000000002028dc                watchdog_init
 .text.watchdog_start
                0x00000000002028e8        0xc build/zoul/remote-revb/obj/watchdog.o
                0x00000000002028e8                watchdog_start
 .text.watchdog_periodic
                0x00000000002028f4       0x10 build/zoul/remote-revb/obj/watchdog.o
                0x00000000002028f4                watchdog_periodic
 .text.nvic_init
                0x0000000000202904       0x10 build/zoul/remote-revb/obj/nvic.o
                0x0000000000202904                nvic_init
 .text.sys_ctrl_init
                0x0000000000202914       0x74 build/zoul/remote-revb/obj/sys-ctrl.o
                0x0000000000202914                sys_ctrl_init
 .text.gpio_port_isr
                0x0000000000202988       0x48 build/zoul/remote-revb/obj/gpio.o
 .text.ioc_init
                0x00000000002029d0       0x1c build/zoul/remote-revb/obj/ioc.o
                0x00000000002029d0                ioc_init
 .text.ioc_set_over
                0x00000000002029ec       0x14 build/zoul/remote-revb/obj/ioc.o
                0x00000000002029ec                ioc_set_over
 .text.ioc_set_sel
                0x0000000000202a00       0x14 build/zoul/remote-revb/obj/ioc.o
                0x0000000000202a00                ioc_set_sel
 .text.adc_get  0x0000000000202a14       0x74 build/zoul/remote-revb/obj/adc.o
                0x0000000000202a14                adc_get
 .text.permit_pm1
                0x0000000000202a88       0x10 build/zoul/remote-revb/obj/crypto.o
 .text.crypto_isr
                0x0000000000202a98       0x28 build/zoul/remote-revb/obj/crypto.o
                0x0000000000202a98                crypto_isr
 .text.crypto_enable
                0x0000000000202ac0       0x20 build/zoul/remote-revb/obj/crypto.o
                0x0000000000202ac0                crypto_enable
 .text.crypto_init
                0x0000000000202ae0       0x3c build/zoul/remote-revb/obj/crypto.o
                0x0000000000202ae0                crypto_init
 .text.crypto_disable
                0x0000000000202b1c       0x20 build/zoul/remote-revb/obj/crypto.o
                0x0000000000202b1c                crypto_disable
 .text.compress
                0x0000000000202b3c      0x1b8 build/zoul/remote-revb/obj/sha256.o
 .text.tc_sha256_init
                0x0000000000202cf4       0x58 build/zoul/remote-revb/obj/sha256.o
                0x0000000000202cf4                tc_sha256_init
 .text.gpio_hal_arch_no_port_pin_cfg_set
                0x0000000000202d4c       0xbc build/zoul/remote-revb/obj/gpio-hal-arch.o
                0x0000000000202d4c                gpio_hal_arch_no_port_pin_cfg_set
 .text.receiving_packet
                0x0000000000202e08       0x18 build/zoul/remote-revb/obj/cc2538-rf.o
 .text.pending_packet
                0x0000000000202e20       0x10 build/zoul/remote-revb/obj/cc2538-rf.o
 .text.energest_switch
                0x0000000000202e30       0x58 build/zoul/remote-revb/obj/cc2538-rf.o
 .text.set_poll_mode
                0x0000000000202e88       0x98 build/zoul/remote-revb/obj/cc2538-rf.o
 .text.set_object
                0x0000000000202f20       0x30 build/zoul/remote-revb/obj/cc2538-rf.o
 .text.read     0x0000000000202f50       0xe0 build/zoul/remote-revb/obj/cc2538-rf.o
 .text.get_object
                0x0000000000203030      0x130 build/zoul/remote-revb/obj/cc2538-rf.o
 .text.off      0x0000000000203160       0x78 build/zoul/remote-revb/obj/cc2538-rf.o
 .text.on       0x00000000002031d8       0x44 build/zoul/remote-revb/obj/cc2538-rf.o
 .text.set_channel
                0x000000000020321c       0x38 build/zoul/remote-revb/obj/cc2538-rf.o
 .text.init     0x0000000000203254       0xe8 build/zoul/remote-revb/obj/cc2538-rf.o
 .text.get_value
                0x000000000020333c      0x17c build/zoul/remote-revb/obj/cc2538-rf.o
 .text.channel_clear
                0x00000000002034b8       0x3c build/zoul/remote-revb/obj/cc2538-rf.o
 .text.prepare  0x00000000002034f4       0x68 build/zoul/remote-revb/obj/cc2538-rf.o
 .text.process_thread_cc2538_rf_process
                0x000000000020355c       0x90 build/zoul/remote-revb/obj/cc2538-rf.o
 .text.transmit
                0x00000000002035ec       0xb4 build/zoul/remote-revb/obj/cc2538-rf.o
 .text.set_value
                0x00000000002036a0      0x18c build/zoul/remote-revb/obj/cc2538-rf.o
 .text.cc2538_rf_rx_tx_isr
                0x000000000020382c       0x24 build/zoul/remote-revb/obj/cc2538-rf.o
                0x000000000020382c                cc2538_rf_rx_tx_isr
 .text.cc2538_rf_err_isr
                0x0000000000203850       0x28 build/zoul/remote-revb/obj/cc2538-rf.o
                0x0000000000203850                cc2538_rf_err_isr
 .text.udma_init
                0x0000000000203878       0x34 build/zoul/remote-revb/obj/udma.o
                0x0000000000203878                udma_init
 .text.udma_set_channel_src
                0x00000000002038ac       0x10 build/zoul/remote-revb/obj/udma.o
                0x00000000002038ac                udma_set_channel_src
 .text.udma_set_channel_dst
                0x00000000002038bc       0x14 build/zoul/remote-revb/obj/udma.o
                0x00000000002038bc                udma_set_channel_dst
 .text.udma_set_channel_control_word
                0x00000000002038d0       0x14 build/zoul/remote-revb/obj/udma.o
                0x00000000002038d0                udma_set_channel_control_word
 .text.udma_channel_enable
                0x00000000002038e4       0x18 build/zoul/remote-revb/obj/udma.o
                0x00000000002038e4                udma_channel_enable
 .text.udma_channel_mask_set
                0x00000000002038fc       0x18 build/zoul/remote-revb/obj/udma.o
                0x00000000002038fc                udma_channel_mask_set
 .text.udma_channel_sw_request
                0x0000000000203914       0x18 build/zoul/remote-revb/obj/udma.o
                0x0000000000203914                udma_channel_sw_request
 .text.udma_channel_get_mode
                0x000000000020392c       0x1c build/zoul/remote-revb/obj/udma.o
                0x000000000020392c                udma_channel_get_mode
 .text.udma_isr
                0x0000000000203948       0x10 build/zoul/remote-revb/obj/udma.o
                0x0000000000203948                udma_isr
 .text.udma_err_isr
                0x0000000000203958        0xc build/zoul/remote-revb/obj/udma.o
                0x0000000000203958                udma_err_isr
 .text.select_32_mhz_xosc
                0x0000000000203964       0x2c build/zoul/remote-revb/obj/lpm.o
 .text.energest_switch
                0x0000000000203990       0x58 build/zoul/remote-revb/obj/lpm.o
 .text.lpm_exit
                0x00000000002039e8       0x44 build/zoul/remote-revb/obj/lpm.o
                0x00000000002039e8                lpm_exit
 .text.lpm_enter
                0x0000000000203a2c       0xcc build/zoul/remote-revb/obj/lpm.o
                0x0000000000203a2c                lpm_enter
 .text.lpm_register_peripheral
                0x0000000000203af8       0x24 build/zoul/remote-revb/obj/lpm.o
                0x0000000000203af8                lpm_register_peripheral
 .text.lpm_init
                0x0000000000203b1c       0x24 build/zoul/remote-revb/obj/lpm.o
                0x0000000000203b1c                lpm_init
 .text.pka_isr  0x0000000000203b40       0x28 build/zoul/remote-revb/obj/pka.o
                0x0000000000203b40                pka_isr
 .text.ieee_addr_cpy_to
                0x0000000000203b68       0x60 build/zoul/remote-revb/obj/ieee-addr.o
                0x0000000000203b68                ieee_addr_cpy_to
 .text.startup.main
                0x0000000000203bc8      0x1ec build/zoul/remote-revb/obj/contiki-main.o
                0x0000000000203bc8                main
 .text.stimer_expired
                0x0000000000203db4       0x20 build/zoul/remote-revb/obj/stimer.o
                0x0000000000203db4                stimer_expired
 .text.energest_init
                0x0000000000203dd4       0x48 build/zoul/remote-revb/obj/energest.o
                0x0000000000203dd4                energest_init
 .text.update_time
                0x0000000000203e1c       0x44 build/zoul/remote-revb/obj/etimer.o
 .text.etimer_request_poll
                0x0000000000203e60        0xc build/zoul/remote-revb/obj/etimer.o
                0x0000000000203e60                etimer_request_poll
 .text.process_thread_etimer_process
                0x0000000000203e6c       0xac build/zoul/remote-revb/obj/etimer.o
 .text.add_timer
                0x0000000000203f18       0x40 build/zoul/remote-revb/obj/etimer.o
 .text.etimer_pending
                0x0000000000203f58       0x10 build/zoul/remote-revb/obj/etimer.o
                0x0000000000203f58                etimer_pending
 .text.etimer_stop
                0x0000000000203f68       0x34 build/zoul/remote-revb/obj/etimer.o
                0x0000000000203f68                etimer_stop
 .text.log_6addr
                0x0000000000203f9c       0x20 build/zoul/remote-revb/obj/log.o
                0x0000000000203f9c                log_6addr
 .text.log_lladdr
                0x0000000000203fbc       0x40 build/zoul/remote-revb/obj/log.o
                0x0000000000203fbc                log_lladdr
 .text.process_thread_ctimer_process
                0x0000000000203ffc       0x7c build/zoul/remote-revb/obj/ctimer.o
 .text.ctimer_init
                0x0000000000204078       0x28 build/zoul/remote-revb/obj/ctimer.o
                0x0000000000204078                ctimer_init
 .text.ctimer_set_with_process
                0x00000000002040a0       0x44 build/zoul/remote-revb/obj/ctimer.o
                0x00000000002040a0                ctimer_set_with_process
 .text.ctimer_set
                0x00000000002040e4       0x14 build/zoul/remote-revb/obj/ctimer.o
                0x00000000002040e4                ctimer_set
 .text.ctimer_reset
                0x00000000002040f8       0x38 build/zoul/remote-revb/obj/ctimer.o
                0x00000000002040f8                ctimer_reset
 .text.ctimer_stop
                0x0000000000204130       0x2c build/zoul/remote-revb/obj/ctimer.o
                0x0000000000204130                ctimer_stop
 .text.ctimer_expired
                0x000000000020415c       0x34 build/zoul/remote-revb/obj/ctimer.o
                0x000000000020415c                ctimer_expired
 .text.rtimer_run_next
                0x0000000000204190       0x28 build/zoul/remote-revb/obj/rtimer.o
                0x0000000000204190                rtimer_run_next
 .text.node_id_init
                0x00000000002041b8       0x18 build/zoul/remote-revb/obj/node-id.o
                0x00000000002041b8                node_id_init
 .text.call_process.part.0
                0x00000000002041d0       0x38 build/zoul/remote-revb/obj/process.o
 .text.exit_process
                0x0000000000204208       0x80 build/zoul/remote-revb/obj/process.o
 .text.do_poll  0x0000000000204288       0x30 build/zoul/remote-revb/obj/process.o
 .text.process_alloc_event
                0x00000000002042b8       0x10 build/zoul/remote-revb/obj/process.o
                0x00000000002042b8                process_alloc_event
 .text.process_init
                0x00000000002042c8       0x30 build/zoul/remote-revb/obj/process.o
                0x00000000002042c8                process_init
 .text.process_run
                0x00000000002042f8       0x88 build/zoul/remote-revb/obj/process.o
                0x00000000002042f8                process_run
 .text.process_nevents
                0x0000000000204380       0x14 build/zoul/remote-revb/obj/process.o
                0x0000000000204380                process_nevents
 .text.process_post
                0x0000000000204394       0x3c build/zoul/remote-revb/obj/process.o
                0x0000000000204394                process_post
 .text.process_post_synch
                0x00000000002043d0       0x14 build/zoul/remote-revb/obj/process.o
                0x00000000002043d0                process_post_synch
 .text.process_start
                0x00000000002043e4       0x30 build/zoul/remote-revb/obj/process.o
                0x00000000002043e4                process_start
 .text.process_poll
                0x0000000000204414       0x18 build/zoul/remote-revb/obj/process.o
                0x0000000000204414                process_poll
 .text.stack_check_init
                0x000000000020442c       0x28 build/zoul/remote-revb/obj/stack-check.o
                0x000000000020442c                stack_check_init
 .text.stack_check_get_usage
                0x0000000000204454       0x40 build/zoul/remote-revb/obj/stack-check.o
                0x0000000000204454                stack_check_get_usage
 .text.process_thread_stack_check_process
                0x0000000000204494       0xa8 build/zoul/remote-revb/obj/stack-check.o
 .text.duration_exceeded_callback
                0x000000000020453c       0x34 build/zoul/remote-revb/obj/button-hal.o
 .text.process_thread_button_hal_process
                0x0000000000204570       0x74 build/zoul/remote-revb/obj/button-hal.o
 .text.press_release_handler
                0x00000000002045e4       0x18 build/zoul/remote-revb/obj/button-hal.o
 .text.debounce_handler
                0x00000000002045fc       0x64 build/zoul/remote-revb/obj/button-hal.o
 .text.button_hal_init
                0x0000000000204660      0x104 build/zoul/remote-revb/obj/button-hal.o
                0x0000000000204660                button_hal_init
 .text.process_thread_serial_line_process
                0x0000000000204764       0x98 build/zoul/remote-revb/obj/serial-line.o
 .text.serial_line_input_byte
                0x00000000002047fc       0x48 build/zoul/remote-revb/obj/serial-line.o
                0x00000000002047fc                serial_line_input_byte
 .text.serial_line_init
                0x0000000000204844       0x24 build/zoul/remote-revb/obj/serial-line.o
                0x0000000000204844                serial_line_init
 .text.gpio_hal_register_handler
                0x0000000000204868        0xc build/zoul/remote-revb/obj/gpio-hal.o
                0x0000000000204868                gpio_hal_register_handler
 .text.gpio_hal_event_handler
                0x0000000000204874       0x24 build/zoul/remote-revb/obj/gpio-hal.o
                0x0000000000204874                gpio_hal_event_handler
 .text.gpio_hal_init
                0x0000000000204898        0xc build/zoul/remote-revb/obj/gpio-hal.o
                0x0000000000204898                gpio_hal_init
 .text.process_thread_sensors_process
                0x00000000002048a4       0xd4 build/zoul/remote-revb/obj/sensors.o
 .text.random_rand
                0x0000000000204978       0x24 build/zoul/remote-revb/obj/random.o
                0x0000000000204978                random_rand
 .text.random_init
                0x000000000020499c       0x78 build/zoul/remote-revb/obj/random.o
                0x000000000020499c                random_init
 .text.queuebuf_init
                0x0000000000204a14       0x1c build/zoul/remote-revb/obj/queuebuf.o
                0x0000000000204a14                queuebuf_init
 .text.queuebuf_numfree
                0x0000000000204a30        0xc build/zoul/remote-revb/obj/queuebuf.o
                0x0000000000204a30                queuebuf_numfree
 .text.queuebuf_new_from_packetbuf
                0x0000000000204a3c       0x44 build/zoul/remote-revb/obj/queuebuf.o
                0x0000000000204a3c                queuebuf_new_from_packetbuf
 .text.queuebuf_free
                0x0000000000204a80       0x2c build/zoul/remote-revb/obj/queuebuf.o
                0x0000000000204a80                queuebuf_free
 .text.queuebuf_to_packetbuf
                0x0000000000204aac       0x30 build/zoul/remote-revb/obj/queuebuf.o
                0x0000000000204aac                queuebuf_to_packetbuf
 .text.index_from_key
                0x0000000000204adc       0x20 build/zoul/remote-revb/obj/nbr-table.o
 .text.index_from_lladdr
                0x0000000000204afc       0x40 build/zoul/remote-revb/obj/nbr-table.o
 .text.key_from_item
                0x0000000000204b3c       0x28 build/zoul/remote-revb/obj/nbr-table.o
 .text.nbr_get_bit.constprop.0
                0x0000000000204b64       0x2c build/zoul/remote-revb/obj/nbr-table.o
 .text.nbr_table_is_registered
                0x0000000000204b90       0x20 build/zoul/remote-revb/obj/nbr-table.o
                0x0000000000204b90                nbr_table_is_registered
 .text.nbr_table_register
                0x0000000000204bb0       0x30 build/zoul/remote-revb/obj/nbr-table.o
                0x0000000000204bb0                nbr_table_register
 .text.nbr_table_head
                0x0000000000204be0       0x34 build/zoul/remote-revb/obj/nbr-table.o
                0x0000000000204be0                nbr_table_head
 .text.nbr_table_add_lladdr
                0x0000000000204c14      0x15c build/zoul/remote-revb/obj/nbr-table.o
                0x0000000000204c14                nbr_table_add_lladdr
 .text.nbr_table_remove
                0x0000000000204d70       0x2c build/zoul/remote-revb/obj/nbr-table.o
                0x0000000000204d70                nbr_table_remove
 .text.nbr_table_lock
                0x0000000000204d9c       0x10 build/zoul/remote-revb/obj/nbr-table.o
                0x0000000000204d9c                nbr_table_lock
 .text.nbr_table_unlock
                0x0000000000204dac       0x10 build/zoul/remote-revb/obj/nbr-table.o
                0x0000000000204dac                nbr_table_unlock
 .text.packetbuf_hdrreduce
                0x0000000000204dbc       0x28 build/zoul/remote-revb/obj/packetbuf.o
                0x0000000000204dbc                packetbuf_hdrreduce
 .text.packetbuf_set_datalen
                0x0000000000204de4        0xc build/zoul/remote-revb/obj/packetbuf.o
                0x0000000000204de4                packetbuf_set_datalen
 .text.packetbuf_hdrptr
                0x0000000000204df0        0x8 build/zoul/remote-revb/obj/packetbuf.o
                0x0000000000204df0                packetbuf_hdrptr
 .text.packetbuf_datalen
                0x0000000000204df8        0xc build/zoul/remote-revb/obj/packetbuf.o
                0x0000000000204df8                packetbuf_datalen
 .text.packetbuf_hdrlen
                0x0000000000204e04       0x18 build/zoul/remote-revb/obj/packetbuf.o
                0x0000000000204e04                packetbuf_hdrlen
 .text.packetbuf_dataptr
                0x0000000000204e1c       0x10 build/zoul/remote-revb/obj/packetbuf.o
                0x0000000000204e1c                packetbuf_dataptr
 .text.packetbuf_copyto
                0x0000000000204e2c       0x44 build/zoul/remote-revb/obj/packetbuf.o
                0x0000000000204e2c                packetbuf_copyto
 .text.packetbuf_totlen
                0x0000000000204e70       0x14 build/zoul/remote-revb/obj/packetbuf.o
                0x0000000000204e70                packetbuf_totlen
 .text.packetbuf_hdralloc
                0x0000000000204e84       0x40 build/zoul/remote-revb/obj/packetbuf.o
                0x0000000000204e84                packetbuf_hdralloc
 .text.packetbuf_attr_clear
                0x0000000000204ec4       0x34 build/zoul/remote-revb/obj/packetbuf.o
                0x0000000000204ec4                packetbuf_attr_clear
 .text.packetbuf_clear
                0x0000000000204ef8       0x20 build/zoul/remote-revb/obj/packetbuf.o
                0x0000000000204ef8                packetbuf_clear
 .text.packetbuf_copyfrom
                0x0000000000204f18       0x2c build/zoul/remote-revb/obj/packetbuf.o
                0x0000000000204f18                packetbuf_copyfrom
 .text.packetbuf_attr_copyto
                0x0000000000204f44       0x24 build/zoul/remote-revb/obj/packetbuf.o
                0x0000000000204f44                packetbuf_attr_copyto
 .text.packetbuf_attr_copyfrom
                0x0000000000204f68       0x24 build/zoul/remote-revb/obj/packetbuf.o
                0x0000000000204f68                packetbuf_attr_copyfrom
 .text.packetbuf_set_attr
                0x0000000000204f8c       0x10 build/zoul/remote-revb/obj/packetbuf.o
                0x0000000000204f8c                packetbuf_set_attr
 .text.packetbuf_attr
                0x0000000000204f9c        0xc build/zoul/remote-revb/obj/packetbuf.o
                0x0000000000204f9c                packetbuf_attr
 .text.packetbuf_set_addr
                0x0000000000204fa8       0x18 build/zoul/remote-revb/obj/packetbuf.o
                0x0000000000204fa8                packetbuf_set_addr
 .text.packetbuf_addr
                0x0000000000204fc0       0x10 build/zoul/remote-revb/obj/packetbuf.o
                0x0000000000204fc0                packetbuf_addr
 .text.packetbuf_holds_broadcast
                0x0000000000204fd0       0x10 build/zoul/remote-revb/obj/packetbuf.o
                0x0000000000204fd0                packetbuf_holds_broadcast
 .text.netstack_process_ip_callback
                0x0000000000204fe0       0x40 build/zoul/remote-revb/obj/netstack.o
                0x0000000000204fe0                netstack_process_ip_callback
 .text.netstack_init
                0x0000000000205020       0x24 build/zoul/remote-revb/obj/netstack.o
                0x0000000000205020                netstack_init
 .text.periodic
                0x0000000000205044       0x2c build/zoul/remote-revb/obj/link-stats.o
 .text.link_stats_from_lladdr
                0x0000000000205070        0xc build/zoul/remote-revb/obj/link-stats.o
                0x0000000000205070                link_stats_from_lladdr
 .text.link_stats_packet_sent
                0x000000000020507c       0x74 build/zoul/remote-revb/obj/link-stats.o
                0x000000000020507c                link_stats_packet_sent
 .text.link_stats_input_callback
                0x00000000002050f0       0x4c build/zoul/remote-revb/obj/link-stats.o
                0x00000000002050f0                link_stats_input_callback
 .text.link_stats_reset
                0x000000000020513c       0x28 build/zoul/remote-revb/obj/link-stats.o
                0x000000000020513c                link_stats_reset
 .text.link_stats_init
                0x0000000000205164       0x28 build/zoul/remote-revb/obj/link-stats.o
                0x0000000000205164                link_stats_init
 .text.mac_sequence_is_duplicate
                0x000000000020518c       0x50 build/zoul/remote-revb/obj/mac-sequence.o
                0x000000000020518c                mac_sequence_is_duplicate
 .text.mac_sequence_register_seqno
                0x00000000002051dc       0x60 build/zoul/remote-revb/obj/mac-sequence.o
                0x00000000002051dc                mac_sequence_register_seqno
 .text.create_frame
                0x000000000020523c       0xd0 build/zoul/remote-revb/obj/framer-802154.o
 .text.frame802154_get_pan_id
                0x000000000020530c        0xc build/zoul/remote-revb/obj/frame802154.o
                0x000000000020530c                frame802154_get_pan_id
 .text.frame802154_parse
                0x0000000000205318      0x12c build/zoul/remote-revb/obj/frame802154.o
                0x0000000000205318                frame802154_parse
 .text._sbrk    0x0000000000205444       0x2c build/zoul/remote-revb/obj/syscalls.o
                0x0000000000205444                _sbrk
 .text.fill_space
                0x0000000000205470       0x34 build/zoul/remote-revb/obj/strformat.o
 .text.format_str_v
                0x00000000002054a4      0x6e8 build/zoul/remote-revb/obj/strformat.o
                0x00000000002054a4                format_str_v
 .text.printf   0x0000000000205b8c       0x20 build/zoul/remote-revb/obj/printf.o
                0x0000000000205b8c                printf
 .text.sprintf  0x0000000000205bac       0x30 build/zoul/remote-revb/obj/sprintf.o
                0x0000000000205bac                sprintf
 .text.vsnprintf
                0x0000000000205bdc       0x28 build/zoul/remote-revb/obj/snprintf.o
                0x0000000000205bdc                vsnprintf
 .text.csma_security_create_frame
                0x0000000000205c04       0x18 build/zoul/remote-revb/obj/csma-security.o
                0x0000000000205c04                csma_security_create_frame
 .text.csma_security_parse_frame
                0x0000000000205c1c        0xc build/zoul/remote-revb/obj/csma-security.o
                0x0000000000205c1c                csma_security_parse_frame
 .text.on       0x0000000000205c28        0xc build/zoul/remote-revb/obj/csma.o
 .text.off      0x0000000000205c34        0xc build/zoul/remote-revb/obj/csma.o
 .text.max_payload
                0x0000000000205c40       0x3c build/zoul/remote-revb/obj/csma.o
 .text.init     0x0000000000205c7c       0x20 build/zoul/remote-revb/obj/csma.o
 .text.input_packet
                0x0000000000205c9c       0x5c build/zoul/remote-revb/obj/csma.o
 .text.schedule_transmission
                0x0000000000205cf8       0x38 build/zoul/remote-revb/obj/csma-output.o
 .text.tx_done  0x0000000000205d30       0x7c build/zoul/remote-revb/obj/csma-output.o
 .text.transmit_from_queue
                0x0000000000205dac      0x198 build/zoul/remote-revb/obj/csma-output.o
 .text.csma_output_packet
                0x0000000000205f44      0x13c build/zoul/remote-revb/obj/csma-output.o
                0x0000000000205f44                csma_output_packet
 .text.csma_output_init
                0x0000000000206080       0x24 build/zoul/remote-revb/obj/csma-output.o
                0x0000000000206080                csma_output_init
 .text.uipbuf_add_ext_hdr
                0x00000000002060a4       0x30 build/zoul/remote-revb/obj/uipbuf.o
                0x00000000002060a4                uipbuf_add_ext_hdr
 .text.uipbuf_set_len
                0x00000000002060d4       0x14 build/zoul/remote-revb/obj/uipbuf.o
                0x00000000002060d4                uipbuf_set_len
 .text.uipbuf_get_attr
                0x00000000002060e8       0x14 build/zoul/remote-revb/obj/uipbuf.o
                0x00000000002060e8                uipbuf_get_attr
 .text.uipbuf_clear_attr
                0x00000000002060fc       0x14 build/zoul/remote-revb/obj/uipbuf.o
                0x00000000002060fc                uipbuf_clear_attr
 .text.uipbuf_clear
                0x0000000000206110       0x20 build/zoul/remote-revb/obj/uipbuf.o
                0x0000000000206110                uipbuf_clear
 .text.uipbuf_init
                0x0000000000206130       0x20 build/zoul/remote-revb/obj/uipbuf.o
                0x0000000000206130                uipbuf_init
 .text.echo_reply_input
                0x0000000000206150       0x6c build/zoul/remote-revb/obj/uip-icmp6.o
 .text.echo_request_input
                0x00000000002061bc       0x9c build/zoul/remote-revb/obj/uip-icmp6.o
 .text.uip_icmp6_input
                0x0000000000206258       0x38 build/zoul/remote-revb/obj/uip-icmp6.o
                0x0000000000206258                uip_icmp6_input
 .text.uip_icmp6_register_input_handler
                0x0000000000206290        0xc build/zoul/remote-revb/obj/uip-icmp6.o
                0x0000000000206290                uip_icmp6_register_input_handler
 .text.uip_icmp6_error_output
                0x000000000020629c      0x138 build/zoul/remote-revb/obj/uip-icmp6.o
                0x000000000020629c                uip_icmp6_error_output
 .text.uip_icmp6_send
                0x00000000002063d4       0x7c build/zoul/remote-revb/obj/uip-icmp6.o
                0x00000000002063d4                uip_icmp6_send
 .text.uip_icmp6_init
                0x0000000000206450       0x1c build/zoul/remote-revb/obj/uip-icmp6.o
                0x0000000000206450                uip_icmp6_init
 .text.node_matches_address.part.0
                0x000000000020646c       0x28 build/zoul/remote-revb/obj/uip-sr.o
 .text.uip_sr_get_node
                0x0000000000206494       0x38 build/zoul/remote-revb/obj/uip-sr.o
                0x0000000000206494                uip_sr_get_node
 .text.uip_sr_is_addr_reachable
                0x00000000002064cc       0x44 build/zoul/remote-revb/obj/uip-sr.o
                0x00000000002064cc                uip_sr_is_addr_reachable
 .text.uip_sr_update_node
                0x0000000000206510       0xa4 build/zoul/remote-revb/obj/uip-sr.o
                0x0000000000206510                uip_sr_update_node
 .text.uip_sr_init
                0x00000000002065b4       0x24 build/zoul/remote-revb/obj/uip-sr.o
                0x00000000002065b4                uip_sr_init
 .text.uip_sr_periodic
                0x00000000002065d8       0x74 build/zoul/remote-revb/obj/uip-sr.o
                0x00000000002065d8                uip_sr_periodic
 .text.uip_sr_free_all
                0x000000000020664c       0x48 build/zoul/remote-revb/obj/uip-sr.o
                0x000000000020664c                uip_sr_free_all
 .text.uip_ds6_default_prefix
                0x0000000000206694        0x8 build/zoul/remote-revb/obj/uip-ds6.o
                0x0000000000206694                uip_ds6_default_prefix
 .text.uip_ds6_prefix_add
                0x000000000020669c       0x64 build/zoul/remote-revb/obj/uip-ds6.o
                0x000000000020669c                uip_ds6_prefix_add
 .text.uip_ds6_is_addr_onlink
                0x0000000000206700       0x40 build/zoul/remote-revb/obj/uip-ds6.o
                0x0000000000206700                uip_ds6_is_addr_onlink
 .text.uip_ds6_addr_lookup
                0x0000000000206740       0x2c build/zoul/remote-revb/obj/uip-ds6.o
                0x0000000000206740                uip_ds6_addr_lookup
 .text.uip_ds6_get_link_local
                0x000000000020676c       0x3c build/zoul/remote-revb/obj/uip-ds6.o
                0x000000000020676c                uip_ds6_get_link_local
 .text.uip_ds6_maddr_add
                0x00000000002067a8       0x4c build/zoul/remote-revb/obj/uip-ds6.o
                0x00000000002067a8                uip_ds6_maddr_add
 .text.uip_ds6_addr_add
                0x00000000002067f4       0x98 build/zoul/remote-revb/obj/uip-ds6.o
                0x00000000002067f4                uip_ds6_addr_add
 .text.uip_ds6_maddr_lookup
                0x000000000020688c       0x2c build/zoul/remote-revb/obj/uip-ds6.o
                0x000000000020688c                uip_ds6_maddr_lookup
 .text.uip_ds6_addr_rm
                0x00000000002068b8       0x44 build/zoul/remote-revb/obj/uip-ds6.o
                0x00000000002068b8                uip_ds6_addr_rm
 .text.uip_ds6_periodic
                0x00000000002068fc       0x48 build/zoul/remote-revb/obj/uip-ds6.o
                0x00000000002068fc                uip_ds6_periodic
 .text.uip_ds6_select_src
                0x0000000000206944       0x94 build/zoul/remote-revb/obj/uip-ds6.o
                0x0000000000206944                uip_ds6_select_src
 .text.uip_ds6_compute_reachable_time
                0x00000000002069d8       0x2c build/zoul/remote-revb/obj/uip-ds6.o
                0x00000000002069d8                uip_ds6_compute_reachable_time
 .text.uip_ds6_init
                0x0000000000206a04      0x118 build/zoul/remote-revb/obj/uip-ds6.o
                0x0000000000206a04                uip_ds6_init
 .text.uiplib_ipaddr_snprint
                0x0000000000206b1c       0xf4 build/zoul/remote-revb/obj/uiplib.o
                0x0000000000206b1c                uiplib_ipaddr_snprint
 .text.uip_ds6_route_init
                0x0000000000206c10       0x1c build/zoul/remote-revb/obj/uip-ds6-route.o
                0x0000000000206c10                uip_ds6_route_init
 .text.uip_ds6_defrt_rm
                0x0000000000206c2c       0x38 build/zoul/remote-revb/obj/uip-ds6-route.o
                0x0000000000206c2c                uip_ds6_defrt_rm
 .text.uip_ds6_defrt_lookup
                0x0000000000206c64       0x34 build/zoul/remote-revb/obj/uip-ds6-route.o
                0x0000000000206c64                uip_ds6_defrt_lookup
 .text.uip_ds6_defrt_add
                0x0000000000206c98       0x60 build/zoul/remote-revb/obj/uip-ds6-route.o
                0x0000000000206c98                uip_ds6_defrt_add
 .text.uip_ds6_defrt_choose
                0x0000000000206cf8       0x30 build/zoul/remote-revb/obj/uip-ds6-route.o
                0x0000000000206cf8                uip_ds6_defrt_choose
 .text.uip_ds6_defrt_periodic
                0x0000000000206d28       0x3c build/zoul/remote-revb/obj/uip-ds6-route.o
                0x0000000000206d28                uip_ds6_defrt_periodic
 .text.psock_send
                0x0000000000206d64       0x94 build/zoul/remote-revb/obj/psock.o
                0x0000000000206d64                psock_send
 .text.psock_newdata
                0x0000000000206df8       0x28 build/zoul/remote-revb/obj/psock.o
                0x0000000000206df8                psock_newdata
 .text.psock_readto
                0x0000000000206e20       0x98 build/zoul/remote-revb/obj/psock.o
                0x0000000000206e20                psock_readto
 .text.start_periodic_tcp_timer
                0x0000000000206eb8       0x1c build/zoul/remote-revb/obj/tcpip.o
 .text.tcpip_output
                0x0000000000206ed4       0x2c build/zoul/remote-revb/obj/tcpip.o
                0x0000000000206ed4                tcpip_output
 .text.tcp_listen
                0x0000000000206f00       0x2c build/zoul/remote-revb/obj/tcpip.o
                0x0000000000206f00                tcp_listen
 .text.tcp_attach
                0x0000000000206f2c       0x10 build/zoul/remote-revb/obj/tcpip.o
                0x0000000000206f2c                tcp_attach
 .text.tcpip_input
                0x0000000000206f3c       0x24 build/zoul/remote-revb/obj/tcpip.o
                0x0000000000206f3c                tcpip_input
 .text.tcpip_ipv6_output
                0x0000000000206f60       0xec build/zoul/remote-revb/obj/tcpip.o
                0x0000000000206f60                tcpip_ipv6_output
 .text.packet_input.part.4
                0x000000000020704c       0x40 build/zoul/remote-revb/obj/tcpip.o
 .text.process_thread_tcpip_process
                0x000000000020708c      0x184 build/zoul/remote-revb/obj/tcpip.o
 .text.tcpip_uipcall
                0x0000000000207210       0x6c build/zoul/remote-revb/obj/tcpip.o
                0x0000000000207210                tcpip_uipcall
 .text.upper_layer_chksum
                0x000000000020727c       0x50 build/zoul/remote-revb/obj/uip6.o
 .text.ext_hdr_options_process
                0x00000000002072cc       0x78 build/zoul/remote-revb/obj/uip6.o
 .text.uip_update_ttl
                0x0000000000207344       0x24 build/zoul/remote-revb/obj/uip6.o
 .text.uip_add32
                0x0000000000207368       0x54 build/zoul/remote-revb/obj/uip6.o
                0x0000000000207368                uip_add32
 .text.uip_add_rcv_nxt
                0x00000000002073bc       0x30 build/zoul/remote-revb/obj/uip6.o
 .text.uip_init
                0x00000000002073ec       0x80 build/zoul/remote-revb/obj/uip6.o
                0x00000000002073ec                uip_init
 .text.uip_remove_ext_hdr
                0x000000000020746c       0x6c build/zoul/remote-revb/obj/uip6.o
                0x000000000020746c                uip_remove_ext_hdr
 .text.uip_unlisten
                0x00000000002074d8       0x24 build/zoul/remote-revb/obj/uip6.o
                0x00000000002074d8                uip_unlisten
 .text.uip_listen
                0x00000000002074fc       0x20 build/zoul/remote-revb/obj/uip6.o
                0x00000000002074fc                uip_listen
 .text.uip_process
                0x000000000020751c      0xd38 build/zoul/remote-revb/obj/uip6.o
                0x000000000020751c                uip_process
 .text.uip_htonl
                0x0000000000208254       0x1c build/zoul/remote-revb/obj/uip6.o
                0x0000000000208254                uip_htonl
 .text.uip_send
                0x0000000000208270       0x60 build/zoul/remote-revb/obj/uip6.o
                0x0000000000208270                uip_send
 .text.uip_ds6_nbr_rm
                0x00000000002082d0       0x24 build/zoul/remote-revb/obj/uip-ds6-nbr.o
                0x00000000002082d0                uip_ds6_nbr_rm
 .text.uip_ds6_neighbors_init
                0x00000000002082f4       0x1c build/zoul/remote-revb/obj/uip-ds6-nbr.o
                0x00000000002082f4                uip_ds6_neighbors_init
 .text.uip_ds6_nbr_add
                0x0000000000208310       0x40 build/zoul/remote-revb/obj/uip-ds6-nbr.o
                0x0000000000208310                uip_ds6_nbr_add
 .text.uip_ds6_nbr_get_ll
                0x0000000000208350        0xc build/zoul/remote-revb/obj/uip-ds6-nbr.o
                0x0000000000208350                uip_ds6_nbr_get_ll
 .text.uip_ds6_nbr_head
                0x000000000020835c        0xc build/zoul/remote-revb/obj/uip-ds6-nbr.o
                0x000000000020835c                uip_ds6_nbr_head
 .text.uip_ds6_nbr_next
                0x0000000000208368        0xc build/zoul/remote-revb/obj/uip-ds6-nbr.o
                0x0000000000208368                uip_ds6_nbr_next
 .text.uip_ds6_nbr_ll_lookup
                0x0000000000208374        0xc build/zoul/remote-revb/obj/uip-ds6-nbr.o
                0x0000000000208374                uip_ds6_nbr_ll_lookup
 .text.ns_input
                0x0000000000208380      0x270 build/zoul/remote-revb/obj/uip-nd6.o
 .text.uip_nd6_init
                0x00000000002085f0        0xc build/zoul/remote-revb/obj/uip-nd6.o
                0x00000000002085f0                uip_nd6_init
 .text.clear_fragments
                0x00000000002085fc       0x38 build/zoul/remote-revb/obj/sicslowpan.o
 .text.sicslowpan_init
                0x0000000000208634       0x18 build/zoul/remote-revb/obj/sicslowpan.o
                0x0000000000208634                sicslowpan_init
 .text.set_packet_attrs
                0x000000000020864c       0x58 build/zoul/remote-revb/obj/sicslowpan.o
 .text.compress_addr_64
                0x00000000002086a4       0x90 build/zoul/remote-revb/obj/sicslowpan.o
 .text.addr_context_lookup_by_prefix
                0x0000000000208734       0x24 build/zoul/remote-revb/obj/sicslowpan.o
 .text.send_packet
                0x0000000000208758       0x24 build/zoul/remote-revb/obj/sicslowpan.o
 .text.fragment_copy_payload_and_send
                0x000000000020877c       0x6c build/zoul/remote-revb/obj/sicslowpan.o
 .text.output   0x00000000002087e8      0x708 build/zoul/remote-revb/obj/sicslowpan.o
 .text.packet_sent
                0x0000000000208ef0       0x5c build/zoul/remote-revb/obj/sicslowpan.o
 .text.store_fragment
                0x0000000000208f4c       0x68 build/zoul/remote-revb/obj/sicslowpan.o
 .text.uncompress_addr
                0x0000000000208fb4       0x70 build/zoul/remote-revb/obj/sicslowpan.o
 .text.add_fragment
                0x0000000000209024      0x14c build/zoul/remote-revb/obj/sicslowpan.o
 .text.input    0x0000000000209170      0x6dc build/zoul/remote-revb/obj/sicslowpan.o
 .text.dao_ack_input
                0x000000000020984c       0x38 build/zoul/remote-revb/obj/rpl-icmp6.o
 .text.dao_input
                0x0000000000209884       0xfc build/zoul/remote-revb/obj/rpl-icmp6.o
 .text.dio_input
                0x0000000000209980      0x210 build/zoul/remote-revb/obj/rpl-icmp6.o
 .text.dis_input
                0x0000000000209b90       0x2c build/zoul/remote-revb/obj/rpl-icmp6.o
 .text.rpl_icmp6_dis_output
                0x0000000000209bbc       0x38 build/zoul/remote-revb/obj/rpl-icmp6.o
                0x0000000000209bbc                rpl_icmp6_dis_output
 .text.rpl_icmp6_dio_output
                0x0000000000209bf4      0x1c8 build/zoul/remote-revb/obj/rpl-icmp6.o
                0x0000000000209bf4                rpl_icmp6_dio_output
 .text.rpl_icmp6_dao_output
                0x0000000000209dbc       0xc4 build/zoul/remote-revb/obj/rpl-icmp6.o
                0x0000000000209dbc                rpl_icmp6_dao_output
 .text.rpl_icmp6_dao_ack_output
                0x0000000000209e80       0x44 build/zoul/remote-revb/obj/rpl-icmp6.o
                0x0000000000209e80                rpl_icmp6_dao_ack_output
 .text.rpl_icmp6_init
                0x0000000000209ec4       0x30 build/zoul/remote-revb/obj/rpl-icmp6.o
                0x0000000000209ec4                rpl_icmp6_init
 .text.remove_neighbor
                0x0000000000209ef4       0x3c build/zoul/remote-revb/obj/rpl-neighbor.o
 .text.acceptable_rank
                0x0000000000209f30       0x38 build/zoul/remote-revb/obj/rpl-neighbor.o
 .text.rpl_neighbor_get_from_lladdr
                0x0000000000209f68       0x10 build/zoul/remote-revb/obj/rpl-neighbor.o
                0x0000000000209f68                rpl_neighbor_get_from_lladdr
 .text.rpl_neighbor_rank_via_nbr
                0x0000000000209f78       0x18 build/zoul/remote-revb/obj/rpl-neighbor.o
                0x0000000000209f78                rpl_neighbor_rank_via_nbr
 .text.rpl_neighbor_get_lladdr
                0x0000000000209f90       0x10 build/zoul/remote-revb/obj/rpl-neighbor.o
                0x0000000000209f90                rpl_neighbor_get_lladdr
 .text.best_parent
                0x0000000000209fa0       0x68 build/zoul/remote-revb/obj/rpl-neighbor.o
 .text.rpl_neighbor_is_parent
                0x000000000020a008       0x18 build/zoul/remote-revb/obj/rpl-neighbor.o
                0x000000000020a008                rpl_neighbor_is_parent
 .text.rpl_neighbor_set_preferred_parent
                0x000000000020a020       0x44 build/zoul/remote-revb/obj/rpl-neighbor.o
                0x000000000020a020                rpl_neighbor_set_preferred_parent
 .text.rpl_neighbor_remove_all
                0x000000000020a064       0x2c build/zoul/remote-revb/obj/rpl-neighbor.o
                0x000000000020a064                rpl_neighbor_remove_all
 .text.rpl_neighbor_get_from_ipaddr
                0x000000000020a090       0x1c build/zoul/remote-revb/obj/rpl-neighbor.o
                0x000000000020a090                rpl_neighbor_get_from_ipaddr
 .text.rpl_neighbor_select_best
                0x000000000020a0ac       0x54 build/zoul/remote-revb/obj/rpl-neighbor.o
                0x000000000020a0ac                rpl_neighbor_select_best
 .text.rpl_neighbor_init
                0x000000000020a100       0x14 build/zoul/remote-revb/obj/rpl-neighbor.o
                0x000000000020a100                rpl_neighbor_init
 .text.new_dio_interval
                0x000000000020a114       0x54 build/zoul/remote-revb/obj/rpl-timers.o
 .text.schedule_dao_retransmission
                0x000000000020a168       0x30 build/zoul/remote-revb/obj/rpl-timers.o
 .text.handle_unicast_dio_timer
                0x000000000020a198       0x1c build/zoul/remote-revb/obj/rpl-timers.o
 .text.send_new_dao
                0x000000000020a1b4       0x34 build/zoul/remote-revb/obj/rpl-timers.o
 .text.resend_dao
                0x000000000020a1e8       0x38 build/zoul/remote-revb/obj/rpl-timers.o
 .text.handle_dao_ack_timer
                0x000000000020a220       0x14 build/zoul/remote-revb/obj/rpl-timers.o
 .text.handle_leaving_timer
                0x000000000020a234       0x10 build/zoul/remote-revb/obj/rpl-timers.o
 .text.handle_dio_timer
                0x000000000020a244       0x70 build/zoul/remote-revb/obj/rpl-timers.o
 .text.rpl_timers_schedule_periodic_dis
                0x000000000020a2b4       0x38 build/zoul/remote-revb/obj/rpl-timers.o
                0x000000000020a2b4                rpl_timers_schedule_periodic_dis
 .text.handle_dis_timer
                0x000000000020a2ec       0x34 build/zoul/remote-revb/obj/rpl-timers.o
 .text.handle_periodic_timer
                0x000000000020a320       0x48 build/zoul/remote-revb/obj/rpl-timers.o
 .text.rpl_timers_dio_reset
                0x000000000020a368       0x28 build/zoul/remote-revb/obj/rpl-timers.o
                0x000000000020a368                rpl_timers_dio_reset
 .text.rpl_timers_schedule_unicast_dio
                0x000000000020a390       0x28 build/zoul/remote-revb/obj/rpl-timers.o
                0x000000000020a390                rpl_timers_schedule_unicast_dio
 .text.rpl_timers_schedule_dao
                0x000000000020a3b8       0x34 build/zoul/remote-revb/obj/rpl-timers.o
                0x000000000020a3b8                rpl_timers_schedule_dao
 .text.rpl_timers_schedule_dao_ack
                0x000000000020a3ec       0x48 build/zoul/remote-revb/obj/rpl-timers.o
                0x000000000020a3ec                rpl_timers_schedule_dao_ack
 .text.rpl_timers_notify_dao_ack
                0x000000000020a434       0x4c build/zoul/remote-revb/obj/rpl-timers.o
                0x000000000020a434                rpl_timers_notify_dao_ack
 .text.get_probing_target
                0x000000000020a480       0xb8 build/zoul/remote-revb/obj/rpl-timers.o
                0x000000000020a480                get_probing_target
 .text.rpl_schedule_probing
                0x000000000020a538       0x28 build/zoul/remote-revb/obj/rpl-timers.o
                0x000000000020a538                rpl_schedule_probing
 .text.rpl_schedule_probing_now
                0x000000000020a560       0x2c build/zoul/remote-revb/obj/rpl-timers.o
                0x000000000020a560                rpl_schedule_probing_now
 .text.rpl_timers_unschedule_leaving
                0x000000000020a58c       0x24 build/zoul/remote-revb/obj/rpl-timers.o
                0x000000000020a58c                rpl_timers_unschedule_leaving
 .text.rpl_timers_schedule_leaving
                0x000000000020a5b0       0x30 build/zoul/remote-revb/obj/rpl-timers.o
                0x000000000020a5b0                rpl_timers_schedule_leaving
 .text.rpl_timers_init
                0x000000000020a5e0       0x20 build/zoul/remote-revb/obj/rpl-timers.o
                0x000000000020a5e0                rpl_timers_init
 .text.rpl_timers_stop_dag_timers
                0x000000000020a600       0x44 build/zoul/remote-revb/obj/rpl-timers.o
                0x000000000020a600                rpl_timers_stop_dag_timers
 .text.rpl_timers_unschedule_state_update
                0x000000000020a644       0x14 build/zoul/remote-revb/obj/rpl-timers.o
                0x000000000020a644                rpl_timers_unschedule_state_update
 .text.rpl_timers_schedule_state_update
                0x000000000020a658       0x1c build/zoul/remote-revb/obj/rpl-timers.o
                0x000000000020a658                rpl_timers_schedule_state_update
 .text.update_hbh_header
                0x000000000020a674       0x54 build/zoul/remote-revb/obj/rpl-ext-header.o
 .text.rpl_ext_header_srh_get_next_hop
                0x000000000020a6c8       0x84 build/zoul/remote-revb/obj/rpl-ext-header.o
                0x000000000020a6c8                rpl_ext_header_srh_get_next_hop
 .text.rpl_ext_header_srh_update
                0x000000000020a74c       0x9c build/zoul/remote-revb/obj/rpl-ext-header.o
                0x000000000020a74c                rpl_ext_header_srh_update
 .text.rpl_ext_header_hbh_update
                0x000000000020a7e8       0x84 build/zoul/remote-revb/obj/rpl-ext-header.o
                0x000000000020a7e8                rpl_ext_header_hbh_update
 .text.rpl_ext_header_remove
                0x000000000020a86c       0xb0 build/zoul/remote-revb/obj/rpl-ext-header.o
                0x000000000020a86c                rpl_ext_header_remove
 .text.rpl_ext_header_update
                0x000000000020a91c      0x23c build/zoul/remote-revb/obj/rpl-ext-header.o
                0x000000000020a91c                rpl_ext_header_update
 .text.rpl_has_joined
                0x000000000020ab58       0x18 build/zoul/remote-revb/obj/rpl.o
                0x000000000020ab58                rpl_has_joined
 .text.rpl_is_reachable
                0x000000000020ab70       0x18 build/zoul/remote-revb/obj/rpl.o
                0x000000000020ab70                rpl_is_reachable
 .text.set_ip_from_prefix
                0x000000000020ab88       0x2c build/zoul/remote-revb/obj/rpl.o
 .text.init     0x000000000020abb4       0x40 build/zoul/remote-revb/obj/rpl.o
 .text.rpl_link_callback
                0x000000000020abf4       0x2c build/zoul/remote-revb/obj/rpl.o
                0x000000000020abf4                rpl_link_callback
 .text.get_sr_node_ipaddr
                0x000000000020ac20       0x2c build/zoul/remote-revb/obj/rpl.o
 .text.rpl_get_global_address
                0x000000000020ac4c       0x68 build/zoul/remote-revb/obj/rpl.o
                0x000000000020ac4c                rpl_get_global_address
 .text.rpl_reset_prefix
                0x000000000020acb4       0x28 build/zoul/remote-revb/obj/rpl.o
                0x000000000020acb4                rpl_reset_prefix
 .text.rpl_set_prefix_from_addr
                0x000000000020acdc       0x68 build/zoul/remote-revb/obj/rpl.o
                0x000000000020acdc                rpl_set_prefix_from_addr
 .text.rpl_get_leaf_only
                0x000000000020ad44        0xc build/zoul/remote-revb/obj/rpl.o
                0x000000000020ad44                rpl_get_leaf_only
 .text.update_state
                0x000000000020ad50       0x74 build/zoul/remote-revb/obj/rpl-nbr-policy.o
 .text.rpl_nbr_policy_find_removable
                0x000000000020adc4       0x50 build/zoul/remote-revb/obj/rpl-nbr-policy.o
                0x000000000020adc4                rpl_nbr_policy_find_removable
 .text.update_metric_container
                0x000000000020ae14        0xc build/zoul/remote-revb/obj/rpl-mrhof.o
 .text.within_hysteresis
                0x000000000020ae20       0x3c build/zoul/remote-revb/obj/rpl-mrhof.o
 .text.rank_via_nbr
                0x000000000020ae5c       0x30 build/zoul/remote-revb/obj/rpl-mrhof.o
 .text.best_parent
                0x000000000020ae8c       0x68 build/zoul/remote-revb/obj/rpl-mrhof.o
 .text.init_dag
                0x000000000020aef4       0x70 build/zoul/remote-revb/obj/rpl-dag.o
 .text.init_dag_from_dio
                0x000000000020af64       0x68 build/zoul/remote-revb/obj/rpl-dag.o
 .text.rpl_dag_get_root_ipaddr
                0x000000000020afcc       0x30 build/zoul/remote-revb/obj/rpl-dag.o
                0x000000000020afcc                rpl_dag_get_root_ipaddr
 .text.rpl_dag_leave
                0x000000000020affc       0x50 build/zoul/remote-revb/obj/rpl-dag.o
                0x000000000020affc                rpl_dag_leave
 .text.rpl_dag_poison_and_leave
                0x000000000020b04c       0x10 build/zoul/remote-revb/obj/rpl-dag.o
                0x000000000020b04c                rpl_dag_poison_and_leave
 .text.rpl_dag_periodic
                0x000000000020b05c       0x44 build/zoul/remote-revb/obj/rpl-dag.o
                0x000000000020b05c                rpl_dag_periodic
 .text.rpl_is_addr_in_our_dag
                0x000000000020b0a0       0x24 build/zoul/remote-revb/obj/rpl-dag.o
                0x000000000020b0a0                rpl_is_addr_in_our_dag
 .text.rpl_local_repair
                0x000000000020b0c4       0x34 build/zoul/remote-revb/obj/rpl-dag.o
                0x000000000020b0c4                rpl_local_repair
 .text.rpl_global_repair
                0x000000000020b0f8       0x38 build/zoul/remote-revb/obj/rpl-dag.o
                0x000000000020b0f8                rpl_global_repair
 .text.rpl_dag_ready_to_advertise
                0x000000000020b130       0x24 build/zoul/remote-revb/obj/rpl-dag.o
                0x000000000020b130                rpl_dag_ready_to_advertise
 .text.rpl_dag_update_state
                0x000000000020b154      0x118 build/zoul/remote-revb/obj/rpl-dag.o
                0x000000000020b154                rpl_dag_update_state
 .text.rpl_process_dio
                0x000000000020b26c      0x184 build/zoul/remote-revb/obj/rpl-dag.o
                0x000000000020b26c                rpl_process_dio
 .text.rpl_process_dis
                0x000000000020b3f0       0x2c build/zoul/remote-revb/obj/rpl-dag.o
                0x000000000020b3f0                rpl_process_dis
 .text.rpl_process_dao
                0x000000000020b41c       0x4c build/zoul/remote-revb/obj/rpl-dag.o
                0x000000000020b41c                rpl_process_dao
 .text.rpl_process_dao_ack
                0x000000000020b468       0x50 build/zoul/remote-revb/obj/rpl-dag.o
                0x000000000020b468                rpl_process_dao_ack
 .text.rpl_dag_init_root
                0x000000000020b4b8       0xa4 build/zoul/remote-revb/obj/rpl-dag.o
                0x000000000020b4b8                rpl_dag_init_root
 .text.rpl_dag_init
                0x000000000020b55c       0x10 build/zoul/remote-revb/obj/rpl-dag.o
                0x000000000020b55c                rpl_dag_init
 .text.rpl_dag_root_set_prefix
                0x000000000020b56c       0x68 build/zoul/remote-revb/obj/rpl-dag-root.o
                0x000000000020b56c                rpl_dag_root_set_prefix
 .text.rpl_dag_root_start
                0x000000000020b5d4       0x68 build/zoul/remote-revb/obj/rpl-dag-root.o
                0x000000000020b5d4                rpl_dag_root_start
 .text.rpl_dag_root_is_root
                0x000000000020b63c       0x18 build/zoul/remote-revb/obj/rpl-dag-root.o
                0x000000000020b63c                rpl_dag_root_is_root
 .text.process_thread_webserver_nogui_process
                0x000000000020b654       0x34 web-db.o
 .text.show_str
                0x000000000020b688       0x38 web-db.o
 .text.process_thread_web_sense
                0x000000000020b6c0       0x3c web-db.o
 .text.b64_encode.part.0
                0x000000000020b6fc       0xac web-db.o
 .text.generate_routes
                0x000000000020b7a8      0x174 web-db.o
 .text.httpd_simple_get_script
                0x000000000020b91c        0x8 web-db.o
                0x000000000020b91c                httpd_simple_get_script
 .text.tc_aes128_set_encrypt_key
                0x000000000020b924       0xac build/zoul/remote-revb/obj/myencrypt.o
                0x000000000020b924                tc_aes128_set_encrypt_key
 .text.tc_aes_encrypt
                0x000000000020b9d0       0xd4 build/zoul/remote-revb/obj/myencrypt.o
                0x000000000020b9d0                tc_aes_encrypt
 .text.handle_input
                0x000000000020baa4       0xcc build/zoul/remote-revb/obj/httpd-simple.o
 .text.send_headers
                0x000000000020bb70       0x58 build/zoul/remote-revb/obj/httpd-simple.o
 .text.handle_output
                0x000000000020bbc8       0xdc build/zoul/remote-revb/obj/httpd-simple.o
 .text.httpd_appcall
                0x000000000020bca4       0xc8 build/zoul/remote-revb/obj/httpd-simple.o
                0x000000000020bca4                httpd_appcall
 .text.httpd_init
                0x000000000020bd6c       0x18 build/zoul/remote-revb/obj/httpd-simple.o
                0x000000000020bd6c                httpd_init
 .text          0x000000000020bd84       0x30 /home/genius/gcc-arm-none-eabi-8-2018-q4-major/bin/../lib/gcc/arm-none-eabi/8.2.1/thumb/v7-m/nofp/libgcc.a(_aeabi_uldivmod.o)
                0x000000000020bd84                __aeabi_uldivmod
 .text          0x000000000020bdb4      0x2d0 /home/genius/gcc-arm-none-eabi-8-2018-q4-major/bin/../lib/gcc/arm-none-eabi/8.2.1/thumb/v7-m/nofp/libgcc.a(_udivmoddi4.o)
                0x000000000020bdb4                __udivmoddi4
 .text          0x000000000020c084        0x4 /home/genius/gcc-arm-none-eabi-8-2018-q4-major/bin/../lib/gcc/arm-none-eabi/8.2.1/thumb/v7-m/nofp/libgcc.a(_dvmd_tls.o)
                0x000000000020c084                __aeabi_ldiv0
                0x000000000020c084                __aeabi_idiv0
 .text.malloc   0x000000000020c088       0x10 /home/genius/gcc-arm-none-eabi-8-2018-q4-major/bin/../lib/gcc/arm-none-eabi/8.2.1/../../../../arm-none-eabi/lib/thumb/v7-m/nofp/libc.a(lib_a-malloc.o)
                0x000000000020c088                malloc
 .text.free     0x000000000020c098       0x10 /home/genius/gcc-arm-none-eabi-8-2018-q4-major/bin/../lib/gcc/arm-none-eabi/8.2.1/../../../../arm-none-eabi/lib/thumb/v7-m/nofp/libc.a(lib_a-malloc.o)
                0x000000000020c098                free
 .text._malloc_r
                0x000000000020c0a8      0x558 /home/genius/gcc-arm-none-eabi-8-2018-q4-major/bin/../lib/gcc/arm-none-eabi/8.2.1/../../../../arm-none-eabi/lib/thumb/v7-m/nofp/libc.a(lib_a-mallocr.o)
                0x000000000020c0a8                _malloc_r
 .text.memcmp   0x000000000020c600       0x64 /home/genius/gcc-arm-none-eabi-8-2018-q4-major/bin/../lib/gcc/arm-none-eabi/8.2.1/../../../../arm-none-eabi/lib/thumb/v7-m/nofp/libc.a(lib_a-memcmp.o)
                0x000000000020c600                memcmp
 .text          0x000000000020c664       0xec /home/genius/gcc-arm-none-eabi-8-2018-q4-major/bin/../lib/gcc/arm-none-eabi/8.2.1/../../../../arm-none-eabi/lib/thumb/v7-m/nofp/libc.a(lib_a-memcpy.o)
                0x000000000020c664                memcpy
 .text.memmove  0x000000000020c750       0xcc /home/genius/gcc-arm-none-eabi-8-2018-q4-major/bin/../lib/gcc/arm-none-eabi/8.2.1/../../../../arm-none-eabi/lib/thumb/v7-m/nofp/libc.a(lib_a-memmove.o)
                0x000000000020c750                memmove
 .text.memset   0x000000000020c81c       0xa0 /home/genius/gcc-arm-none-eabi-8-2018-q4-major/bin/../lib/gcc/arm-none-eabi/8.2.1/../../../../arm-none-eabi/lib/thumb/v7-m/nofp/libc.a(lib_a-memset.o)
                0x000000000020c81c                memset
 .text.__malloc_lock
                0x000000000020c8bc        0xc /home/genius/gcc-arm-none-eabi-8-2018-q4-major/bin/../lib/gcc/arm-none-eabi/8.2.1/../../../../arm-none-eabi/lib/thumb/v7-m/nofp/libc.a(lib_a-mlock.o)
                0x000000000020c8bc                __malloc_lock
 .text.__malloc_unlock
                0x000000000020c8c8        0xc /home/genius/gcc-arm-none-eabi-8-2018-q4-major/bin/../lib/gcc/arm-none-eabi/8.2.1/../../../../arm-none-eabi/lib/thumb/v7-m/nofp/libc.a(lib_a-mlock.o)
                0x000000000020c8c8                __malloc_unlock
 .text.rand     0x000000000020c8d4       0x3c /home/genius/gcc-arm-none-eabi-8-2018-q4-major/bin/../lib/gcc/arm-none-eabi/8.2.1/../../../../arm-none-eabi/lib/thumb/v7-m/nofp/libc.a(lib_a-rand.o)
                0x000000000020c8d4                rand
 .text._sbrk_r  0x000000000020c910       0x24 /home/genius/gcc-arm-none-eabi-8-2018-q4-major/bin/../lib/gcc/arm-none-eabi/8.2.1/../../../../arm-none-eabi/lib/thumb/v7-m/nofp/libc.a(lib_a-sbrkr.o)
                0x000000000020c910                _sbrk_r
 .text.strlen   0x000000000020c934       0x5c /home/genius/gcc-arm-none-eabi-8-2018-q4-major/bin/../lib/gcc/arm-none-eabi/8.2.1/../../../../arm-none-eabi/lib/thumb/v7-m/nofp/libc.a(lib_a-strlen-stub.o)
                0x000000000020c934                strlen
 .text.strncmp  0x000000000020c990       0xa0 /home/genius/gcc-arm-none-eabi-8-2018-q4-major/bin/../lib/gcc/arm-none-eabi/8.2.1/../../../../arm-none-eabi/lib/thumb/v7-m/nofp/libc.a(lib_a-strncmp.o)
                0x000000000020c990                strncmp
 .text.strncpy  0x000000000020ca30       0x74 /home/genius/gcc-arm-none-eabi-8-2018-q4-major/bin/../lib/gcc/arm-none-eabi/8.2.1/../../../../arm-none-eabi/lib/thumb/v7-m/nofp/libc.a(lib_a-strncpy.o)
                0x000000000020ca30                strncpy
 .text._malloc_trim_r
                0x000000000020caa4       0xa0 /home/genius/gcc-arm-none-eabi-8-2018-q4-major/bin/../lib/gcc/arm-none-eabi/8.2.1/../../../../arm-none-eabi/lib/thumb/v7-m/nofp/libc.a(lib_a-freer.o)
                0x000000000020caa4                _malloc_trim_r
 .text._free_r  0x000000000020cb44      0x1ec /home/genius/gcc-arm-none-eabi-8-2018-q4-major/bin/../lib/gcc/arm-none-eabi/8.2.1/../../../../arm-none-eabi/lib/thumb/v7-m/nofp/libc.a(lib_a-freer.o)
                0x000000000020cb44                _free_r
 .text.__retarget_lock_acquire_recursive
                0x000000000020cd30        0x4 /home/genius/gcc-arm-none-eabi-8-2018-q4-major/bin/../lib/gcc/arm-none-eabi/8.2.1/../../../../arm-none-eabi/lib/thumb/v7-m/nofp/libc.a(lib_a-lock.o)
                0x000000000020cd30                __retarget_lock_acquire_recursive
 .text.__retarget_lock_release_recursive
                0x000000000020cd34        0x4 /home/genius/gcc-arm-none-eabi-8-2018-q4-major/bin/../lib/gcc/arm-none-eabi/8.2.1/../../../../arm-none-eabi/lib/thumb/v7-m/nofp/libc.a(lib_a-lock.o)
                0x000000000020cd34                __retarget_lock_release_recursive
 .text.default_handler
                0x000000000020cd38        0x2 build/zoul/remote-revb/obj/startup-gcc.o
                0x000000000020cd38                default_handler
 .text.nmi_handler
                0x000000000020cd3a        0x6 build/zoul/remote-revb/obj/startup-gcc.o
                0x000000000020cd3a                nmi_handler
 .text.fade     0x000000000020cd40       0x58 build/zoul/remote-revb/obj/platform.o
 .text.platform_init_stage_one
                0x000000000020cd98       0x14 build/zoul/remote-revb/obj/platform.o
                0x000000000020cd98                platform_init_stage_one
 .text.platform_idle
                0x000000000020cdac        0x4 build/zoul/remote-revb/obj/platform.o
                0x000000000020cdac                platform_idle
 .text.board_init
                0x000000000020cdb0        0x4 build/zoul/remote-revb/obj/board.o
                0x000000000020cdb0                board_init
 .text.soc_init
                0x000000000020cdb4       0x22 build/zoul/remote-revb/obj/soc.o
                0x000000000020cdb4                soc_init
 .text.clock_isr
                0x000000000020cdd6        0x4 build/zoul/remote-revb/obj/clock.o
                0x000000000020cdd6                clock_isr
 .text.rtimer_arch_init
                0x000000000020cdda        0x2 build/zoul/remote-revb/obj/rtimer-arch.o
                0x000000000020cdda                rtimer_arch_init
 .text.uart0_isr
                0x000000000020cddc        0x6 build/zoul/remote-revb/obj/uart.o
                0x000000000020cddc                uart0_isr
 .text.uart1_isr
                0x000000000020cde2        0x6 build/zoul/remote-revb/obj/uart.o
                0x000000000020cde2                uart1_isr
 .text.gpio_port_a_isr
                0x000000000020cde8        0x6 build/zoul/remote-revb/obj/gpio.o
                0x000000000020cde8                gpio_port_a_isr
 .text.gpio_port_b_isr
                0x000000000020cdee        0x6 build/zoul/remote-revb/obj/gpio.o
                0x000000000020cdee                gpio_port_b_isr
 .text.gpio_port_c_isr
                0x000000000020cdf4        0x6 build/zoul/remote-revb/obj/gpio.o
                0x000000000020cdf4                gpio_port_c_isr
 .text.gpio_port_d_isr
                0x000000000020cdfa        0x6 build/zoul/remote-revb/obj/gpio.o
                0x000000000020cdfa                gpio_port_d_isr
 .text._copy    0x000000000020ce00       0x1a build/zoul/remote-revb/obj/sha256.o
                0x000000000020ce00                _copy
 .text._set     0x000000000020ce1a        0x4 build/zoul/remote-revb/obj/sha256.o
                0x000000000020ce1a                _set
 .text._double_byte
                0x000000000020ce1e       0x12 build/zoul/remote-revb/obj/sha256.o
                0x000000000020ce1e                _double_byte
 .text.tc_sha256_update
                0x000000000020ce30       0x58 build/zoul/remote-revb/obj/sha256.o
                0x000000000020ce30                tc_sha256_update
 .text.tc_sha256_final
                0x000000000020ce88       0xba build/zoul/remote-revb/obj/sha256.o
                0x000000000020ce88                tc_sha256_final
 .text.send     0x000000000020cf42       0x12 build/zoul/remote-revb/obj/cc2538-rf.o
 .text.enter_pm0
                0x000000000020cf54       0x18 build/zoul/remote-revb/obj/lpm.o
 .text.int_master_read_and_disable
                0x000000000020cf6c        0x8 build/zoul/remote-revb/obj/int-master.o
                0x000000000020cf6c                int_master_read_and_disable
 .text.int_master_status_set
                0x000000000020cf74        0x6 build/zoul/remote-revb/obj/int-master.o
                0x000000000020cf74                int_master_status_set
 .text.dbg_putchar
                0x000000000020cf7a       0x10 build/zoul/remote-revb/obj/dbg.o
                0x000000000020cf7a                dbg_putchar
 .text.dbg_send_bytes
                0x000000000020cf8a       0x22 build/zoul/remote-revb/obj/dbg.o
                0x000000000020cf8a                dbg_send_bytes
 .text.configure
                0x000000000020cfac        0x4 build/zoul/remote-revb/obj/cc2538-temp-sensor.o
 .text.status   0x000000000020cfb0        0x4 build/zoul/remote-revb/obj/cc2538-temp-sensor.o
 .text.value    0x000000000020cfb4       0x34 build/zoul/remote-revb/obj/cc2538-temp-sensor.o
 .text.configure
                0x000000000020cfe8        0x4 build/zoul/remote-revb/obj/vdd3-sensor.o
 .text.status   0x000000000020cfec        0x4 build/zoul/remote-revb/obj/vdd3-sensor.o
 .text.value    0x000000000020cff0       0x2a build/zoul/remote-revb/obj/vdd3-sensor.o
 .text.autostart_start
                0x000000000020d01a       0x14 build/zoul/remote-revb/obj/autostart.o
                0x000000000020d01a                autostart_start
 .text.stimer_set
                0x000000000020d02e        0xe build/zoul/remote-revb/obj/stimer.o
                0x000000000020d02e                stimer_set
 .text.etimer_set
                0x000000000020d03c       0x12 build/zoul/remote-revb/obj/etimer.o
                0x000000000020d03c                etimer_set
 .text.etimer_reset
                0x000000000020d04e       0x12 build/zoul/remote-revb/obj/etimer.o
                0x000000000020d04e                etimer_reset
 .text.etimer_restart
                0x000000000020d060       0x12 build/zoul/remote-revb/obj/etimer.o
                0x000000000020d060                etimer_restart
 .text.etimer_expired
                0x000000000020d072        0xa build/zoul/remote-revb/obj/etimer.o
                0x000000000020d072                etimer_expired
 .text.rtimer_init
                0x000000000020d07c        0x4 build/zoul/remote-revb/obj/rtimer.o
                0x000000000020d07c                rtimer_init
 .text.call_process
                0x000000000020d080        0xc build/zoul/remote-revb/obj/process.o
 .text.timer_set
                0x000000000020d08c        0xe build/zoul/remote-revb/obj/timer.o
                0x000000000020d08c                timer_set
 .text.timer_restart
                0x000000000020d09a        0xc build/zoul/remote-revb/obj/timer.o
                0x000000000020d09a                timer_restart
 .text.timer_expired
                0x000000000020d0a6       0x1c build/zoul/remote-revb/obj/timer.o
                0x000000000020d0a6                timer_expired
 .text.timer_reset
                0x000000000020d0c2       0x14 build/zoul/remote-revb/obj/timer.o
                0x000000000020d0c2                timer_reset
 .text.button_hal_get_state
                0x000000000020d0d6       0x28 build/zoul/remote-revb/obj/button-hal.o
                0x000000000020d0d6                button_hal_get_state
 .text.list_init
                0x000000000020d0fe        0x6 build/zoul/remote-revb/obj/list.o
                0x000000000020d0fe                list_init
 .text.list_head
                0x000000000020d104        0x4 build/zoul/remote-revb/obj/list.o
                0x000000000020d104                list_head
 .text.list_tail
                0x000000000020d108       0x10 build/zoul/remote-revb/obj/list.o
                0x000000000020d108                list_tail
 .text.list_remove
                0x000000000020d118       0x26 build/zoul/remote-revb/obj/list.o
                0x000000000020d118                list_remove
 .text.list_add
                0x000000000020d13e       0x1a build/zoul/remote-revb/obj/list.o
                0x000000000020d13e                list_add
 .text.list_push
                0x000000000020d158       0x10 build/zoul/remote-revb/obj/list.o
                0x000000000020d158                list_push
 .text.list_length
                0x000000000020d168        0xe build/zoul/remote-revb/obj/list.o
                0x000000000020d168                list_length
 .text.list_item_next
                0x000000000020d176        0x6 build/zoul/remote-revb/obj/list.o
                0x000000000020d176                list_item_next
 .text.memb_init
                0x000000000020d17c       0x20 build/zoul/remote-revb/obj/memb.o
                0x000000000020d17c                memb_init
 .text.memb_alloc
                0x000000000020d19c       0x28 build/zoul/remote-revb/obj/memb.o
                0x000000000020d19c                memb_alloc
 .text.memb_free
                0x000000000020d1c4       0x2c build/zoul/remote-revb/obj/memb.o
                0x000000000020d1c4                memb_free
 .text.memb_inmemb
                0x000000000020d1f0       0x1c build/zoul/remote-revb/obj/memb.o
                0x000000000020d1f0                memb_inmemb
 .text.memb_numfree
                0x000000000020d20c       0x1c build/zoul/remote-revb/obj/memb.o
                0x000000000020d20c                memb_numfree
 .text.ringbuf_init
                0x000000000020d228        0xe build/zoul/remote-revb/obj/ringbuf.o
                0x000000000020d228                ringbuf_init
 .text.ringbuf_put
                0x000000000020d236       0x26 build/zoul/remote-revb/obj/ringbuf.o
                0x000000000020d236                ringbuf_put
 .text.ringbuf_get
                0x000000000020d25c       0x20 build/zoul/remote-revb/obj/ringbuf.o
                0x000000000020d25c                ringbuf_get
 .text.queuebuf_update_attr_from_packetbuf
                0x000000000020d27c        0xc build/zoul/remote-revb/obj/queuebuf.o
                0x000000000020d27c                queuebuf_update_attr_from_packetbuf
 .text.nbr_set_bit
                0x000000000020d288       0x38 build/zoul/remote-revb/obj/nbr-table.o
 .text.item_from_key
                0x000000000020d2c0       0x1e build/zoul/remote-revb/obj/nbr-table.o
 .text.nbr_table_next
                0x000000000020d2de       0x2e build/zoul/remote-revb/obj/nbr-table.o
                0x000000000020d2de                nbr_table_next
 .text.nbr_table_get_from_lladdr
                0x000000000020d30c       0x2e build/zoul/remote-revb/obj/nbr-table.o
                0x000000000020d30c                nbr_table_get_from_lladdr
 .text.nbr_table_get_lladdr
                0x000000000020d33a        0xc build/zoul/remote-revb/obj/nbr-table.o
                0x000000000020d33a                nbr_table_get_lladdr
 .text.linkaddr_copy
                0x000000000020d346        0x6 build/zoul/remote-revb/obj/linkaddr.o
                0x000000000020d346                linkaddr_copy
 .text.linkaddr_cmp
                0x000000000020d34c       0x10 build/zoul/remote-revb/obj/linkaddr.o
                0x000000000020d34c                linkaddr_cmp
 .text.link_stats_is_fresh
                0x000000000020d35c       0x24 build/zoul/remote-revb/obj/link-stats.o
                0x000000000020d35c                link_stats_is_fresh
 .text.guess_etx_from_rssi
                0x000000000020d380       0x3e build/zoul/remote-revb/obj/link-stats.o
                0x000000000020d380                guess_etx_from_rssi
 .text.mac_call_sent_callback
                0x000000000020d3be       0x18 build/zoul/remote-revb/obj/mac.o
                0x000000000020d3be                mac_call_sent_callback
 .text.parse    0x000000000020d3d6       0x94 build/zoul/remote-revb/obj/framer-802154.o
 .text.framer_802154_setup_params.part.0
                0x000000000020d46a       0x7c build/zoul/remote-revb/obj/framer-802154.o
 .text.create   0x000000000020d4e6        0x6 build/zoul/remote-revb/obj/framer-802154.o
 .text.hdr_length
                0x000000000020d4ec        0x6 build/zoul/remote-revb/obj/framer-802154.o
 .text.frame802154_has_panid
                0x000000000020d4f2       0xb6 build/zoul/remote-revb/obj/frame802154.o
                0x000000000020d4f2                frame802154_has_panid
 .text.field_len
                0x000000000020d5a8       0x84 build/zoul/remote-revb/obj/frame802154.o
 .text.frame802154_is_broadcast_addr
                0x000000000020d62c       0x1e build/zoul/remote-revb/obj/frame802154.o
                0x000000000020d62c                frame802154_is_broadcast_addr
 .text.frame802154_hdrlen
                0x000000000020d64a       0x32 build/zoul/remote-revb/obj/frame802154.o
                0x000000000020d64a                frame802154_hdrlen
 .text.frame802154_create_fcf
                0x000000000020d67c       0x5e build/zoul/remote-revb/obj/frame802154.o
                0x000000000020d67c                frame802154_create_fcf
 .text.frame802154_create
                0x000000000020d6da       0x8e build/zoul/remote-revb/obj/frame802154.o
                0x000000000020d6da                frame802154_create
 .text.frame802154_parse_fcf
                0x000000000020d768       0x66 build/zoul/remote-revb/obj/frame802154.o
                0x000000000020d768                frame802154_parse_fcf
 .text.write_str
                0x000000000020d7ce       0x10 build/zoul/remote-revb/obj/printf.o
 .text.buffer_str
                0x000000000020d7de       0x16 build/zoul/remote-revb/obj/sprintf.o
 .text.buffer_str
                0x000000000020d7f4       0x28 build/zoul/remote-revb/obj/snprintf.o
 .text.snprintf
                0x000000000020d81c       0x1a build/zoul/remote-revb/obj/snprintf.o
                0x000000000020d81c                snprintf
 .text.putchar  0x000000000020d836        0xc build/zoul/remote-revb/obj/putchar.o
                0x000000000020d836                putchar
 .text.send_packet
                0x000000000020d842        0x4 build/zoul/remote-revb/obj/csma.o
 .text.uipbuf_set_len_field
                0x000000000020d846        0x6 build/zoul/remote-revb/obj/uipbuf.o
                0x000000000020d846                uipbuf_set_len_field
 .text.uipbuf_get_len_field
                0x000000000020d84c        0xc build/zoul/remote-revb/obj/uipbuf.o
                0x000000000020d84c                uipbuf_get_len_field
 .text.uipbuf_get_next_header
                0x000000000020d858       0x48 build/zoul/remote-revb/obj/uipbuf.o
                0x000000000020d858                uipbuf_get_next_header
 .text.uipbuf_get_last_header
                0x000000000020d8a0       0x2c build/zoul/remote-revb/obj/uipbuf.o
                0x000000000020d8a0                uipbuf_get_last_header
 .text.uipbuf_search_header
                0x000000000020d8cc       0x40 build/zoul/remote-revb/obj/uipbuf.o
                0x000000000020d8cc                uipbuf_search_header
 .text.uip_sr_expire_parent
                0x000000000020d90c       0x28 build/zoul/remote-revb/obj/uip-sr.o
                0x000000000020d90c                uip_sr_expire_parent
 .text.uip_ds6_list_loop
                0x000000000020d934       0x4c build/zoul/remote-revb/obj/uip-ds6.o
                0x000000000020d934                uip_ds6_list_loop
 .text.uip_ds6_maddr_rm
                0x000000000020d980        0x8 build/zoul/remote-revb/obj/uip-ds6.o
                0x000000000020d980                uip_ds6_maddr_rm
 .text.uip_ds6_set_addr_iid
                0x000000000020d988       0x16 build/zoul/remote-revb/obj/uip-ds6.o
                0x000000000020d988                uip_ds6_set_addr_iid
 .text.uip_ds6_set_lladdr_from_iid
                0x000000000020d99e       0x16 build/zoul/remote-revb/obj/uip-ds6.o
                0x000000000020d99e                uip_ds6_set_lladdr_from_iid
 .text.get_match_length
                0x000000000020d9b4       0x36 build/zoul/remote-revb/obj/uip-ds6.o
                0x000000000020d9b4                get_match_length
 .text.uip_ds6_route_nexthop
                0x000000000020d9ea        0x4 build/zoul/remote-revb/obj/uip-ds6-route.o
                0x000000000020d9ea                uip_ds6_route_nexthop
 .text.uip_ds6_route_lookup
                0x000000000020d9ee        0x4 build/zoul/remote-revb/obj/uip-ds6-route.o
                0x000000000020d9ee                uip_ds6_route_lookup
 .text.uip_ds6_route_rm
                0x000000000020d9f2        0x2 build/zoul/remote-revb/obj/uip-ds6-route.o
                0x000000000020d9f2                uip_ds6_route_rm
 .text.psock_datalen
                0x000000000020d9f4        0xa build/zoul/remote-revb/obj/psock.o
                0x000000000020d9f4                psock_datalen
 .text.psock_init
                0x000000000020d9fe       0x14 build/zoul/remote-revb/obj/psock.o
                0x000000000020d9fe                psock_init
 .text.chksum   0x000000000020da12       0x38 build/zoul/remote-revb/obj/uip6.o
 .text.uip_icmp6chksum
                0x000000000020da4a        0x6 build/zoul/remote-revb/obj/uip6.o
                0x000000000020da4a                uip_icmp6chksum
 .text.uip_tcpchksum
                0x000000000020da50        0x6 build/zoul/remote-revb/obj/uip6.o
                0x000000000020da50                uip_tcpchksum
 .text.uip_udpchksum
                0x000000000020da56        0x6 build/zoul/remote-revb/obj/uip6.o
                0x000000000020da56                uip_udpchksum
 .text.uip_ds6_nbr_lookup
                0x000000000020da5c       0x2c build/zoul/remote-revb/obj/uip-ds6-nbr.o
                0x000000000020da5c                uip_ds6_nbr_lookup
 .text.uip_ds6_nbr_update_ll
                0x000000000020da88       0x5e build/zoul/remote-revb/obj/uip-ds6-nbr.o
                0x000000000020da88                uip_ds6_nbr_update_ll
 .text.uip_ds6_nbr_ipaddr_from_lladdr
                0x000000000020dae6        0x4 build/zoul/remote-revb/obj/uip-ds6-nbr.o
                0x000000000020dae6                uip_ds6_nbr_ipaddr_from_lladdr
 .text.uip_ds6_nbr_lladdr_from_ipaddr
                0x000000000020daea       0x12 build/zoul/remote-revb/obj/uip-ds6-nbr.o
                0x000000000020daea                uip_ds6_nbr_lladdr_from_ipaddr
 .text.uip_ds6_link_callback
                0x000000000020dafc        0x2 build/zoul/remote-revb/obj/uip-ds6-nbr.o
                0x000000000020dafc                uip_ds6_link_callback
 .text.get32    0x000000000020dafe       0x18 build/zoul/remote-revb/obj/rpl-icmp6.o
 .text.set32    0x000000000020db16       0x12 build/zoul/remote-revb/obj/rpl-icmp6.o
 .text.get16    0x000000000020db28        0xc build/zoul/remote-revb/obj/rpl-icmp6.o
 .text.set16    0x000000000020db34        0xa build/zoul/remote-revb/obj/rpl-icmp6.o
 .text.rpl_icmp6_update_nbr_table
                0x000000000020db3e       0x2e build/zoul/remote-revb/obj/rpl-icmp6.o
                0x000000000020db3e                rpl_icmp6_update_nbr_table
 .text.rpl_neighbor_get_ipaddr
                0x000000000020db6c        0xe build/zoul/remote-revb/obj/rpl-neighbor.o
                0x000000000020db6c                rpl_neighbor_get_ipaddr
 .text.rpl_neighbor_get_link_stats
                0x000000000020db7a        0xe build/zoul/remote-revb/obj/rpl-neighbor.o
                0x000000000020db7a                rpl_neighbor_get_link_stats
 .text.rpl_neighbor_is_fresh
                0x000000000020db88        0xe build/zoul/remote-revb/obj/rpl-neighbor.o
                0x000000000020db88                rpl_neighbor_is_fresh
 .text.handle_state_update
                0x000000000020db96        0x4 build/zoul/remote-revb/obj/rpl-timers.o
 .text.get_probing_delay
                0x000000000020db9a       0x1a build/zoul/remote-revb/obj/rpl-timers.o
                0x000000000020db9a                get_probing_delay
 .text.handle_probing_timer
                0x000000000020dbb4       0x24 build/zoul/remote-revb/obj/rpl-timers.o
 .text.neighbor_state_changed
                0x000000000020dbd8        0x2 build/zoul/remote-revb/obj/rpl.o
 .text.drop_route
                0x000000000020dbda        0x2 build/zoul/remote-revb/obj/rpl.o
 .text.rpl_lollipop_greater_than
                0x000000000020dbdc       0x34 build/zoul/remote-revb/obj/rpl.o
                0x000000000020dbdc                rpl_lollipop_greater_than
 .text.reset    0x000000000020dc10        0x2 build/zoul/remote-revb/obj/rpl-mrhof.o
 .text.nbr_link_metric
                0x000000000020dc12       0x12 build/zoul/remote-revb/obj/rpl-mrhof.o
 .text.nbr_path_cost
                0x000000000020dc24       0x28 build/zoul/remote-revb/obj/rpl-mrhof.o
 .text.nbr_has_usable_link
                0x000000000020dc4c       0x12 build/zoul/remote-revb/obj/rpl-mrhof.o
 .text.nbr_is_acceptable_parent
                0x000000000020dc5e       0x1e build/zoul/remote-revb/obj/rpl-mrhof.o
 .text.rpl_process_hbh
                0x000000000020dc7c       0x1c build/zoul/remote-revb/obj/rpl-dag.o
                0x000000000020dc7c                rpl_process_hbh
 .text.b64_encoded_size
                0x000000000020dc98       0x1a web-db.o
                0x000000000020dc98                b64_encoded_size
 .text.SHA_256  0x000000000020dcb2       0x2c web-db.o
                0x000000000020dcb2                SHA_256
 .text.add_round_key
                0x000000000020dcde       0x8a build/zoul/remote-revb/obj/myencrypt.o
 .text.shift_rows
                0x000000000020dd68       0x72 build/zoul/remote-revb/obj/myencrypt.o
 .text.mult_row_column
                0x000000000020ddda       0x80 build/zoul/remote-revb/obj/myencrypt.o
 *(SORT_BY_ALIGNMENT(.rodata*))
 *fill*         0x000000000020de5a        0x2 00000000
 .rodata.uart_regs
                0x000000000020de5c       0x58 build/zoul/remote-revb/obj/uart.o
 .rodata.k256   0x000000000020deb4      0x100 build/zoul/remote-revb/obj/sha256.o
 .rodata.cc2538_rf_driver
                0x000000000020dfb4       0x38 build/zoul/remote-revb/obj/cc2538-rf.o
                0x000000000020dfb4                cc2538_rf_driver
 .rodata.output_power
                0x000000000020dfec       0x70 build/zoul/remote-revb/obj/cc2538-rf.o
 .rodata.cc2538_temp_sensor
                0x000000000020e05c       0x10 build/zoul/remote-revb/obj/cc2538-temp-sensor.o
                0x000000000020e05c                cc2538_temp_sensor
 .rodata.vdd3_sensor
                0x000000000020e06c       0x10 build/zoul/remote-revb/obj/vdd3-sensor.o
                0x000000000020e06c                vdd3_sensor
 .rodata.framer_802154
                0x000000000020e07c        0xc build/zoul/remote-revb/obj/framer-802154.o
                0x000000000020e07c                framer_802154
 .rodata.csma_driver
                0x000000000020e088       0x1c build/zoul/remote-revb/obj/csma.o
                0x000000000020e088                csma_driver
 .rodata.sicslowpan_driver
                0x000000000020e0a4       0x10 build/zoul/remote-revb/obj/sicslowpan.o
                0x000000000020e0a4                sicslowpan_driver
 .rodata.rpl_lite_driver
                0x000000000020e0b4       0x50 build/zoul/remote-revb/obj/rpl.o
                0x000000000020e0b4                rpl_lite_driver
 .rodata.autostart_processes
                0x000000000020e104        0x8 web-db.o
                0x000000000020e104                autostart_processes
 .rodata        0x000000000020e10c       0x2c build/zoul/remote-revb/obj/myencrypt.o
 .rodata.linkaddr_null
                0x000000000020e138        0x8 build/zoul/remote-revb/obj/linkaddr.o
                0x000000000020e138                linkaddr_null
 .rodata.platform_init_stage_three.str1.1
                0x000000000020e140       0x3e build/zoul/remote-revb/obj/platform.o
                                         0x42 (size before relaxing)
 .rodata.leds_arch_leds
                0x000000000020e17e        0x6 build/zoul/remote-revb/obj/leds-arch.o
                0x000000000020e17e                leds_arch_leds
 .rodata.str1.1
                0x000000000020e184        0xc build/zoul/remote-revb/obj/board-buttons.o
 .rodata.str1.1
                0x000000000020e190       0x11 build/zoul/remote-revb/obj/cc2538-rf.o
 .rodata.str1.1
                0x000000000020e1a1       0x14 build/zoul/remote-revb/obj/cc2538-temp-sensor.o
 .rodata.str1.1
                0x000000000020e1b5        0x5 build/zoul/remote-revb/obj/vdd3-sensor.o
 .rodata.main.str1.1
                0x000000000020e1ba       0xe1 build/zoul/remote-revb/obj/contiki-main.o
                                         0xf7 (size before relaxing)
 .rodata.str1.1
                0x000000000020e29b        0xc build/zoul/remote-revb/obj/etimer.o
 .rodata.log_6addr.str1.1
                0x000000000020e2a7        0xc build/zoul/remote-revb/obj/log.o
                                          0x3 (size before relaxing)
 .rodata.log_lladdr.str1.1
                0x000000000020e2a7       0x16 build/zoul/remote-revb/obj/log.o
 .rodata.str1.1
                0x000000000020e2bd        0xf build/zoul/remote-revb/obj/ctimer.o
 .rodata.process_thread_stack_check_process.str1.1
                0x000000000020e2cc       0x4f build/zoul/remote-revb/obj/stack-check.o
                                         0x5e (size before relaxing)
 .rodata.str1.1
                0x000000000020e31b        0xc build/zoul/remote-revb/obj/stack-check.o
 .rodata.str1.1
                0x000000000020e327       0x13 build/zoul/remote-revb/obj/button-hal.o
 .rodata.str1.1
                0x000000000020e33a        0xe build/zoul/remote-revb/obj/serial-line.o
 .rodata.str1.1
                0x000000000020e348        0x8 build/zoul/remote-revb/obj/sensors.o
 .rodata.buffer.5415
                0x000000000020e350       0x10 build/zoul/remote-revb/obj/strformat.o
 .rodata.buffer.5424
                0x000000000020e360       0x10 build/zoul/remote-revb/obj/strformat.o
 .rodata.format_str_v.str1.1
                0x000000000020e370       0x35 build/zoul/remote-revb/obj/strformat.o
                                         0x37 (size before relaxing)
 .rodata.str1.1
                0x000000000020e3a5        0x5 build/zoul/remote-revb/obj/csma.o
 .rodata.uiplib_ipaddr_snprint.str1.1
                0x000000000020e3aa       0x28 build/zoul/remote-revb/obj/uiplib.o
                                         0x2a (size before relaxing)
 .rodata.str1.1
                0x000000000020e3d2        0xd build/zoul/remote-revb/obj/tcpip.o
 .rodata        0x000000000020e3df        0x2 build/zoul/remote-revb/obj/sicslowpan.o
 .rodata.CSWTCH.370
                0x000000000020e3e1        0x4 build/zoul/remote-revb/obj/sicslowpan.o
 .rodata.llprefix
                0x000000000020e3e5        0x2 build/zoul/remote-revb/obj/sicslowpan.o
                0x000000000020e3e5                llprefix
 .rodata.str1.1
                0x000000000020e3e7        0xb build/zoul/remote-revb/obj/sicslowpan.o
 .rodata.ttl_values
                0x000000000020e3f2        0x4 build/zoul/remote-revb/obj/sicslowpan.o
 .rodata.unc_ctxconf
                0x000000000020e3f6        0x4 build/zoul/remote-revb/obj/sicslowpan.o
                0x000000000020e3f6                unc_ctxconf
 .rodata.unc_llconf
                0x000000000020e3fa        0x4 build/zoul/remote-revb/obj/sicslowpan.o
                0x000000000020e3fa                unc_llconf
 .rodata.unc_mxconf
                0x000000000020e3fe        0x4 build/zoul/remote-revb/obj/sicslowpan.o
                0x000000000020e3fe                unc_mxconf
 .rodata.resend_dao.str1.1
                0x000000000020e402        0xc build/zoul/remote-revb/obj/rpl-timers.o
 .rodata.str1.1
                0x000000000020e40e        0x9 build/zoul/remote-revb/obj/rpl.o
 .rodata.rpl_dag_init_root.str1.1
                0x000000000020e417        0xa build/zoul/remote-revb/obj/rpl-dag.o
 .rodata.rpl_dag_update_state.str1.1
                0x000000000020e421       0x31 build/zoul/remote-revb/obj/rpl-dag.o
 .rodata.rpl_global_repair.str1.1
                0x000000000020e452        0xe build/zoul/remote-revb/obj/rpl-dag.o
 .rodata.rpl_local_repair.str1.1
                0x000000000020e460        0xd build/zoul/remote-revb/obj/rpl-dag.o
 .rodata.rpl_process_dao_ack.str1.1
                0x000000000020e46d        0xa build/zoul/remote-revb/obj/rpl-dag.o
 .rodata.rpl_process_dio.str1.1
                0x000000000020e477       0x3a build/zoul/remote-revb/obj/rpl-dag.o
 .rodata.rpl_process_dis.str1.1
                0x000000000020e4b1        0xe build/zoul/remote-revb/obj/rpl-dag.o
 .rodata        0x000000000020e4bf       0x10 web-db.o
 .rodata.b64chars
                0x000000000020e4cf       0x41 web-db.o
                0x000000000020e4cf                b64chars
 .rodata.generate_routes.str1.1
                0x000000000020e510      0x159 web-db.o
                                        0x165 (size before relaxing)
 .rodata.process_thread_web_sense.str1.1
                0x000000000020e669       0x2f web-db.o
                                         0x43 (size before relaxing)
 .rodata.show_str.str1.1
                0x000000000020e698        0x6 web-db.o
                                          0xd (size before relaxing)
 .rodata.str1.1
                0x000000000020e69e       0x11 web-db.o
 .rodata.sbox   0x000000000020e6af      0x100 build/zoul/remote-revb/obj/myencrypt.o
 .rodata.handle_output.str1.1
                0x000000000020e7af       0x68 build/zoul/remote-revb/obj/httpd-simple.o
 .rodata.http_content_type_json
                0x000000000020e817       0x23 build/zoul/remote-revb/obj/httpd-simple.o
                0x000000000020e817                http_content_type_json
 .rodata.http_get
                0x000000000020e83a        0x5 build/zoul/remote-revb/obj/httpd-simple.o
                0x000000000020e83a                http_get
 .rodata.http_header_200
                0x000000000020e83f       0x56 build/zoul/remote-revb/obj/httpd-simple.o
                0x000000000020e83f                http_header_200
 .rodata.http_header_404
                0x000000000020e895       0x5d build/zoul/remote-revb/obj/httpd-simple.o
                0x000000000020e895                http_header_404
 .rodata.http_index_html
                0x000000000020e8f2        0xc build/zoul/remote-revb/obj/httpd-simple.o
                0x000000000020e8f2                http_index_html
                0x000000000020e8fe                _etext = .

.glue_7         0x000000000020e900        0x0
 .glue_7        0x000000000020e900        0x0 linker stubs

.glue_7t        0x000000000020e900        0x0
 .glue_7t       0x000000000020e900        0x0 linker stubs

.vfp11_veneer   0x000000000020e900        0x0
 .vfp11_veneer  0x000000000020e900        0x0 linker stubs

.v4_bx          0x000000000020e900        0x0
 .v4_bx         0x000000000020e900        0x0 linker stubs

.iplt           0x000000000020e900        0x0
 .iplt          0x000000000020e900        0x0 build/zoul/remote-revb/obj/startup-gcc.o

.socdata        0x0000000020004000       0x40
 *(SORT_BY_ALIGNMENT(.udma_channel_control_table))
 .udma_channel_control_table
                0x0000000020004000       0x40 build/zoul/remote-revb/obj/udma.o

.data           0x0000000020004040      0xa6c load address 0x000000000020e900
                0x0000000020004040                _data = .
 *(SORT_BY_ALIGNMENT(.data*))
 .data.impure_data
                0x0000000020004040      0x428 /home/genius/gcc-arm-none-eabi-8-2018-q4-major/bin/../lib/gcc/arm-none-eabi/8.2.1/../../../../arm-none-eabi/lib/thumb/v7-m/nofp/libc.a(lib_a-impure.o)
 .data.button_hal_buttons
                0x0000000020004468        0x8 build/zoul/remote-revb/obj/board-buttons.o
                0x0000000020004468                button_hal_buttons
 .data.button_user
                0x0000000020004470       0x50 build/zoul/remote-revb/obj/board-buttons.o
 .data.sensors  0x00000000200044c0        0xc build/zoul/remote-revb/obj/zoul-sensors.o
                0x00000000200044c0                sensors
 .data.cc2538_rf_process
                0x00000000200044cc       0x10 build/zoul/remote-revb/obj/cc2538-rf.o
                0x00000000200044cc                cc2538_rf_process
 .data.etimer_process
                0x00000000200044dc       0x10 build/zoul/remote-revb/obj/etimer.o
                0x00000000200044dc                etimer_process
 .data.curr_log_level_main
                0x00000000200044ec        0x4 build/zoul/remote-revb/obj/log.o
                0x00000000200044ec                curr_log_level_main
 .data.ctimer_process
                0x00000000200044f0       0x10 build/zoul/remote-revb/obj/ctimer.o
                0x00000000200044f0                ctimer_process
 .data.stack_check_process
                0x0000000020004500       0x10 build/zoul/remote-revb/obj/stack-check.o
                0x0000000020004500                stack_check_process
 .data.button_hal_process
                0x0000000020004510       0x10 build/zoul/remote-revb/obj/button-hal.o
                0x0000000020004510                button_hal_process
 .data.serial_line_process
                0x0000000020004520       0x10 build/zoul/remote-revb/obj/serial-line.o
                0x0000000020004520                serial_line_process
 .data.sensors_process
                0x0000000020004530       0x10 build/zoul/remote-revb/obj/sensors.o
                0x0000000020004530                sensors_process
 .data.bufmem   0x0000000020004540        0xc build/zoul/remote-revb/obj/queuebuf.o
 .data.buframmem
                0x000000002000454c        0xc build/zoul/remote-revb/obj/queuebuf.o
 .data.neighbor_addr_mem
                0x0000000020004558        0xc build/zoul/remote-revb/obj/nbr-table.o
 .data.link_stats_struct
                0x0000000020004564       0x10 build/zoul/remote-revb/obj/link-stats.o
 .data.heap_end.4468
                0x0000000020004574        0x4 build/zoul/remote-revb/obj/syscalls.o
 .data.ctxt     0x0000000020004578        0x8 build/zoul/remote-revb/obj/printf.o
 .data.metadata_memb
                0x0000000020004580        0xc build/zoul/remote-revb/obj/csma-output.o
 .data.neighbor_memb
                0x000000002000458c        0xc build/zoul/remote-revb/obj/csma-output.o
 .data.packet_memb
                0x0000000020004598        0xc build/zoul/remote-revb/obj/csma-output.o
 .data.echo_reply_handler
                0x00000000200045a4        0xc build/zoul/remote-revb/obj/uip-icmp6.o
 .data.echo_request_handler
                0x00000000200045b0        0xc build/zoul/remote-revb/obj/uip-icmp6.o
 .data.nodememb
                0x00000000200045bc        0xc build/zoul/remote-revb/obj/uip-sr.o
 .data.defaultroutermemb
                0x00000000200045c8        0xc build/zoul/remote-revb/obj/uip-ds6-route.o
 .data.tcpip_process
                0x00000000200045d4       0x10 build/zoul/remote-revb/obj/tcpip.o
                0x00000000200045d4                tcpip_process
 .data.ds6_neighbors_struct
                0x00000000200045e4       0x10 build/zoul/remote-revb/obj/uip-ds6-nbr.o
 .data.ns_input_handler
                0x00000000200045f4        0xc build/zoul/remote-revb/obj/uip-nd6.o
 .data.dao_ack_handler
                0x0000000020004600        0xc build/zoul/remote-revb/obj/rpl-icmp6.o
 .data.dao_handler
                0x000000002000460c        0xc build/zoul/remote-revb/obj/rpl-icmp6.o
 .data.dio_handler
                0x0000000020004618        0xc build/zoul/remote-revb/obj/rpl-icmp6.o
 .data.dis_handler
                0x0000000020004624        0xc build/zoul/remote-revb/obj/rpl-icmp6.o
 .data.rpl_neighbors
                0x0000000020004630        0x4 build/zoul/remote-revb/obj/rpl-neighbor.o
                0x0000000020004630                rpl_neighbors
 .data.rpl_neighbors_struct
                0x0000000020004634       0x10 build/zoul/remote-revb/obj/rpl-neighbor.o
 .data.rpl_mrhof
                0x0000000020004644       0x24 build/zoul/remote-revb/obj/rpl-mrhof.o
                0x0000000020004644                rpl_mrhof
 .data.web_sense
                0x0000000020004668       0x10 web-db.o
                0x0000000020004668                web_sense
 .data.webserver_nogui_process
                0x0000000020004678       0x10 web-db.o
                0x0000000020004678                webserver_nogui_process
 .data.conns    0x0000000020004688        0xc build/zoul/remote-revb/obj/httpd-simple.o
 .data.__malloc_av_
                0x0000000020004694      0x408 /home/genius/gcc-arm-none-eabi-8-2018-q4-major/bin/../lib/gcc/arm-none-eabi/8.2.1/../../../../arm-none-eabi/lib/thumb/v7-m/nofp/libc.a(lib_a-mallocr.o)
                0x0000000020004694                __malloc_av_
 .data.__malloc_sbrk_base
                0x0000000020004a9c        0x4 /home/genius/gcc-arm-none-eabi-8-2018-q4-major/bin/../lib/gcc/arm-none-eabi/8.2.1/../../../../arm-none-eabi/lib/thumb/v7-m/nofp/libc.a(lib_a-mallocr.o)
                0x0000000020004a9c                __malloc_sbrk_base
 .data.__malloc_trim_threshold
                0x0000000020004aa0        0x4 /home/genius/gcc-arm-none-eabi-8-2018-q4-major/bin/../lib/gcc/arm-none-eabi/8.2.1/../../../../arm-none-eabi/lib/thumb/v7-m/nofp/libc.a(lib_a-mallocr.o)
                0x0000000020004aa0                __malloc_trim_threshold
 .data._impure_ptr
                0x0000000020004aa4        0x4 /home/genius/gcc-arm-none-eabi-8-2018-q4-major/bin/../lib/gcc/arm-none-eabi/8.2.1/../../../../arm-none-eabi/lib/thumb/v7-m/nofp/libc.a(lib_a-impure.o)
                0x0000000020004aa4                _impure_ptr
 .data.mac_pan_id
                0x0000000020004aa8        0x2 build/zoul/remote-revb/obj/frame802154.o
 .data.rf_channel
                0x0000000020004aaa        0x1 build/zoul/remote-revb/obj/cc2538-rf.o
 .data.send_on_cca
                0x0000000020004aab        0x1 build/zoul/remote-revb/obj/cc2538-rf.o
                0x0000000020004aac                _edata = .
                0x000000000020e900                _ldata = LOADADDR (.data)

.igot.plt       0x0000000020004aac        0x0 load address 0x000000000020f36c
 .igot.plt      0x0000000020004aac        0x0 build/zoul/remote-revb/obj/startup-gcc.o

.ARM.exidx      0x000000000020f36c        0x8
 *(SORT_BY_ALIGNMENT(.ARM.exidx*))
 .ARM.exidx     0x000000000020f36c        0x8 /home/genius/gcc-arm-none-eabi-8-2018-q4-major/bin/../lib/gcc/arm-none-eabi/8.2.1/thumb/v7-m/nofp/libgcc.a(_udivmoddi4.o)

.bss            0x0000000020004ab0     0x28c9
                0x0000000020004ab0                _bss = .
 *(SORT_BY_ALIGNMENT(.bss*))
 .bss.rt_ticks_epoch
                0x0000000020004ab0        0x8 build/zoul/remote-revb/obj/clock.o
 .bss.rt_ticks_startup
                0x0000000020004ab8        0x8 build/zoul/remote-revb/obj/clock.o
 .bss.next_trigger
                0x0000000020004ac0        0x4 build/zoul/remote-revb/obj/rtimer-arch.o
 .bss.input_handler
                0x0000000020004ac4        0x8 build/zoul/remote-revb/obj/uart.o
 .bss.ioc_over  0x0000000020004acc        0x4 build/zoul/remote-revb/obj/ioc.o
 .bss.ioc_sel   0x0000000020004ad0        0x4 build/zoul/remote-revb/obj/ioc.o
 .bss.notification_process
                0x0000000020004ad4        0x4 build/zoul/remote-revb/obj/crypto.o
 .bss.prev_FRMCTRL0
                0x0000000020004ad8        0x4 build/zoul/remote-revb/obj/cc2538-rf.o
 .bss.prev_MDMTEST1
                0x0000000020004adc        0x4 build/zoul/remote-revb/obj/cc2538-rf.o
 .bss.periph_permit_pm1_funcs
                0x0000000020004ae0       0x14 build/zoul/remote-revb/obj/lpm.o
 .bss.notification_process
                0x0000000020004af4        0x4 build/zoul/remote-revb/obj/pka.o
 .bss.next_expiration
                0x0000000020004af8        0x4 build/zoul/remote-revb/obj/etimer.o
 .bss.timerlist
                0x0000000020004afc        0x4 build/zoul/remote-revb/obj/etimer.o
 .bss.ctimer_list_list
                0x0000000020004b00        0x4 build/zoul/remote-revb/obj/ctimer.o
 .bss.next_rtimer
                0x0000000020004b04        0x4 build/zoul/remote-revb/obj/rtimer.o
 .bss.events    0x0000000020004b08      0x180 build/zoul/remote-revb/obj/process.o
 .bss.process_current
                0x0000000020004c88        0x4 build/zoul/remote-revb/obj/process.o
                0x0000000020004c88                process_current
 .bss.process_list
                0x0000000020004c8c        0x4 build/zoul/remote-revb/obj/process.o
                0x0000000020004c8c                process_list
 .bss.et.5751   0x0000000020004c90       0x10 build/zoul/remote-revb/obj/stack-check.o
 .bss.button_event_handler
                0x0000000020004ca0        0xc build/zoul/remote-revb/obj/button-hal.o
 .bss.pmask     0x0000000020004cac        0x4 build/zoul/remote-revb/obj/button-hal.o
 .bss.ptr.5383  0x0000000020004cb0        0x4 build/zoul/remote-revb/obj/serial-line.o
 .bss.rxbuf     0x0000000020004cb4        0x8 build/zoul/remote-revb/obj/serial-line.o
 .bss.handlers_list
                0x0000000020004cbc        0x4 build/zoul/remote-revb/obj/gpio-hal.o
 .bss.events.5399
                0x0000000020004cc0        0x4 build/zoul/remote-revb/obj/sensors.o
 .bss.i.5398    0x0000000020004cc4        0x4 build/zoul/remote-revb/obj/sensors.o
 .bss.bufmem_memb_mem
                0x0000000020004cc8       0x20 build/zoul/remote-revb/obj/queuebuf.o
 .bss.all_tables
                0x0000000020004ce8       0x20 build/zoul/remote-revb/obj/nbr-table.o
 .bss.nbr_table_keys_list
                0x0000000020004d08        0x4 build/zoul/remote-revb/obj/nbr-table.o
 .bss.neighbor_addr_mem_memb_mem
                0x0000000020004d0c       0xc0 build/zoul/remote-revb/obj/nbr-table.o
 .bss.num_tables
                0x0000000020004dcc        0x4 build/zoul/remote-revb/obj/nbr-table.o
 .bss.packetbuf_aligned
                0x0000000020004dd0       0x80 build/zoul/remote-revb/obj/packetbuf.o
 .bss.ip_processor_list_list
                0x0000000020004e50        0x4 build/zoul/remote-revb/obj/netstack.o
 .bss._link_stats_mem
                0x0000000020004e54       0xc0 build/zoul/remote-revb/obj/link-stats.o
 .bss.received_seqnos
                0x0000000020004f14      0x100 build/zoul/remote-revb/obj/mac-sequence.o
 .bss.metadata_memb_memb_mem
                0x0000000020005014       0x60 build/zoul/remote-revb/obj/csma-output.o
 .bss.neighbor_list_list
                0x0000000020005074        0x4 build/zoul/remote-revb/obj/csma-output.o
 .bss.neighbor_memb_memb_mem
                0x0000000020005078       0x70 build/zoul/remote-revb/obj/csma-output.o
 .bss.packet_memb_memb_mem
                0x00000000200050e8       0x60 build/zoul/remote-revb/obj/csma-output.o
 .bss.echo_reply_callback_list_list
                0x0000000020005148        0x4 build/zoul/remote-revb/obj/uip-icmp6.o
 .bss.input_handler_list_list
                0x000000002000514c        0x4 build/zoul/remote-revb/obj/uip-icmp6.o
 .bss.nodelist_list
                0x0000000020005150        0x4 build/zoul/remote-revb/obj/uip-sr.o
 .bss.nodememb_memb_mem
                0x0000000020005154      0x180 build/zoul/remote-revb/obj/uip-sr.o
 .bss.num_nodes
                0x00000000200052d4        0x4 build/zoul/remote-revb/obj/uip-sr.o
 .bss.locaddr   0x00000000200052d8        0x4 build/zoul/remote-revb/obj/uip-ds6.o
 .bss.locmaddr  0x00000000200052dc        0x4 build/zoul/remote-revb/obj/uip-ds6.o
 .bss.locprefix
                0x00000000200052e0        0x4 build/zoul/remote-revb/obj/uip-ds6.o
 .bss.defaultrouterlist_list
                0x00000000200052e4        0x4 build/zoul/remote-revb/obj/uip-ds6-route.o
 .bss.defaultroutermemb_memb_mem
                0x00000000200052e8       0x40 build/zoul/remote-revb/obj/uip-ds6-route.o
 .bss.periodic  0x0000000020005328       0x10 build/zoul/remote-revb/obj/tcpip.o
 .bss.s         0x0000000020005338       0xa4 build/zoul/remote-revb/obj/tcpip.o
 .bss.addr      0x00000000200053dc        0x4 build/zoul/remote-revb/obj/uip-nd6.o
 .bss.nbr       0x00000000200053e0        0x4 build/zoul/remote-revb/obj/uip-nd6.o
 .bss.nd6_opt_llao
                0x00000000200053e4        0x4 build/zoul/remote-revb/obj/uip-nd6.o
 .bss.callback  0x00000000200053e8        0x4 build/zoul/remote-revb/obj/sicslowpan.o
 .bss.context   0x00000000200053ec        0x4 build/zoul/remote-revb/obj/sicslowpan.o
 .bss.frag_info
                0x00000000200053f0      0x170 build/zoul/remote-revb/obj/sicslowpan.o
 .bss.hc06_ptr  0x0000000020005560        0x4 build/zoul/remote-revb/obj/sicslowpan.o
 .bss.last_rssi
                0x0000000020005564        0x4 build/zoul/remote-revb/obj/sicslowpan.o
 .bss.last_tx_status
                0x0000000020005568        0x4 build/zoul/remote-revb/obj/sicslowpan.o
 .bss.mac_max_payload
                0x000000002000556c        0x4 build/zoul/remote-revb/obj/sicslowpan.o
 .bss.packetbuf_payload_len
                0x0000000020005570        0x4 build/zoul/remote-revb/obj/sicslowpan.o
 .bss.packetbuf_ptr
                0x0000000020005574        0x4 build/zoul/remote-revb/obj/sicslowpan.o
 .bss._rpl_neighbors_mem
                0x0000000020005578       0x80 build/zoul/remote-revb/obj/rpl-neighbor.o
 .bss.dis_timer
                0x00000000200055f8       0x20 build/zoul/remote-revb/obj/rpl-timers.o
 .bss.periodic_timer
                0x0000000020005618       0x20 build/zoul/remote-revb/obj/rpl-timers.o
 .bss.num_parents
                0x0000000020005638        0x4 build/zoul/remote-revb/obj/rpl-nbr-policy.o
 .bss.worst_rank_nbr_lladdr
                0x000000002000563c        0x4 build/zoul/remote-revb/obj/rpl-nbr-policy.o
 .bss.conns_memb_mem
                0x0000000020005640      0x3c0 build/zoul/remote-revb/obj/httpd-simple.o
 .bss.__malloc_current_mallinfo
                0x0000000020005a00       0x28 /home/genius/gcc-arm-none-eabi-8-2018-q4-major/bin/../lib/gcc/arm-none-eabi/8.2.1/../../../../arm-none-eabi/lib/thumb/v7-m/nofp/libc.a(lib_a-mallocr.o)
                0x0000000020005a00                __malloc_current_mallinfo
 .bss.__malloc_max_sbrked_mem
                0x0000000020005a28        0x4 /home/genius/gcc-arm-none-eabi-8-2018-q4-major/bin/../lib/gcc/arm-none-eabi/8.2.1/../../../../arm-none-eabi/lib/thumb/v7-m/nofp/libc.a(lib_a-mallocr.o)
                0x0000000020005a28                __malloc_max_sbrked_mem
 .bss.__malloc_max_total_mem
                0x0000000020005a2c        0x4 /home/genius/gcc-arm-none-eabi-8-2018-q4-major/bin/../lib/gcc/arm-none-eabi/8.2.1/../../../../arm-none-eabi/lib/thumb/v7-m/nofp/libc.a(lib_a-mallocr.o)
                0x0000000020005a2c                __malloc_max_total_mem
 .bss.__malloc_top_pad
                0x0000000020005a30        0x4 /home/genius/gcc-arm-none-eabi-8-2018-q4-major/bin/../lib/gcc/arm-none-eabi/8.2.1/../../../../arm-none-eabi/lib/thumb/v7-m/nofp/libc.a(lib_a-mallocr.o)
                0x0000000020005a30                __malloc_top_pad
 .bss.node_id   0x0000000020005a34        0x2 build/zoul/remote-revb/obj/node-id.o
                0x0000000020005a34                node_id
 .bss.buframmem_memb_mem
                0x0000000020005a36      0x560 build/zoul/remote-revb/obj/queuebuf.o
 .bss.buflen    0x0000000020005f96        0x2 build/zoul/remote-revb/obj/packetbuf.o
 .bss.bufptr    0x0000000020005f98        0x2 build/zoul/remote-revb/obj/packetbuf.o
 .bss.uipbuf_attrs
                0x0000000020005f9a        0xc build/zoul/remote-revb/obj/uipbuf.o
 .bss.uipbuf_default_attrs
                0x0000000020005fa6        0xc build/zoul/remote-revb/obj/uipbuf.o
 .bss.tmp_ipaddr
                0x0000000020005fb2       0x10 build/zoul/remote-revb/obj/uip-icmp6.o
 .bss.default_prefix
                0x0000000020005fc2       0x10 build/zoul/remote-revb/obj/uip-ds6.o
 .bss.loc_fipaddr
                0x0000000020005fd2       0x10 build/zoul/remote-revb/obj/uip-ds6.o
 .bss.lastport  0x0000000020005fe2        0x2 build/zoul/remote-revb/obj/uip6.o
 .bss.uip_ext_len
                0x0000000020005fe4        0x2 build/zoul/remote-revb/obj/uip6.o
                0x0000000020005fe4                uip_ext_len
 .bss._ds6_neighbors_mem
                0x0000000020005fe6      0x120 build/zoul/remote-revb/obj/uip-ds6-nbr.o
 .bss.my_tag    0x0000000020006106        0x2 build/zoul/remote-revb/obj/sicslowpan.o
 .bss.worst_rank
                0x0000000020006108        0x2 build/zoul/remote-revb/obj/rpl-nbr-policy.o
 .bss.root_ipaddr.6941
                0x000000002000610a       0x10 build/zoul/remote-revb/obj/rpl-dag-root.o
 .bss.initialized
                0x000000002000611a        0x1 build/zoul/remote-revb/obj/antenna-sw.o
 .bss.crc_corr  0x000000002000611b        0x1 build/zoul/remote-revb/obj/cc2538-rf.o
 .bss.poll_mode
                0x000000002000611c        0x1 build/zoul/remote-revb/obj/cc2538-rf.o
 .bss.rf_flags  0x000000002000611d        0x1 build/zoul/remote-revb/obj/cc2538-rf.o
 .bss.rssi      0x000000002000611e        0x1 build/zoul/remote-revb/obj/cc2538-rf.o
 .bss.was_on    0x000000002000611f        0x1 build/zoul/remote-revb/obj/cc2538-rf.o
 .bss.max_pm    0x0000000020006120        0x1 build/zoul/remote-revb/obj/lpm.o
 .bss.initialized
                0x0000000020006121        0x1 build/zoul/remote-revb/obj/ctimer.o
 .bss.fevent    0x0000000020006122        0x1 build/zoul/remote-revb/obj/process.o
 .bss.lastevent
                0x0000000020006123        0x1 build/zoul/remote-revb/obj/process.o
 .bss.nevents   0x0000000020006124        0x1 build/zoul/remote-revb/obj/process.o
 .bss.poll_requested
                0x0000000020006125        0x1 build/zoul/remote-revb/obj/process.o
 .bss.buf.5382  0x0000000020006126       0x80 build/zoul/remote-revb/obj/serial-line.o
 .bss.overflow.5376
                0x00000000200061a6        0x1 build/zoul/remote-revb/obj/serial-line.o
 .bss.rxbuf_data
                0x00000000200061a7       0x80 build/zoul/remote-revb/obj/serial-line.o
 .bss.num_sensors
                0x0000000020006227        0x1 build/zoul/remote-revb/obj/sensors.o
 .bss.bufmem_memb_used
                0x0000000020006228        0x8 build/zoul/remote-revb/obj/queuebuf.o
 .bss.buframmem_memb_used
                0x0000000020006230        0x8 build/zoul/remote-revb/obj/queuebuf.o
 .bss.locked_map
                0x0000000020006238       0x10 build/zoul/remote-revb/obj/nbr-table.o
 .bss.neighbor_addr_mem_memb_used
                0x0000000020006248       0x10 build/zoul/remote-revb/obj/nbr-table.o
 .bss.used_map  0x0000000020006258       0x10 build/zoul/remote-revb/obj/nbr-table.o
 .bss.hdrlen    0x0000000020006268        0x1 build/zoul/remote-revb/obj/packetbuf.o
 .bss.initialized
                0x0000000020006269        0x1 build/zoul/remote-revb/obj/framer-802154.o
 .bss.mac_dsn   0x000000002000626a        0x1 build/zoul/remote-revb/obj/framer-802154.o
 .bss.initialized.6252
                0x000000002000626b        0x1 build/zoul/remote-revb/obj/csma-output.o
 .bss.metadata_memb_memb_used
                0x000000002000626c        0x8 build/zoul/remote-revb/obj/csma-output.o
 .bss.neighbor_memb_memb_used
                0x0000000020006274        0x2 build/zoul/remote-revb/obj/csma-output.o
 .bss.packet_memb_memb_used
                0x0000000020006276        0x8 build/zoul/remote-revb/obj/csma-output.o
 .bss.seqno.6253
                0x000000002000627e        0x1 build/zoul/remote-revb/obj/csma-output.o
 .bss.nodememb_memb_used
                0x000000002000627f       0x10 build/zoul/remote-revb/obj/uip-sr.o
 .bss.defaultroutermemb_memb_used
                0x000000002000628f        0x2 build/zoul/remote-revb/obj/uip-ds6-route.o
 .bss.iss       0x0000000020006291        0x4 build/zoul/remote-revb/obj/uip6.o
 .bss.uip_ext_bitmap
                0x0000000020006295        0x1 build/zoul/remote-revb/obj/uip6.o
                0x0000000020006295                uip_ext_bitmap
 .bss.uip_last_proto
                0x0000000020006296        0x1 build/zoul/remote-revb/obj/uip6.o
                0x0000000020006296                uip_last_proto
 .bss.nd6_opt_offset
                0x0000000020006297        0x1 build/zoul/remote-revb/obj/uip-nd6.o
 .bss.addr_contexts
                0x0000000020006298        0xa build/zoul/remote-revb/obj/sicslowpan.o
 .bss.curr_page
                0x00000000200062a2        0x1 build/zoul/remote-revb/obj/sicslowpan.o
 .bss.frag_buf  0x00000000200062a3      0x54c build/zoul/remote-revb/obj/sicslowpan.o
 .bss.packetbuf_hdr_len
                0x00000000200067ef        0x1 build/zoul/remote-revb/obj/sicslowpan.o
 .bss.uncomp_hdr_len
                0x00000000200067f0        0x1 build/zoul/remote-revb/obj/sicslowpan.o
 .bss.rpl_leaf_only
                0x00000000200067f1        0x1 build/zoul/remote-revb/obj/rpl.o
 .bss.initialized.6952
                0x00000000200067f2        0x1 build/zoul/remote-revb/obj/rpl-dag-root.o
 .bss.conns_memb_used
                0x00000000200067f3        0x8 build/zoul/remote-revb/obj/httpd-simple.o
 *(SORT_BY_ALIGNMENT(COMMON))
 *fill*         0x00000000200067fb        0x5 
 COMMON         0x0000000020006800       0x44 build/zoul/remote-revb/obj/energest.o
                0x0000000020006800                energest_total_time
                0x0000000020006828                energest_current_mode
                0x0000000020006830                energest_current_time
 COMMON         0x0000000020006844       0x20 build/zoul/remote-revb/obj/link-stats.o
                0x0000000020006844                periodic_timer
 COMMON         0x0000000020006864      0x174 build/zoul/remote-revb/obj/uip-ds6.o
                0x0000000020006864                uip_ds6_timer_ra
                0x000000002000686c                uip_ds6_if
                0x0000000020006964                uip_ds6_netif_addr_list_offset
                0x0000000020006965                uip_ds6_addr_size
                0x0000000020006968                uip_ds6_prefix_list
                0x00000000200069c8                uip_ds6_timer_periodic
 COMMON         0x00000000200069d8      0x7d0 build/zoul/remote-revb/obj/uip6.o
                0x00000000200069d8                uip_len
                0x00000000200069dc                uip_sappdata
                0x00000000200069e0                uip_acc32
                0x00000000200069e4                uip_lladdr
                0x00000000200069ec                uip_aligned_buf
                0x0000000020006eec                uip_flags
                0x0000000020006ef0                uip_udp_conn
                0x0000000020006ef4                uip_appdata
                0x0000000020006ef8                uip_conn
                0x0000000020006efc                uip_conns
                0x000000002000707c                uip_listenports
                0x00000000200070a4                uip_slen
                0x00000000200070a8                uip_udp_conns
 COMMON         0x00000000200071a8      0x160 build/zoul/remote-revb/obj/rpl-dag.o
                0x00000000200071a8                curr_instance
 COMMON         0x0000000020007308        0x4 /home/genius/gcc-arm-none-eabi-8-2018-q4-major/bin/../lib/gcc/arm-none-eabi/8.2.1/../../../../arm-none-eabi/lib/thumb/v7-m/nofp/libc.a(lib_a-reent.o)
                0x0000000020007308                errno
 COMMON         0x000000002000730c       0x21 /home/genius/gcc-arm-none-eabi-8-2018-q4-major/bin/../lib/gcc/arm-none-eabi/8.2.1/../../../../arm-none-eabi/lib/thumb/v7-m/nofp/libc.a(lib_a-lock.o)
                0x000000002000730c                __lock___atexit_recursive_mutex
                0x0000000020007310                __lock___arc4random_mutex
                0x0000000020007314                __lock___env_recursive_mutex
                0x0000000020007318                __lock___sinit_recursive_mutex
                0x000000002000731c                __lock___malloc_recursive_mutex
                0x0000000020007320                __lock___at_quick_exit_mutex
                0x0000000020007324                __lock___dd_hash_mutex
                0x0000000020007328                __lock___tz_mutex
                0x000000002000732c                __lock___sfp_recursive_mutex
 *fill*         0x000000002000732d        0x1 
 COMMON         0x000000002000732e       0x2a build/zoul/remote-revb/obj/packetbuf.o
                0x000000002000732e                packetbuf_addrs
                0x000000002000733e                packetbuf_attrs
 COMMON         0x0000000020007358        0x8 build/zoul/remote-revb/obj/linkaddr.o
                0x0000000020007358                linkaddr_node_addr
 COMMON         0x0000000020007360       0x10 build/zoul/remote-revb/obj/rpl.o
                0x0000000020007360                rpl_multicast_addr
 COMMON         0x0000000020007370        0x3 build/zoul/remote-revb/obj/zoul-sensors.o
                0x0000000020007370                sensors_flags
 COMMON         0x0000000020007373        0x3 build/zoul/remote-revb/obj/button-hal.o
                0x0000000020007373                button_hal_release_event
                0x0000000020007374                button_hal_periodic_event
                0x0000000020007375                button_hal_press_event
 COMMON         0x0000000020007376        0x1 build/zoul/remote-revb/obj/serial-line.o
                0x0000000020007376                serial_line_event_message
 COMMON         0x0000000020007377        0x1 build/zoul/remote-revb/obj/sensors.o
                0x0000000020007377                sensors_event
 COMMON         0x0000000020007378        0x1 build/zoul/remote-revb/obj/tcpip.o
                0x0000000020007378                tcpip_event
                0x0000000020007379                _ebss = .
                0x0000000020007379                _end = .
                0x0000000020007379                _stack = .

.stack          0x0000000020007380      0x800
 *(SORT_BY_ALIGNMENT(.stack))
 .stack         0x0000000020007380      0x800 build/zoul/remote-revb/obj/startup-gcc.o
                0x0000000020007b80                _stack_origin = .
                0x0000000020007b80                _heap = .
                0x0000000020008000                _eheap = (ORIGIN (FRSRAM) + LENGTH (FRSRAM))

.nrdata         0x0000000020000000        0x0
                0x0000000020000000                _nrdata = .
 *(SORT_BY_ALIGNMENT(.nrdata*))
                0x0000000020000000                _enrdata = .

.flashcca       0x000000000027ffd4       0x2c
 *(SORT_BY_ALIGNMENT(.flashcca))
 .flashcca      0x000000000027ffd4       0x2c build/zoul/remote-revb/obj/startup-gcc.o
                0x000000000027ffd4                flash_cca_lock_page
OUTPUT(build/zoul/remote-revb/web-db.elf elf32-littlearm)

.rel.dyn        0x0000000000280000        0x0
 .rel.iplt      0x0000000000280000        0x0 build/zoul/remote-revb/obj/startup-gcc.o

.comment        0x0000000000000000       0x75
 .comment       0x0000000000000000       0x75 build/zoul/remote-revb/obj/startup-gcc.o
                                         0x76 (size before relaxing)
 .comment       0x0000000000000075       0x76 build/zoul/remote-revb/obj/platform.o
 .comment       0x0000000000000075       0x76 build/zoul/remote-revb/obj/leds-arch.o
 .comment       0x0000000000000075       0x76 build/zoul/remote-revb/obj/leds.o
 .comment       0x0000000000000075       0x76 build/zoul/remote-revb/obj/board-buttons.o
 .comment       0x0000000000000075       0x76 build/zoul/remote-revb/obj/zoul-sensors.o
 .comment       0x0000000000000075       0x76 build/zoul/remote-revb/obj/board.o
 .comment       0x0000000000000075       0x76 build/zoul/remote-revb/obj/antenna-sw.o
 .comment       0x0000000000000075       0x76 build/zoul/remote-revb/obj/soc.o
 .comment       0x0000000000000075       0x76 build/zoul/remote-revb/obj/clock.o
 .comment       0x0000000000000075       0x76 build/zoul/remote-revb/obj/rtimer-arch.o
 .comment       0x0000000000000075       0x76 build/zoul/remote-revb/obj/uart.o
 .comment       0x0000000000000075       0x76 build/zoul/remote-revb/obj/watchdog.o
 .comment       0x0000000000000075       0x76 build/zoul/remote-revb/obj/nvic.o
 .comment       0x0000000000000075       0x76 build/zoul/remote-revb/obj/sys-ctrl.o
 .comment       0x0000000000000075       0x76 build/zoul/remote-revb/obj/gpio.o
 .comment       0x0000000000000075       0x76 build/zoul/remote-revb/obj/ioc.o
 .comment       0x0000000000000075       0x76 build/zoul/remote-revb/obj/adc.o
 .comment       0x0000000000000075       0x76 build/zoul/remote-revb/obj/crypto.o
 .comment       0x0000000000000075       0x76 build/zoul/remote-revb/obj/sha256.o
 .comment       0x0000000000000075       0x76 build/zoul/remote-revb/obj/gpio-hal-arch.o
 .comment       0x0000000000000075       0x76 build/zoul/remote-revb/obj/cc2538-rf.o
 .comment       0x0000000000000075       0x76 build/zoul/remote-revb/obj/udma.o
 .comment       0x0000000000000075       0x76 build/zoul/remote-revb/obj/lpm.o
 .comment       0x0000000000000075       0x76 build/zoul/remote-revb/obj/int-master.o
 .comment       0x0000000000000075       0x76 build/zoul/remote-revb/obj/pka.o
 .comment       0x0000000000000075       0x76 build/zoul/remote-revb/obj/dbg.o
 .comment       0x0000000000000075       0x76 build/zoul/remote-revb/obj/ieee-addr.o
 .comment       0x0000000000000075       0x76 build/zoul/remote-revb/obj/cc2538-temp-sensor.o
 .comment       0x0000000000000075       0x76 build/zoul/remote-revb/obj/vdd3-sensor.o
 .comment       0x0000000000000075       0x76 build/zoul/remote-revb/obj/contiki-main.o
 .comment       0x0000000000000075       0x76 build/zoul/remote-revb/obj/autostart.o
 .comment       0x0000000000000075       0x76 build/zoul/remote-revb/obj/stimer.o
 .comment       0x0000000000000075       0x76 build/zoul/remote-revb/obj/energest.o
 .comment       0x0000000000000075       0x76 build/zoul/remote-revb/obj/etimer.o
 .comment       0x0000000000000075       0x76 build/zoul/remote-revb/obj/log.o
 .comment       0x0000000000000075       0x76 build/zoul/remote-revb/obj/ctimer.o
 .comment       0x0000000000000075       0x76 build/zoul/remote-revb/obj/rtimer.o
 .comment       0x0000000000000075       0x76 build/zoul/remote-revb/obj/node-id.o
 .comment       0x0000000000000075       0x76 build/zoul/remote-revb/obj/process.o
 .comment       0x0000000000000075       0x76 build/zoul/remote-revb/obj/timer.o
 .comment       0x0000000000000075       0x76 build/zoul/remote-revb/obj/stack-check.o
 .comment       0x0000000000000075       0x76 build/zoul/remote-revb/obj/button-hal.o
 .comment       0x0000000000000075       0x76 build/zoul/remote-revb/obj/serial-line.o
 .comment       0x0000000000000075       0x76 build/zoul/remote-revb/obj/gpio-hal.o
 .comment       0x0000000000000075       0x76 build/zoul/remote-revb/obj/sensors.o
 .comment       0x0000000000000075       0x76 build/zoul/remote-revb/obj/list.o
 .comment       0x0000000000000075       0x76 build/zoul/remote-revb/obj/memb.o
 .comment       0x0000000000000075       0x76 build/zoul/remote-revb/obj/random.o
 .comment       0x0000000000000075       0x76 build/zoul/remote-revb/obj/ringbuf.o
 .comment       0x0000000000000075       0x76 build/zoul/remote-revb/obj/queuebuf.o
 .comment       0x0000000000000075       0x76 build/zoul/remote-revb/obj/nbr-table.o
 .comment       0x0000000000000075       0x76 build/zoul/remote-revb/obj/packetbuf.o
 .comment       0x0000000000000075       0x76 build/zoul/remote-revb/obj/netstack.o
 .comment       0x0000000000000075       0x76 build/zoul/remote-revb/obj/linkaddr.o
 .comment       0x0000000000000075       0x76 build/zoul/remote-revb/obj/link-stats.o
 .comment       0x0000000000000075       0x76 build/zoul/remote-revb/obj/mac-sequence.o
 .comment       0x0000000000000075       0x76 build/zoul/remote-revb/obj/mac.o
 .comment       0x0000000000000075       0x76 build/zoul/remote-revb/obj/framer-802154.o
 .comment       0x0000000000000075       0x76 build/zoul/remote-revb/obj/frame802154.o
 .comment       0x0000000000000075       0x76 build/zoul/remote-revb/obj/syscalls.o
 .comment       0x0000000000000075       0x76 build/zoul/remote-revb/obj/strformat.o
 .comment       0x0000000000000075       0x76 build/zoul/remote-revb/obj/printf.o
 .comment       0x0000000000000075       0x76 build/zoul/remote-revb/obj/sprintf.o
 .comment       0x0000000000000075       0x76 build/zoul/remote-revb/obj/snprintf.o
 .comment       0x0000000000000075       0x76 build/zoul/remote-revb/obj/putchar.o
 .comment       0x0000000000000075       0x76 build/zoul/remote-revb/obj/csma-security.o
 .comment       0x0000000000000075       0x76 build/zoul/remote-revb/obj/csma.o
 .comment       0x0000000000000075       0x76 build/zoul/remote-revb/obj/csma-output.o
 .comment       0x0000000000000075       0x76 build/zoul/remote-revb/obj/uipbuf.o
 .comment       0x0000000000000075       0x76 build/zoul/remote-revb/obj/uip-icmp6.o
 .comment       0x0000000000000075       0x76 build/zoul/remote-revb/obj/uip-sr.o
 .comment       0x0000000000000075       0x76 build/zoul/remote-revb/obj/uip-ds6.o
 .comment       0x0000000000000075       0x76 build/zoul/remote-revb/obj/uiplib.o
 .comment       0x0000000000000075       0x76 build/zoul/remote-revb/obj/uip-ds6-route.o
 .comment       0x0000000000000075       0x76 build/zoul/remote-revb/obj/psock.o
 .comment       0x0000000000000075       0x76 build/zoul/remote-revb/obj/tcpip.o
 .comment       0x0000000000000075       0x76 build/zoul/remote-revb/obj/uip6.o
 .comment       0x0000000000000075       0x76 build/zoul/remote-revb/obj/uip-ds6-nbr.o
 .comment       0x0000000000000075       0x76 build/zoul/remote-revb/obj/uip-nd6.o
 .comment       0x0000000000000075       0x76 build/zoul/remote-revb/obj/sicslowpan.o
 .comment       0x0000000000000075       0x76 build/zoul/remote-revb/obj/rpl-icmp6.o
 .comment       0x0000000000000075       0x76 build/zoul/remote-revb/obj/rpl-neighbor.o
 .comment       0x0000000000000075       0x76 build/zoul/remote-revb/obj/rpl-timers.o
 .comment       0x0000000000000075       0x76 build/zoul/remote-revb/obj/rpl-ext-header.o
 .comment       0x0000000000000075       0x76 build/zoul/remote-revb/obj/rpl.o
 .comment       0x0000000000000075       0x76 build/zoul/remote-revb/obj/rpl-nbr-policy.o
 .comment       0x0000000000000075       0x76 build/zoul/remote-revb/obj/rpl-mrhof.o
 .comment       0x0000000000000075       0x76 build/zoul/remote-revb/obj/rpl-dag.o
 .comment       0x0000000000000075       0x76 build/zoul/remote-revb/obj/rpl-dag-root.o
 .comment       0x0000000000000075       0x76 web-db.o
 .comment       0x0000000000000075       0x76 build/zoul/remote-revb/obj/myencrypt.o
 .comment       0x0000000000000075       0x76 build/zoul/remote-revb/obj/httpd-simple.o

.ARM.attributes
                0x0000000000000000       0x2b
 .ARM.attributes
                0x0000000000000000       0x2d build/zoul/remote-revb/obj/startup-gcc.o
 .ARM.attributes
                0x000000000000002d       0x2d build/zoul/remote-revb/obj/platform.o
 .ARM.attributes
                0x000000000000005a       0x33 build/zoul/remote-revb/obj/leds-arch.o
 .ARM.attributes
                0x000000000000008d       0x2d build/zoul/remote-revb/obj/leds.o
 .ARM.attributes
                0x00000000000000ba       0x33 build/zoul/remote-revb/obj/board-buttons.o
 .ARM.attributes
                0x00000000000000ed       0x33 build/zoul/remote-revb/obj/zoul-sensors.o
 .ARM.attributes
                0x0000000000000120       0x2d build/zoul/remote-revb/obj/board.o
 .ARM.attributes
                0x000000000000014d       0x2d build/zoul/remote-revb/obj/antenna-sw.o
 .ARM.attributes
                0x000000000000017a       0x2d build/zoul/remote-revb/obj/soc.o
 .ARM.attributes
                0x00000000000001a7       0x2d build/zoul/remote-revb/obj/clock.o
 .ARM.attributes
                0x00000000000001d4       0x2d build/zoul/remote-revb/obj/rtimer-arch.o
 .ARM.attributes
                0x0000000000000201       0x2d build/zoul/remote-revb/obj/uart.o
 .ARM.attributes
                0x000000000000022e       0x2d build/zoul/remote-revb/obj/watchdog.o
 .ARM.attributes
                0x000000000000025b       0x2d build/zoul/remote-revb/obj/nvic.o
 .ARM.attributes
                0x0000000000000288       0x2d build/zoul/remote-revb/obj/sys-ctrl.o
 .ARM.attributes
                0x00000000000002b5       0x2d build/zoul/remote-revb/obj/gpio.o
 .ARM.attributes
                0x00000000000002e2       0x2d build/zoul/remote-revb/obj/ioc.o
 .ARM.attributes
                0x000000000000030f       0x2d build/zoul/remote-revb/obj/adc.o
 .ARM.attributes
                0x000000000000033c       0x2d build/zoul/remote-revb/obj/crypto.o
 .ARM.attributes
                0x0000000000000369       0x2d build/zoul/remote-revb/obj/sha256.o
 .ARM.attributes
                0x0000000000000396       0x2d build/zoul/remote-revb/obj/gpio-hal-arch.o
 .ARM.attributes
                0x00000000000003c3       0x2d build/zoul/remote-revb/obj/cc2538-rf.o
 .ARM.attributes
                0x00000000000003f0       0x2d build/zoul/remote-revb/obj/udma.o
 .ARM.attributes
                0x000000000000041d       0x2d build/zoul/remote-revb/obj/lpm.o
 .ARM.attributes
                0x000000000000044a       0x2d build/zoul/remote-revb/obj/int-master.o
 .ARM.attributes
                0x0000000000000477       0x2d build/zoul/remote-revb/obj/pka.o
 .ARM.attributes
                0x00000000000004a4       0x2d build/zoul/remote-revb/obj/dbg.o
 .ARM.attributes
                0x00000000000004d1       0x2d build/zoul/remote-revb/obj/ieee-addr.o
 .ARM.attributes
                0x00000000000004fe       0x2d build/zoul/remote-revb/obj/cc2538-temp-sensor.o
 .ARM.attributes
                0x000000000000052b       0x2d build/zoul/remote-revb/obj/vdd3-sensor.o
 .ARM.attributes
                0x0000000000000558       0x2d build/zoul/remote-revb/obj/contiki-main.o
 .ARM.attributes
                0x0000000000000585       0x2d build/zoul/remote-revb/obj/autostart.o
 .ARM.attributes
                0x00000000000005b2       0x2d build/zoul/remote-revb/obj/stimer.o
 .ARM.attributes
                0x00000000000005df       0x2d build/zoul/remote-revb/obj/energest.o
 .ARM.attributes
                0x000000000000060c       0x2d build/zoul/remote-revb/obj/etimer.o
 .ARM.attributes
                0x0000000000000639       0x2d build/zoul/remote-revb/obj/log.o
 .ARM.attributes
                0x0000000000000666       0x2d build/zoul/remote-revb/obj/ctimer.o
 .ARM.attributes
                0x0000000000000693       0x2d build/zoul/remote-revb/obj/rtimer.o
 .ARM.attributes
                0x00000000000006c0       0x2d build/zoul/remote-revb/obj/node-id.o
 .ARM.attributes
                0x00000000000006ed       0x2d build/zoul/remote-revb/obj/process.o
 .ARM.attributes
                0x000000000000071a       0x2d build/zoul/remote-revb/obj/timer.o
 .ARM.attributes
                0x0000000000000747       0x2d build/zoul/remote-revb/obj/stack-check.o
 .ARM.attributes
                0x0000000000000774       0x2d build/zoul/remote-revb/obj/button-hal.o
 .ARM.attributes
                0x00000000000007a1       0x2d build/zoul/remote-revb/obj/serial-line.o
 .ARM.attributes
                0x00000000000007ce       0x2d build/zoul/remote-revb/obj/gpio-hal.o
 .ARM.attributes
                0x00000000000007fb       0x2d build/zoul/remote-revb/obj/sensors.o
 .ARM.attributes
                0x0000000000000828       0x2d build/zoul/remote-revb/obj/list.o
 .ARM.attributes
                0x0000000000000855       0x2d build/zoul/remote-revb/obj/memb.o
 .ARM.attributes
                0x0000000000000882       0x2d build/zoul/remote-revb/obj/random.o
 .ARM.attributes
                0x00000000000008af       0x2d build/zoul/remote-revb/obj/ringbuf.o
 .ARM.attributes
                0x00000000000008dc       0x2d build/zoul/remote-revb/obj/queuebuf.o
 .ARM.attributes
                0x0000000000000909       0x2d build/zoul/remote-revb/obj/nbr-table.o
 .ARM.attributes
                0x0000000000000936       0x2d build/zoul/remote-revb/obj/packetbuf.o
 .ARM.attributes
                0x0000000000000963       0x2d build/zoul/remote-revb/obj/netstack.o
 .ARM.attributes
                0x0000000000000990       0x2d build/zoul/remote-revb/obj/linkaddr.o
 .ARM.attributes
                0x00000000000009bd       0x2d build/zoul/remote-revb/obj/link-stats.o
 .ARM.attributes
                0x00000000000009ea       0x2d build/zoul/remote-revb/obj/mac-sequence.o
 .ARM.attributes
                0x0000000000000a17       0x2d build/zoul/remote-revb/obj/mac.o
 .ARM.attributes
                0x0000000000000a44       0x2d build/zoul/remote-revb/obj/framer-802154.o
 .ARM.attributes
                0x0000000000000a71       0x2d build/zoul/remote-revb/obj/frame802154.o
 .ARM.attributes
                0x0000000000000a9e       0x2d build/zoul/remote-revb/obj/syscalls.o
 .ARM.attributes
                0x0000000000000acb       0x2d build/zoul/remote-revb/obj/strformat.o
 .ARM.attributes
                0x0000000000000af8       0x2d build/zoul/remote-revb/obj/printf.o
 .ARM.attributes
                0x0000000000000b25       0x2d build/zoul/remote-revb/obj/sprintf.o
 .ARM.attributes
                0x0000000000000b52       0x2d build/zoul/remote-revb/obj/snprintf.o
 .ARM.attributes
                0x0000000000000b7f       0x2d build/zoul/remote-revb/obj/putchar.o
 .ARM.attributes
                0x0000000000000bac       0x2d build/zoul/remote-revb/obj/csma-security.o
 .ARM.attributes
                0x0000000000000bd9       0x2d build/zoul/remote-revb/obj/csma.o
 .ARM.attributes
                0x0000000000000c06       0x2d build/zoul/remote-revb/obj/csma-output.o
 .ARM.attributes
                0x0000000000000c33       0x2d build/zoul/remote-revb/obj/uipbuf.o
 .ARM.attributes
                0x0000000000000c60       0x2d build/zoul/remote-revb/obj/uip-icmp6.o
 .ARM.attributes
                0x0000000000000c8d       0x2d build/zoul/remote-revb/obj/uip-sr.o
 .ARM.attributes
                0x0000000000000cba       0x2d build/zoul/remote-revb/obj/uip-ds6.o
 .ARM.attributes
                0x0000000000000ce7       0x2d build/zoul/remote-revb/obj/uiplib.o
 .ARM.attributes
                0x0000000000000d14       0x2d build/zoul/remote-revb/obj/uip-ds6-route.o
 .ARM.attributes
                0x0000000000000d41       0x2d build/zoul/remote-revb/obj/psock.o
 .ARM.attributes
                0x0000000000000d6e       0x2d build/zoul/remote-revb/obj/tcpip.o
 .ARM.attributes
                0x0000000000000d9b       0x2d build/zoul/remote-revb/obj/uip6.o
 .ARM.attributes
                0x0000000000000dc8       0x2d build/zoul/remote-revb/obj/uip-ds6-nbr.o
 .ARM.attributes
                0x0000000000000df5       0x2d build/zoul/remote-revb/obj/uip-nd6.o
 .ARM.attributes
                0x0000000000000e22       0x2d build/zoul/remote-revb/obj/sicslowpan.o
 .ARM.attributes
                0x0000000000000e4f       0x2d build/zoul/remote-revb/obj/rpl-icmp6.o
 .ARM.attributes
                0x0000000000000e7c       0x2d build/zoul/remote-revb/obj/rpl-neighbor.o
 .ARM.attributes
                0x0000000000000ea9       0x2d build/zoul/remote-revb/obj/rpl-timers.o
 .ARM.attributes
                0x0000000000000ed6       0x2d build/zoul/remote-revb/obj/rpl-ext-header.o
 .ARM.attributes
                0x0000000000000f03       0x2d build/zoul/remote-revb/obj/rpl.o
 .ARM.attributes
                0x0000000000000f30       0x2d build/zoul/remote-revb/obj/rpl-nbr-policy.o
 .ARM.attributes
                0x0000000000000f5d       0x2d build/zoul/remote-revb/obj/rpl-mrhof.o
 .ARM.attributes
                0x0000000000000f8a       0x2d build/zoul/remote-revb/obj/rpl-dag.o
 .ARM.attributes
                0x0000000000000fb7       0x2d build/zoul/remote-revb/obj/rpl-dag-root.o
 .ARM.attributes
                0x0000000000000fe4       0x2d web-db.o
 .ARM.attributes
                0x0000000000001011       0x2d build/zoul/remote-revb/obj/myencrypt.o
 .ARM.attributes
                0x000000000000103e       0x2d build/zoul/remote-revb/obj/httpd-simple.o
 .ARM.attributes
                0x000000000000106b       0x1d /home/genius/gcc-arm-none-eabi-8-2018-q4-major/bin/../lib/gcc/arm-none-eabi/8.2.1/thumb/v7-m/nofp/libgcc.a(_aeabi_uldivmod.o)
 .ARM.attributes
                0x0000000000001088       0x2d /home/genius/gcc-arm-none-eabi-8-2018-q4-major/bin/../lib/gcc/arm-none-eabi/8.2.1/thumb/v7-m/nofp/libgcc.a(_udivmoddi4.o)
 .ARM.attributes
                0x00000000000010b5       0x1d /home/genius/gcc-arm-none-eabi-8-2018-q4-major/bin/../lib/gcc/arm-none-eabi/8.2.1/thumb/v7-m/nofp/libgcc.a(_dvmd_tls.o)
 .ARM.attributes
                0x00000000000010d2       0x2d /home/genius/gcc-arm-none-eabi-8-2018-q4-major/bin/../lib/gcc/arm-none-eabi/8.2.1/../../../../arm-none-eabi/lib/thumb/v7-m/nofp/libc.a(lib_a-malloc.o)
 .ARM.attributes
                0x00000000000010ff       0x2d /home/genius/gcc-arm-none-eabi-8-2018-q4-major/bin/../lib/gcc/arm-none-eabi/8.2.1/../../../../arm-none-eabi/lib/thumb/v7-m/nofp/libc.a(lib_a-mallocr.o)
 .ARM.attributes
                0x000000000000112c       0x2d /home/genius/gcc-arm-none-eabi-8-2018-q4-major/bin/../lib/gcc/arm-none-eabi/8.2.1/../../../../arm-none-eabi/lib/thumb/v7-m/nofp/libc.a(lib_a-memcmp.o)
 .ARM.attributes
                0x0000000000001159       0x1b /home/genius/gcc-arm-none-eabi-8-2018-q4-major/bin/../lib/gcc/arm-none-eabi/8.2.1/../../../../arm-none-eabi/lib/thumb/v7-m/nofp/libc.a(lib_a-memcpy.o)
 .ARM.attributes
                0x0000000000001174       0x2d /home/genius/gcc-arm-none-eabi-8-2018-q4-major/bin/../lib/gcc/arm-none-eabi/8.2.1/../../../../arm-none-eabi/lib/thumb/v7-m/nofp/libc.a(lib_a-memmove.o)
 .ARM.attributes
                0x00000000000011a1       0x2d /home/genius/gcc-arm-none-eabi-8-2018-q4-major/bin/../lib/gcc/arm-none-eabi/8.2.1/../../../../arm-none-eabi/lib/thumb/v7-m/nofp/libc.a(lib_a-memset.o)
 .ARM.attributes
                0x00000000000011ce       0x2d /home/genius/gcc-arm-none-eabi-8-2018-q4-major/bin/../lib/gcc/arm-none-eabi/8.2.1/../../../../arm-none-eabi/lib/thumb/v7-m/nofp/libc.a(lib_a-mlock.o)
 .ARM.attributes
                0x00000000000011fb       0x2d /home/genius/gcc-arm-none-eabi-8-2018-q4-major/bin/../lib/gcc/arm-none-eabi/8.2.1/../../../../arm-none-eabi/lib/thumb/v7-m/nofp/libc.a(lib_a-rand.o)
 .ARM.attributes
                0x0000000000001228       0x2d /home/genius/gcc-arm-none-eabi-8-2018-q4-major/bin/../lib/gcc/arm-none-eabi/8.2.1/../../../../arm-none-eabi/lib/thumb/v7-m/nofp/libc.a(lib_a-reent.o)
 .ARM.attributes
                0x0000000000001255       0x2d /home/genius/gcc-arm-none-eabi-8-2018-q4-major/bin/../lib/gcc/arm-none-eabi/8.2.1/../../../../arm-none-eabi/lib/thumb/v7-m/nofp/libc.a(lib_a-sbrkr.o)
 .ARM.attributes
                0x0000000000001282       0x2d /home/genius/gcc-arm-none-eabi-8-2018-q4-major/bin/../lib/gcc/arm-none-eabi/8.2.1/../../../../arm-none-eabi/lib/thumb/v7-m/nofp/libc.a(lib_a-strlen-stub.o)
 .ARM.attributes
                0x00000000000012af       0x2d /home/genius/gcc-arm-none-eabi-8-2018-q4-major/bin/../lib/gcc/arm-none-eabi/8.2.1/../../../../arm-none-eabi/lib/thumb/v7-m/nofp/libc.a(lib_a-strncmp.o)
 .ARM.attributes
                0x00000000000012dc       0x2d /home/genius/gcc-arm-none-eabi-8-2018-q4-major/bin/../lib/gcc/arm-none-eabi/8.2.1/../../../../arm-none-eabi/lib/thumb/v7-m/nofp/libc.a(lib_a-strncpy.o)
 .ARM.attributes
                0x0000000000001309       0x2d /home/genius/gcc-arm-none-eabi-8-2018-q4-major/bin/../lib/gcc/arm-none-eabi/8.2.1/../../../../arm-none-eabi/lib/thumb/v7-m/nofp/libc.a(lib_a-freer.o)
 .ARM.attributes
                0x0000000000001336       0x2d /home/genius/gcc-arm-none-eabi-8-2018-q4-major/bin/../lib/gcc/arm-none-eabi/8.2.1/../../../../arm-none-eabi/lib/thumb/v7-m/nofp/libc.a(lib_a-impure.o)
 .ARM.attributes
                0x0000000000001363       0x2d /home/genius/gcc-arm-none-eabi-8-2018-q4-major/bin/../lib/gcc/arm-none-eabi/8.2.1/../../../../arm-none-eabi/lib/thumb/v7-m/nofp/libc.a(lib_a-lock.o)

.debug_frame    0x0000000000000000      0x454
 .debug_frame   0x0000000000000000       0x2c /home/genius/gcc-arm-none-eabi-8-2018-q4-major/bin/../lib/gcc/arm-none-eabi/8.2.1/thumb/v7-m/nofp/libgcc.a(_aeabi_uldivmod.o)
 .debug_frame   0x000000000000002c       0x34 /home/genius/gcc-arm-none-eabi-8-2018-q4-major/bin/../lib/gcc/arm-none-eabi/8.2.1/thumb/v7-m/nofp/libgcc.a(_udivmoddi4.o)
 .debug_frame   0x0000000000000060       0x30 /home/genius/gcc-arm-none-eabi-8-2018-q4-major/bin/../lib/gcc/arm-none-eabi/8.2.1/../../../../arm-none-eabi/lib/thumb/v7-m/nofp/libc.a(lib_a-malloc.o)
 .debug_frame   0x0000000000000090       0x4c /home/genius/gcc-arm-none-eabi-8-2018-q4-major/bin/../lib/gcc/arm-none-eabi/8.2.1/../../../../arm-none-eabi/lib/thumb/v7-m/nofp/libc.a(lib_a-mallocr.o)
 .debug_frame   0x00000000000000dc       0x38 /home/genius/gcc-arm-none-eabi-8-2018-q4-major/bin/../lib/gcc/arm-none-eabi/8.2.1/../../../../arm-none-eabi/lib/thumb/v7-m/nofp/libc.a(lib_a-memcmp.o)
 .debug_frame   0x0000000000000114       0x40 /home/genius/gcc-arm-none-eabi-8-2018-q4-major/bin/../lib/gcc/arm-none-eabi/8.2.1/../../../../arm-none-eabi/lib/thumb/v7-m/nofp/libc.a(lib_a-memmove.o)
 .debug_frame   0x0000000000000154       0x38 /home/genius/gcc-arm-none-eabi-8-2018-q4-major/bin/../lib/gcc/arm-none-eabi/8.2.1/../../../../arm-none-eabi/lib/thumb/v7-m/nofp/libc.a(lib_a-memset.o)
 .debug_frame   0x000000000000018c       0x30 /home/genius/gcc-arm-none-eabi-8-2018-q4-major/bin/../lib/gcc/arm-none-eabi/8.2.1/../../../../arm-none-eabi/lib/thumb/v7-m/nofp/libc.a(lib_a-mlock.o)
 .debug_frame   0x00000000000001bc       0x3c /home/genius/gcc-arm-none-eabi-8-2018-q4-major/bin/../lib/gcc/arm-none-eabi/8.2.1/../../../../arm-none-eabi/lib/thumb/v7-m/nofp/libc.a(lib_a-rand.o)
 .debug_frame   0x00000000000001f8       0x60 /home/genius/gcc-arm-none-eabi-8-2018-q4-major/bin/../lib/gcc/arm-none-eabi/8.2.1/../../../../arm-none-eabi/lib/thumb/v7-m/nofp/libc.a(lib_a-reent.o)
 .debug_frame   0x0000000000000258       0x2c /home/genius/gcc-arm-none-eabi-8-2018-q4-major/bin/../lib/gcc/arm-none-eabi/8.2.1/../../../../arm-none-eabi/lib/thumb/v7-m/nofp/libc.a(lib_a-sbrkr.o)
 .debug_frame   0x0000000000000284       0x20 /home/genius/gcc-arm-none-eabi-8-2018-q4-major/bin/../lib/gcc/arm-none-eabi/8.2.1/../../../../arm-none-eabi/lib/thumb/v7-m/nofp/libc.a(lib_a-strlen-stub.o)
 .debug_frame   0x00000000000002a4       0x48 /home/genius/gcc-arm-none-eabi-8-2018-q4-major/bin/../lib/gcc/arm-none-eabi/8.2.1/../../../../arm-none-eabi/lib/thumb/v7-m/nofp/libc.a(lib_a-strncmp.o)
 .debug_frame   0x00000000000002ec       0x38 /home/genius/gcc-arm-none-eabi-8-2018-q4-major/bin/../lib/gcc/arm-none-eabi/8.2.1/../../../../arm-none-eabi/lib/thumb/v7-m/nofp/libc.a(lib_a-strncpy.o)
 .debug_frame   0x0000000000000324       0x80 /home/genius/gcc-arm-none-eabi-8-2018-q4-major/bin/../lib/gcc/arm-none-eabi/8.2.1/../../../../arm-none-eabi/lib/thumb/v7-m/nofp/libc.a(lib_a-freer.o)
 .debug_frame   0x00000000000003a4       0xb0 /home/genius/gcc-arm-none-eabi-8-2018-q4-major/bin/../lib/gcc/arm-none-eabi/8.2.1/../../../../arm-none-eabi/lib/thumb/v7-m/nofp/libc.a(lib_a-lock.o)

Cross Reference Table

Symbol                                            File
SHA_256                                           web-db.o
__addsf3                                          /home/genius/gcc-arm-none-eabi-8-2018-q4-major/bin/../lib/gcc/arm-none-eabi/8.2.1/thumb/v7-m/nofp/libgcc.a(_arm_addsubsf3.o)
__aeabi_f2uiz                                     /home/genius/gcc-arm-none-eabi-8-2018-q4-major/bin/../lib/gcc/arm-none-eabi/8.2.1/thumb/v7-m/nofp/libgcc.a(_arm_fixunssfsi.o)
                                                  build/zoul/remote-revb/obj/power-mgmt.o
__aeabi_fadd                                      /home/genius/gcc-arm-none-eabi-8-2018-q4-major/bin/../lib/gcc/arm-none-eabi/8.2.1/thumb/v7-m/nofp/libgcc.a(_arm_addsubsf3.o)
__aeabi_fdiv                                      /home/genius/gcc-arm-none-eabi-8-2018-q4-major/bin/../lib/gcc/arm-none-eabi/8.2.1/thumb/v7-m/nofp/libgcc.a(_arm_muldivsf3.o)
                                                  build/zoul/remote-revb/obj/power-mgmt.o
__aeabi_fmul                                      /home/genius/gcc-arm-none-eabi-8-2018-q4-major/bin/../lib/gcc/arm-none-eabi/8.2.1/thumb/v7-m/nofp/libgcc.a(_arm_muldivsf3.o)
                                                  build/zoul/remote-revb/obj/power-mgmt.o
__aeabi_frsub                                     /home/genius/gcc-arm-none-eabi-8-2018-q4-major/bin/../lib/gcc/arm-none-eabi/8.2.1/thumb/v7-m/nofp/libgcc.a(_arm_addsubsf3.o)
__aeabi_fsub                                      /home/genius/gcc-arm-none-eabi-8-2018-q4-major/bin/../lib/gcc/arm-none-eabi/8.2.1/thumb/v7-m/nofp/libgcc.a(_arm_addsubsf3.o)
                                                  build/zoul/remote-revb/obj/power-mgmt.o
__aeabi_i2f                                       /home/genius/gcc-arm-none-eabi-8-2018-q4-major/bin/../lib/gcc/arm-none-eabi/8.2.1/thumb/v7-m/nofp/libgcc.a(_arm_addsubsf3.o)
                                                  build/zoul/remote-revb/obj/power-mgmt.o
__aeabi_idiv0                                     /home/genius/gcc-arm-none-eabi-8-2018-q4-major/bin/../lib/gcc/arm-none-eabi/8.2.1/thumb/v7-m/nofp/libgcc.a(_dvmd_tls.o)
__aeabi_l2f                                       /home/genius/gcc-arm-none-eabi-8-2018-q4-major/bin/../lib/gcc/arm-none-eabi/8.2.1/thumb/v7-m/nofp/libgcc.a(_arm_addsubsf3.o)
__aeabi_ldiv0                                     /home/genius/gcc-arm-none-eabi-8-2018-q4-major/bin/../lib/gcc/arm-none-eabi/8.2.1/thumb/v7-m/nofp/libgcc.a(_dvmd_tls.o)
                                                  /home/genius/gcc-arm-none-eabi-8-2018-q4-major/bin/../lib/gcc/arm-none-eabi/8.2.1/thumb/v7-m/nofp/libgcc.a(_aeabi_uldivmod.o)
                                                  /home/genius/gcc-arm-none-eabi-8-2018-q4-major/bin/../lib/gcc/arm-none-eabi/8.2.1/thumb/v7-m/nofp/libgcc.a(_aeabi_ldivmod.o)
__aeabi_ldivmod                                   /home/genius/gcc-arm-none-eabi-8-2018-q4-major/bin/../lib/gcc/arm-none-eabi/8.2.1/thumb/v7-m/nofp/libgcc.a(_aeabi_ldivmod.o)
                                                  build/zoul/remote-revb/obj/spi-arch.o
                                                  build/zoul/remote-revb/obj/spi-legacy.o
__aeabi_ui2f                                      /home/genius/gcc-arm-none-eabi-8-2018-q4-major/bin/../lib/gcc/arm-none-eabi/8.2.1/thumb/v7-m/nofp/libgcc.a(_arm_addsubsf3.o)
__aeabi_ul2f                                      /home/genius/gcc-arm-none-eabi-8-2018-q4-major/bin/../lib/gcc/arm-none-eabi/8.2.1/thumb/v7-m/nofp/libgcc.a(_arm_addsubsf3.o)
__aeabi_uldivmod                                  /home/genius/gcc-arm-none-eabi-8-2018-q4-major/bin/../lib/gcc/arm-none-eabi/8.2.1/thumb/v7-m/nofp/libgcc.a(_aeabi_uldivmod.o)
                                                  build/zoul/remote-revb/obj/strformat.o
                                                  build/zoul/remote-revb/obj/ff.o
                                                  build/zoul/remote-revb/obj/cc2538-rf.o
                                                  build/zoul/remote-revb/obj/spi-arch.o
                                                  build/zoul/remote-revb/obj/spi-legacy.o
__divsf3                                          /home/genius/gcc-arm-none-eabi-8-2018-q4-major/bin/../lib/gcc/arm-none-eabi/8.2.1/thumb/v7-m/nofp/libgcc.a(_arm_muldivsf3.o)
__fixunssfsi                                      /home/genius/gcc-arm-none-eabi-8-2018-q4-major/bin/../lib/gcc/arm-none-eabi/8.2.1/thumb/v7-m/nofp/libgcc.a(_arm_fixunssfsi.o)
__floatdisf                                       /home/genius/gcc-arm-none-eabi-8-2018-q4-major/bin/../lib/gcc/arm-none-eabi/8.2.1/thumb/v7-m/nofp/libgcc.a(_arm_addsubsf3.o)
__floatsisf                                       /home/genius/gcc-arm-none-eabi-8-2018-q4-major/bin/../lib/gcc/arm-none-eabi/8.2.1/thumb/v7-m/nofp/libgcc.a(_arm_addsubsf3.o)
__floatundisf                                     /home/genius/gcc-arm-none-eabi-8-2018-q4-major/bin/../lib/gcc/arm-none-eabi/8.2.1/thumb/v7-m/nofp/libgcc.a(_arm_addsubsf3.o)
__floatunsisf                                     /home/genius/gcc-arm-none-eabi-8-2018-q4-major/bin/../lib/gcc/arm-none-eabi/8.2.1/thumb/v7-m/nofp/libgcc.a(_arm_addsubsf3.o)
__lock___arc4random_mutex                         /home/genius/gcc-arm-none-eabi-8-2018-q4-major/bin/../lib/gcc/arm-none-eabi/8.2.1/../../../../arm-none-eabi/lib/thumb/v7-m/nofp/libc.a(lib_a-lock.o)
__lock___at_quick_exit_mutex                      /home/genius/gcc-arm-none-eabi-8-2018-q4-major/bin/../lib/gcc/arm-none-eabi/8.2.1/../../../../arm-none-eabi/lib/thumb/v7-m/nofp/libc.a(lib_a-lock.o)
__lock___atexit_recursive_mutex                   /home/genius/gcc-arm-none-eabi-8-2018-q4-major/bin/../lib/gcc/arm-none-eabi/8.2.1/../../../../arm-none-eabi/lib/thumb/v7-m/nofp/libc.a(lib_a-lock.o)
__lock___dd_hash_mutex                            /home/genius/gcc-arm-none-eabi-8-2018-q4-major/bin/../lib/gcc/arm-none-eabi/8.2.1/../../../../arm-none-eabi/lib/thumb/v7-m/nofp/libc.a(lib_a-lock.o)
__lock___env_recursive_mutex                      /home/genius/gcc-arm-none-eabi-8-2018-q4-major/bin/../lib/gcc/arm-none-eabi/8.2.1/../../../../arm-none-eabi/lib/thumb/v7-m/nofp/libc.a(lib_a-lock.o)
__lock___malloc_recursive_mutex                   /home/genius/gcc-arm-none-eabi-8-2018-q4-major/bin/../lib/gcc/arm-none-eabi/8.2.1/../../../../arm-none-eabi/lib/thumb/v7-m/nofp/libc.a(lib_a-lock.o)
                                                  /home/genius/gcc-arm-none-eabi-8-2018-q4-major/bin/../lib/gcc/arm-none-eabi/8.2.1/../../../../arm-none-eabi/lib/thumb/v7-m/nofp/libc.a(lib_a-mlock.o)
__lock___sfp_recursive_mutex                      /home/genius/gcc-arm-none-eabi-8-2018-q4-major/bin/../lib/gcc/arm-none-eabi/8.2.1/../../../../arm-none-eabi/lib/thumb/v7-m/nofp/libc.a(lib_a-lock.o)
__lock___sinit_recursive_mutex                    /home/genius/gcc-arm-none-eabi-8-2018-q4-major/bin/../lib/gcc/arm-none-eabi/8.2.1/../../../../arm-none-eabi/lib/thumb/v7-m/nofp/libc.a(lib_a-lock.o)
__lock___tz_mutex                                 /home/genius/gcc-arm-none-eabi-8-2018-q4-major/bin/../lib/gcc/arm-none-eabi/8.2.1/../../../../arm-none-eabi/lib/thumb/v7-m/nofp/libc.a(lib_a-lock.o)
__malloc_av_                                      /home/genius/gcc-arm-none-eabi-8-2018-q4-major/bin/../lib/gcc/arm-none-eabi/8.2.1/../../../../arm-none-eabi/lib/thumb/v7-m/nofp/libc.a(lib_a-mallocr.o)
                                                  /home/genius/gcc-arm-none-eabi-8-2018-q4-major/bin/../lib/gcc/arm-none-eabi/8.2.1/../../../../arm-none-eabi/lib/thumb/v7-m/nofp/libc.a(lib_a-freer.o)
__malloc_current_mallinfo                         /home/genius/gcc-arm-none-eabi-8-2018-q4-major/bin/../lib/gcc/arm-none-eabi/8.2.1/../../../../arm-none-eabi/lib/thumb/v7-m/nofp/libc.a(lib_a-mallocr.o)
                                                  /home/genius/gcc-arm-none-eabi-8-2018-q4-major/bin/../lib/gcc/arm-none-eabi/8.2.1/../../../../arm-none-eabi/lib/thumb/v7-m/nofp/libc.a(lib_a-freer.o)
__malloc_lock                                     /home/genius/gcc-arm-none-eabi-8-2018-q4-major/bin/../lib/gcc/arm-none-eabi/8.2.1/../../../../arm-none-eabi/lib/thumb/v7-m/nofp/libc.a(lib_a-mlock.o)
                                                  /home/genius/gcc-arm-none-eabi-8-2018-q4-major/bin/../lib/gcc/arm-none-eabi/8.2.1/../../../../arm-none-eabi/lib/thumb/v7-m/nofp/libc.a(lib_a-freer.o)
                                                  /home/genius/gcc-arm-none-eabi-8-2018-q4-major/bin/../lib/gcc/arm-none-eabi/8.2.1/../../../../arm-none-eabi/lib/thumb/v7-m/nofp/libc.a(lib_a-mallocr.o)
__malloc_max_sbrked_mem                           /home/genius/gcc-arm-none-eabi-8-2018-q4-major/bin/../lib/gcc/arm-none-eabi/8.2.1/../../../../arm-none-eabi/lib/thumb/v7-m/nofp/libc.a(lib_a-mallocr.o)
__malloc_max_total_mem                            /home/genius/gcc-arm-none-eabi-8-2018-q4-major/bin/../lib/gcc/arm-none-eabi/8.2.1/../../../../arm-none-eabi/lib/thumb/v7-m/nofp/libc.a(lib_a-mallocr.o)
__malloc_sbrk_base                                /home/genius/gcc-arm-none-eabi-8-2018-q4-major/bin/../lib/gcc/arm-none-eabi/8.2.1/../../../../arm-none-eabi/lib/thumb/v7-m/nofp/libc.a(lib_a-mallocr.o)
                                                  /home/genius/gcc-arm-none-eabi-8-2018-q4-major/bin/../lib/gcc/arm-none-eabi/8.2.1/../../../../arm-none-eabi/lib/thumb/v7-m/nofp/libc.a(lib_a-freer.o)
__malloc_top_pad                                  /home/genius/gcc-arm-none-eabi-8-2018-q4-major/bin/../lib/gcc/arm-none-eabi/8.2.1/../../../../arm-none-eabi/lib/thumb/v7-m/nofp/libc.a(lib_a-mallocr.o)
                                                  /home/genius/gcc-arm-none-eabi-8-2018-q4-major/bin/../lib/gcc/arm-none-eabi/8.2.1/../../../../arm-none-eabi/lib/thumb/v7-m/nofp/libc.a(lib_a-freer.o)
__malloc_trim_threshold                           /home/genius/gcc-arm-none-eabi-8-2018-q4-major/bin/../lib/gcc/arm-none-eabi/8.2.1/../../../../arm-none-eabi/lib/thumb/v7-m/nofp/libc.a(lib_a-mallocr.o)
                                                  /home/genius/gcc-arm-none-eabi-8-2018-q4-major/bin/../lib/gcc/arm-none-eabi/8.2.1/../../../../arm-none-eabi/lib/thumb/v7-m/nofp/libc.a(lib_a-freer.o)
__malloc_unlock                                   /home/genius/gcc-arm-none-eabi-8-2018-q4-major/bin/../lib/gcc/arm-none-eabi/8.2.1/../../../../arm-none-eabi/lib/thumb/v7-m/nofp/libc.a(lib_a-mlock.o)
                                                  /home/genius/gcc-arm-none-eabi-8-2018-q4-major/bin/../lib/gcc/arm-none-eabi/8.2.1/../../../../arm-none-eabi/lib/thumb/v7-m/nofp/libc.a(lib_a-freer.o)
                                                  /home/genius/gcc-arm-none-eabi-8-2018-q4-major/bin/../lib/gcc/arm-none-eabi/8.2.1/../../../../arm-none-eabi/lib/thumb/v7-m/nofp/libc.a(lib_a-mallocr.o)
__mulsf3                                          /home/genius/gcc-arm-none-eabi-8-2018-q4-major/bin/../lib/gcc/arm-none-eabi/8.2.1/thumb/v7-m/nofp/libgcc.a(_arm_muldivsf3.o)
__retarget_lock_acquire                           /home/genius/gcc-arm-none-eabi-8-2018-q4-major/bin/../lib/gcc/arm-none-eabi/8.2.1/../../../../arm-none-eabi/lib/thumb/v7-m/nofp/libc.a(lib_a-lock.o)
__retarget_lock_acquire_recursive                 /home/genius/gcc-arm-none-eabi-8-2018-q4-major/bin/../lib/gcc/arm-none-eabi/8.2.1/../../../../arm-none-eabi/lib/thumb/v7-m/nofp/libc.a(lib_a-lock.o)
                                                  /home/genius/gcc-arm-none-eabi-8-2018-q4-major/bin/../lib/gcc/arm-none-eabi/8.2.1/../../../../arm-none-eabi/lib/thumb/v7-m/nofp/libc.a(lib_a-mlock.o)
__retarget_lock_close                             /home/genius/gcc-arm-none-eabi-8-2018-q4-major/bin/../lib/gcc/arm-none-eabi/8.2.1/../../../../arm-none-eabi/lib/thumb/v7-m/nofp/libc.a(lib_a-lock.o)
__retarget_lock_close_recursive                   /home/genius/gcc-arm-none-eabi-8-2018-q4-major/bin/../lib/gcc/arm-none-eabi/8.2.1/../../../../arm-none-eabi/lib/thumb/v7-m/nofp/libc.a(lib_a-lock.o)
__retarget_lock_init                              /home/genius/gcc-arm-none-eabi-8-2018-q4-major/bin/../lib/gcc/arm-none-eabi/8.2.1/../../../../arm-none-eabi/lib/thumb/v7-m/nofp/libc.a(lib_a-lock.o)
__retarget_lock_init_recursive                    /home/genius/gcc-arm-none-eabi-8-2018-q4-major/bin/../lib/gcc/arm-none-eabi/8.2.1/../../../../arm-none-eabi/lib/thumb/v7-m/nofp/libc.a(lib_a-lock.o)
__retarget_lock_release                           /home/genius/gcc-arm-none-eabi-8-2018-q4-major/bin/../lib/gcc/arm-none-eabi/8.2.1/../../../../arm-none-eabi/lib/thumb/v7-m/nofp/libc.a(lib_a-lock.o)
__retarget_lock_release_recursive                 /home/genius/gcc-arm-none-eabi-8-2018-q4-major/bin/../lib/gcc/arm-none-eabi/8.2.1/../../../../arm-none-eabi/lib/thumb/v7-m/nofp/libc.a(lib_a-lock.o)
                                                  /home/genius/gcc-arm-none-eabi-8-2018-q4-major/bin/../lib/gcc/arm-none-eabi/8.2.1/../../../../arm-none-eabi/lib/thumb/v7-m/nofp/libc.a(lib_a-mlock.o)
__retarget_lock_try_acquire                       /home/genius/gcc-arm-none-eabi-8-2018-q4-major/bin/../lib/gcc/arm-none-eabi/8.2.1/../../../../arm-none-eabi/lib/thumb/v7-m/nofp/libc.a(lib_a-lock.o)
__retarget_lock_try_acquire_recursive             /home/genius/gcc-arm-none-eabi-8-2018-q4-major/bin/../lib/gcc/arm-none-eabi/8.2.1/../../../../arm-none-eabi/lib/thumb/v7-m/nofp/libc.a(lib_a-lock.o)
__subsf3                                          /home/genius/gcc-arm-none-eabi-8-2018-q4-major/bin/../lib/gcc/arm-none-eabi/8.2.1/thumb/v7-m/nofp/libgcc.a(_arm_addsubsf3.o)
__udivmoddi4                                      /home/genius/gcc-arm-none-eabi-8-2018-q4-major/bin/../lib/gcc/arm-none-eabi/8.2.1/thumb/v7-m/nofp/libgcc.a(_udivmoddi4.o)
                                                  /home/genius/gcc-arm-none-eabi-8-2018-q4-major/bin/../lib/gcc/arm-none-eabi/8.2.1/thumb/v7-m/nofp/libgcc.a(_aeabi_uldivmod.o)
                                                  /home/genius/gcc-arm-none-eabi-8-2018-q4-major/bin/../lib/gcc/arm-none-eabi/8.2.1/thumb/v7-m/nofp/libgcc.a(_aeabi_ldivmod.o)
_bss                                              build/zoul/remote-revb/obj/startup-gcc.o
_compare                                          build/zoul/remote-revb/obj/sha256.o
_copy                                             build/zoul/remote-revb/obj/sha256.o
                                                  build/zoul/remote-revb/obj/myencrypt.o
_data                                             build/zoul/remote-revb/obj/startup-gcc.o
_double_byte                                      build/zoul/remote-revb/obj/sha256.o
                                                  build/zoul/remote-revb/obj/myencrypt.o
_ebss                                             build/zoul/remote-revb/obj/startup-gcc.o
_edata                                            build/zoul/remote-revb/obj/startup-gcc.o
_eheap                                            build/zoul/remote-revb/obj/syscalls.o
_free_r                                           /home/genius/gcc-arm-none-eabi-8-2018-q4-major/bin/../lib/gcc/arm-none-eabi/8.2.1/../../../../arm-none-eabi/lib/thumb/v7-m/nofp/libc.a(lib_a-freer.o)
                                                  /home/genius/gcc-arm-none-eabi-8-2018-q4-major/bin/../lib/gcc/arm-none-eabi/8.2.1/../../../../arm-none-eabi/lib/thumb/v7-m/nofp/libc.a(lib_a-reent.o)
                                                  /home/genius/gcc-arm-none-eabi-8-2018-q4-major/bin/../lib/gcc/arm-none-eabi/8.2.1/../../../../arm-none-eabi/lib/thumb/v7-m/nofp/libc.a(lib_a-mallocr.o)
                                                  /home/genius/gcc-arm-none-eabi-8-2018-q4-major/bin/../lib/gcc/arm-none-eabi/8.2.1/../../../../arm-none-eabi/lib/thumb/v7-m/nofp/libc.a(lib_a-malloc.o)
_global_impure_ptr                                /home/genius/gcc-arm-none-eabi-8-2018-q4-major/bin/../lib/gcc/arm-none-eabi/8.2.1/../../../../arm-none-eabi/lib/thumb/v7-m/nofp/libc.a(lib_a-impure.o)
_heap                                             build/zoul/remote-revb/obj/syscalls.o
_impure_ptr                                       /home/genius/gcc-arm-none-eabi-8-2018-q4-major/bin/../lib/gcc/arm-none-eabi/8.2.1/../../../../arm-none-eabi/lib/thumb/v7-m/nofp/libc.a(lib_a-impure.o)
                                                  /home/genius/gcc-arm-none-eabi-8-2018-q4-major/bin/../lib/gcc/arm-none-eabi/8.2.1/../../../../arm-none-eabi/lib/thumb/v7-m/nofp/libc.a(lib_a-reent.o)
                                                  /home/genius/gcc-arm-none-eabi-8-2018-q4-major/bin/../lib/gcc/arm-none-eabi/8.2.1/../../../../arm-none-eabi/lib/thumb/v7-m/nofp/libc.a(lib_a-rand.o)
                                                  /home/genius/gcc-arm-none-eabi-8-2018-q4-major/bin/../lib/gcc/arm-none-eabi/8.2.1/../../../../arm-none-eabi/lib/thumb/v7-m/nofp/libc.a(lib_a-malloc.o)
_ldata                                            build/zoul/remote-revb/obj/startup-gcc.o
_malloc_r                                         /home/genius/gcc-arm-none-eabi-8-2018-q4-major/bin/../lib/gcc/arm-none-eabi/8.2.1/../../../../arm-none-eabi/lib/thumb/v7-m/nofp/libc.a(lib_a-mallocr.o)
                                                  /home/genius/gcc-arm-none-eabi-8-2018-q4-major/bin/../lib/gcc/arm-none-eabi/8.2.1/../../../../arm-none-eabi/lib/thumb/v7-m/nofp/libc.a(lib_a-malloc.o)
_malloc_trim_r                                    /home/genius/gcc-arm-none-eabi-8-2018-q4-major/bin/../lib/gcc/arm-none-eabi/8.2.1/../../../../arm-none-eabi/lib/thumb/v7-m/nofp/libc.a(lib_a-freer.o)
_reclaim_reent                                    /home/genius/gcc-arm-none-eabi-8-2018-q4-major/bin/../lib/gcc/arm-none-eabi/8.2.1/../../../../arm-none-eabi/lib/thumb/v7-m/nofp/libc.a(lib_a-reent.o)
_sbrk                                             build/zoul/remote-revb/obj/syscalls.o
                                                  /home/genius/gcc-arm-none-eabi-8-2018-q4-major/bin/../lib/gcc/arm-none-eabi/8.2.1/../../../../arm-none-eabi/lib/thumb/v7-m/nofp/libc.a(lib_a-sbrkr.o)
_sbrk_r                                           /home/genius/gcc-arm-none-eabi-8-2018-q4-major/bin/../lib/gcc/arm-none-eabi/8.2.1/../../../../arm-none-eabi/lib/thumb/v7-m/nofp/libc.a(lib_a-sbrkr.o)
                                                  /home/genius/gcc-arm-none-eabi-8-2018-q4-major/bin/../lib/gcc/arm-none-eabi/8.2.1/../../../../arm-none-eabi/lib/thumb/v7-m/nofp/libc.a(lib_a-freer.o)
                                                  /home/genius/gcc-arm-none-eabi-8-2018-q4-major/bin/../lib/gcc/arm-none-eabi/8.2.1/../../../../arm-none-eabi/lib/thumb/v7-m/nofp/libc.a(lib_a-mallocr.o)
_set                                              build/zoul/remote-revb/obj/sha256.o
                                                  build/zoul/remote-revb/obj/myencrypt.o
_stack                                            build/zoul/remote-revb/obj/stack-check.o
_stack_origin                                     build/zoul/remote-revb/obj/stack-check.o
_xassert                                          build/zoul/remote-revb/obj/assert.o
adc_get                                           build/zoul/remote-revb/obj/adc.o
                                                  build/zoul/remote-revb/obj/vdd3-sensor.o
                                                  build/zoul/remote-revb/obj/cc2538-temp-sensor.o
                                                  build/zoul/remote-revb/obj/adc-zoul.o
adc_init                                          build/zoul/remote-revb/obj/adc.o
                                                  build/zoul/remote-revb/obj/adc-zoul.o
adc_zoul                                          build/zoul/remote-revb/obj/adc-zoul.o
aes_128_driver                                    build/zoul/remote-revb/obj/aes-128.o
aes_auth_crypt_check_status                       build/zoul/remote-revb/obj/aes.o
                                                  build/zoul/remote-revb/obj/cc2538-ccm-star.o
                                                  build/zoul/remote-revb/obj/ctr.o
                                                  build/zoul/remote-revb/obj/cbc.o
                                                  build/zoul/remote-revb/obj/ecb.o
aes_auth_crypt_get_result                         build/zoul/remote-revb/obj/aes.o
                                                  build/zoul/remote-revb/obj/ccm.o
                                                  build/zoul/remote-revb/obj/gcm.o
                                                  build/zoul/remote-revb/obj/cbc-mac.o
                                                  build/zoul/remote-revb/obj/ctr.o
                                                  build/zoul/remote-revb/obj/cbc.o
                                                  build/zoul/remote-revb/obj/ecb.o
aes_auth_crypt_start                              build/zoul/remote-revb/obj/aes.o
                                                  build/zoul/remote-revb/obj/ccm.o
                                                  build/zoul/remote-revb/obj/gcm.o
                                                  build/zoul/remote-revb/obj/cbc-mac.o
                                                  build/zoul/remote-revb/obj/ctr.o
                                                  build/zoul/remote-revb/obj/cbc.o
                                                  build/zoul/remote-revb/obj/ecb.o
aes_load_keys                                     build/zoul/remote-revb/obj/aes.o
                                                  build/zoul/remote-revb/obj/cc2538-aes-128.o
all_modules                                       build/zoul/remote-revb/obj/log.o
antenna_sw_config                                 build/zoul/remote-revb/obj/antenna-sw.o
                                                  build/zoul/remote-revb/obj/board.o
antenna_sw_get                                    build/zoul/remote-revb/obj/antenna-sw.o
antenna_sw_select                                 build/zoul/remote-revb/obj/antenna-sw.o
atomic_generic_cas_uint8                          build/zoul/remote-revb/obj/atomic.o
autostart_exit                                    build/zoul/remote-revb/obj/autostart.o
autostart_processes                               web-db.o
                                                  build/zoul/remote-revb/obj/contiki-main.o
autostart_start                                   build/zoul/remote-revb/obj/autostart.o
                                                  build/zoul/remote-revb/obj/contiki-main.o
b64_encode                                        web-db.o
b64_encoded_size                                  web-db.o
b64chars                                          web-db.o
bignum_add_get_result                             build/zoul/remote-revb/obj/bignum-driver.o
                                                  build/zoul/remote-revb/obj/ecc-algorithm.o
bignum_add_start                                  build/zoul/remote-revb/obj/bignum-driver.o
                                                  build/zoul/remote-revb/obj/ecc-algorithm.o
bignum_cmp_get_result                             build/zoul/remote-revb/obj/bignum-driver.o
                                                  build/zoul/remote-revb/obj/ecc-algorithm.o
bignum_cmp_start                                  build/zoul/remote-revb/obj/bignum-driver.o
                                                  build/zoul/remote-revb/obj/ecc-algorithm.o
bignum_divide_get_result                          build/zoul/remote-revb/obj/bignum-driver.o
bignum_divide_start                               build/zoul/remote-revb/obj/bignum-driver.o
bignum_exp_mod_get_result                         build/zoul/remote-revb/obj/bignum-driver.o
bignum_exp_mod_start                              build/zoul/remote-revb/obj/bignum-driver.o
bignum_inv_mod_get_result                         build/zoul/remote-revb/obj/bignum-driver.o
                                                  build/zoul/remote-revb/obj/ecc-algorithm.o
bignum_inv_mod_start                              build/zoul/remote-revb/obj/bignum-driver.o
                                                  build/zoul/remote-revb/obj/ecc-algorithm.o
bignum_mod_get_result                             build/zoul/remote-revb/obj/bignum-driver.o
                                                  build/zoul/remote-revb/obj/ecc-algorithm.o
bignum_mod_start                                  build/zoul/remote-revb/obj/bignum-driver.o
                                                  build/zoul/remote-revb/obj/ecc-algorithm.o
bignum_mul_get_result                             build/zoul/remote-revb/obj/bignum-driver.o
                                                  build/zoul/remote-revb/obj/ecc-algorithm.o
bignum_mul_start                                  build/zoul/remote-revb/obj/bignum-driver.o
                                                  build/zoul/remote-revb/obj/ecc-algorithm.o
bignum_subtract_get_result                        build/zoul/remote-revb/obj/bignum-driver.o
bignum_subtract_start                             build/zoul/remote-revb/obj/bignum-driver.o
board_init                                        build/zoul/remote-revb/obj/board.o
                                                  build/zoul/remote-revb/obj/platform.o
board_spi_locks_spi                               build/zoul/remote-revb/obj/spi-arch.o
button_hal_button_count                           build/zoul/remote-revb/obj/board-buttons.o
                                                  build/zoul/remote-revb/obj/button-hal.o
button_hal_buttons                                build/zoul/remote-revb/obj/board-buttons.o
                                                  build/zoul/remote-revb/obj/button-hal.o
button_hal_get_by_id                              build/zoul/remote-revb/obj/button-hal.o
button_hal_get_by_index                           build/zoul/remote-revb/obj/button-hal.o
button_hal_get_state                              build/zoul/remote-revb/obj/button-hal.o
button_hal_init                                   build/zoul/remote-revb/obj/button-hal.o
                                                  build/zoul/remote-revb/obj/platform.o
button_hal_periodic_event                         build/zoul/remote-revb/obj/button-hal.o
button_hal_press_event                            build/zoul/remote-revb/obj/button-hal.o
button_hal_process                                build/zoul/remote-revb/obj/button-hal.o
button_hal_release_event                          build/zoul/remote-revb/obj/button-hal.o
bytes_left_to_write                               build/zoul/remote-revb/obj/cc1200.o
cbc_crypt_check_status                            build/zoul/remote-revb/obj/cbc.o
cbc_crypt_start                                   build/zoul/remote-revb/obj/cbc.o
cbc_mac_auth_get_result                           build/zoul/remote-revb/obj/cbc-mac.o
cbc_mac_auth_start                                build/zoul/remote-revb/obj/cbc-mac.o
cc1200_802154g_863_870_fsk_50kbps                 build/zoul/remote-revb/obj/cc1200-802154g-863-870-fsk-50kbps.o
                                                  build/zoul/remote-revb/obj/cc1200.o
cc1200_868_4gfsk_1000kbps                         build/zoul/remote-revb/obj/cc1200-868-4gfsk-1000kbps.o
cc1200_868_fsk_1_2kbps                            build/zoul/remote-revb/obj/cc1200-868-fsk-1-2kbps.o
cc1200_arch_gpio0_disable_irq                     build/zoul/remote-revb/obj/cc1200-zoul-arch.o
                                                  build/zoul/remote-revb/obj/cc1200.o
cc1200_arch_gpio0_enable_irq                      build/zoul/remote-revb/obj/cc1200-zoul-arch.o
                                                  build/zoul/remote-revb/obj/cc1200.o
cc1200_arch_gpio0_read_pin                        build/zoul/remote-revb/obj/cc1200-zoul-arch.o
                                                  build/zoul/remote-revb/obj/cc1200.o
cc1200_arch_gpio0_setup_irq                       build/zoul/remote-revb/obj/cc1200-zoul-arch.o
                                                  build/zoul/remote-revb/obj/cc1200.o
cc1200_arch_gpio2_disable_irq                     build/zoul/remote-revb/obj/cc1200-zoul-arch.o
                                                  build/zoul/remote-revb/obj/cc1200.o
cc1200_arch_gpio2_enable_irq                      build/zoul/remote-revb/obj/cc1200-zoul-arch.o
                                                  build/zoul/remote-revb/obj/cc1200.o
cc1200_arch_gpio2_read_pin                        build/zoul/remote-revb/obj/cc1200-zoul-arch.o
                                                  build/zoul/remote-revb/obj/cc1200.o
cc1200_arch_gpio2_setup_irq                       build/zoul/remote-revb/obj/cc1200-zoul-arch.o
                                                  build/zoul/remote-revb/obj/cc1200.o
cc1200_arch_gpio3_read_pin                        build/zoul/remote-revb/obj/cc1200-zoul-arch.o
cc1200_arch_init                                  build/zoul/remote-revb/obj/cc1200-zoul-arch.o
                                                  build/zoul/remote-revb/obj/cc1200.o
cc1200_arch_spi_deselect                          build/zoul/remote-revb/obj/cc1200-zoul-arch.o
                                                  build/zoul/remote-revb/obj/cc1200.o
cc1200_arch_spi_rw                                build/zoul/remote-revb/obj/cc1200-zoul-arch.o
                                                  build/zoul/remote-revb/obj/cc1200.o
cc1200_arch_spi_rw_byte                           build/zoul/remote-revb/obj/cc1200-zoul-arch.o
                                                  build/zoul/remote-revb/obj/cc1200.o
cc1200_arch_spi_select                            build/zoul/remote-revb/obj/cc1200-zoul-arch.o
                                                  build/zoul/remote-revb/obj/cc1200.o
cc1200_driver                                     build/zoul/remote-revb/obj/cc1200.o
cc1200_int_handler                                build/zoul/remote-revb/obj/cc1200-zoul-arch.o
cc1200_process                                    build/zoul/remote-revb/obj/cc1200.o
cc1200_rx_interrupt                               build/zoul/remote-revb/obj/cc1200.o
                                                  build/zoul/remote-revb/obj/cc1200-zoul-arch.o
cc2538_aes_128_driver                             build/zoul/remote-revb/obj/cc2538-aes-128.o
                                                  build/zoul/remote-revb/obj/ccm-star.o
                                                  build/zoul/remote-revb/obj/cc2538-ccm-star.o
cc2538_ccm_star_driver                            build/zoul/remote-revb/obj/cc2538-ccm-star.o
cc2538_rf_driver                                  build/zoul/remote-revb/obj/cc2538-rf.o
                                                  build/zoul/remote-revb/obj/csma-output.o
                                                  build/zoul/remote-revb/obj/csma.o
                                                  build/zoul/remote-revb/obj/netstack.o
